{
  "_format": "hh-sol-artifact-1",
  "contractName": "Proxy_contract",
  "sourceName": "contracts/proxy.sol",
  "abi": [
    {
      "inputs": [
        {
          "internalType": "address",
          "name": "implementation",
          "type": "address"
        },
        {
          "internalType": "address",
          "name": "whodeploy",
          "type": "address"
        }
      ],
      "stateMutability": "nonpayable",
      "type": "constructor"
    },
    {
      "stateMutability": "payable",
      "type": "fallback"
    },
    {
      "inputs": [
        {
          "internalType": "address",
          "name": "new_owner",
          "type": "address"
        }
      ],
      "name": "changeOwner",
      "outputs": [],
      "stateMutability": "nonpayable",
      "type": "function"
    },
    {
      "inputs": [],
      "name": "getOwner",
      "outputs": [
        {
          "internalType": "address",
          "name": "",
          "type": "address"
        }
      ],
      "stateMutability": "view",
      "type": "function"
    },
    {
      "inputs": [
        {
          "internalType": "address",
          "name": "implementation",
          "type": "address"
        }
      ],
      "name": "update",
      "outputs": [],
      "stateMutability": "nonpayable",
      "type": "function"
    },
    {
      "stateMutability": "payable",
      "type": "receive"
    }
  ],
  "bytecode": "0x60806040523480156200001157600080fd5b5060405162000c6738038062000c67833981810160405281019062000037919062000203565b6200005367363e07a1c7cf49cf60c01b6200015760201b60201c565b6200006f67efa6a12a37cf60a660c01b6200015760201b60201c565b6200008b679bbdf5840f83607a60c01b6200015760201b60201c565b620000d160017fb618d9d3acae9868efbd61e58009d02a18b4c68c820f7d374893e09cc600f2ce60001c620000c1919062000283565b60001b826200015a60201b60201c565b620000ed6794d520d2e2540d7e60c01b6200015760201b60201c565b62000109675b2207298004bf4260c01b6200015760201b60201c565b6200014f60017f360894a13ba1a3210667c828492db98dca3e2076cc3735a920a3ca505d382bbd60001c6200013f919062000283565b60001b836200015a60201b60201c565b5050620002be565b50565b62000176673bf0eb899936ed6760c01b6200015760201b60201c565b62000192679d6191d532b17a8e60c01b6200015760201b60201c565b8082555050565b600080fd5b600073ffffffffffffffffffffffffffffffffffffffff82169050919050565b6000620001cb826200019e565b9050919050565b620001dd81620001be565b8114620001e957600080fd5b50565b600081519050620001fd81620001d2565b92915050565b600080604083850312156200021d576200021c62000199565b5b60006200022d85828601620001ec565b92505060206200024085828601620001ec565b9150509250929050565b6000819050919050565b7f4e487b7100000000000000000000000000000000000000000000000000000000600052601160045260246000fd5b600062000290826200024a565b91506200029d836200024a565b9250828203905081811115620002b857620002b762000254565b5b92915050565b61099980620002ce6000396000f3fe6080604052600436106100385760003560e01c80631c1b8772146101ff578063893d20e814610228578063a6f9dae1146102535761003f565b3661003f57005b60003660606100586794d30a998e4615bc60c01b61027c565b61006c679f427ba19831257f60c01b61027c565b61008067326c6bcb1dc7067e60c01b61027c565b600061009667964c2ff879730df560c01b61027c565b6100d160017f360894a13ba1a3210667c828492db98dca3e2076cc3735a920a3ca505d382bbd60001c6100c9919061077a565b60001b61027f565b90506100e767406118bbe1f4c81e60c01b61027c565b6100fb67de829d45d620bc3160c01b61027c565b6000610111674a019424e2869ca460c01b61027c565b8173ffffffffffffffffffffffffffffffffffffffff1685856040516101389291906107ed565b600060405180830381855af49150503d8060008114610173576040519150601f19603f3d011682016040523d82523d6000602084013e610178565b606091505b508094508192505050610195677ccd2e16610b226f60c01b61027c565b6101a9677239e6c1431c2be160c01b61027c565b806101de576101c26718585803c3b7aacd60c01b61027c565b6101d66793f208b277c2350d60c01b61027c565b825160208401fd5b6101f267b41a1e64a793b07360c01b61027c565b5050915050805190602001f35b34801561020b57600080fd5b5061022660048036038101906102219190610869565b6102b2565b005b34801561023457600080fd5b5061023d6104a3565b60405161024a91906108a5565b60405180910390f35b34801561025f57600080fd5b5061027a60048036038101906102759190610869565b610521565b005b50565b600061029567798a90f79330b1a860c01b61027c565b6102a967d48997b6f8a77e5960c01b61027c565b81549050919050565b6102c6676ac3133b1153add760c01b61027c565b6102da67de312c3877e2b64560c01b61027c565b6102ee67ab205cb8dc87973860c01b61027c565b610302678cd77e4da31be0e260c01b61027c565b600061033f60017fb618d9d3acae9868efbd61e58009d02a18b4c68c820f7d374893e09cc600f2ce60001c610337919061077a565b60001b61027f565b90506103556708a9ac22bffe09cd60c01b61027c565b610369677644229d0154df6660c01b61027c565b61037d675bd779080dfa9b4a60c01b61027c565b8073ffffffffffffffffffffffffffffffffffffffff163373ffffffffffffffffffffffffffffffffffffffff16146103eb576040517f08c379a00000000000000000000000000000000000000000000000000000000081526004016103e290610943565b60405180910390fd5b6103ff6732a054f20ebe052260c01b61027c565b610413679af21d3e250369d360c01b61027c565b61042767fe57722adb7fe83a60c01b61027c565b61043b6726a03b71bb09efb260c01b61027c565b61044f6720247178a05d43d160c01b61027c565b61046367542d2f0609e8c73b60c01b61027c565b61049f60017f360894a13ba1a3210667c828492db98dca3e2076cc3735a920a3ca505d382bbd60001c610496919061077a565b60001b83610712565b5050565b60006104b967addfbf40a855b83560c01b61027c565b6104cd673eed37b21cc7841060c01b61027c565b6104e167178d63140ccb0c8c60c01b61027c565b61051c60017fb618d9d3acae9868efbd61e58009d02a18b4c68c820f7d374893e09cc600f2ce60001c610514919061077a565b60001b61027f565b905090565b610535672c1a6c46c12e07df60c01b61027c565b61054967de312c3877e2b64560c01b61027c565b61055d67ab205cb8dc87973860c01b61027c565b610571678cd77e4da31be0e260c01b61027c565b60006105ae60017fb618d9d3acae9868efbd61e58009d02a18b4c68c820f7d374893e09cc600f2ce60001c6105a6919061077a565b60001b61027f565b90506105c46708a9ac22bffe09cd60c01b61027c565b6105d8677644229d0154df6660c01b61027c565b6105ec675bd779080dfa9b4a60c01b61027c565b8073ffffffffffffffffffffffffffffffffffffffff163373ffffffffffffffffffffffffffffffffffffffff161461065a576040517f08c379a000000000000000000000000000000000000000000000000000000000815260040161065190610943565b60405180910390fd5b61066e6732a054f20ebe052260c01b61027c565b610682679af21d3e250369d360c01b61027c565b61069667a0327dc5503bc63760c01b61027c565b6106aa6780268e0e48a8868d60c01b61027c565b6106be67945cf222bf3f850660c01b61027c565b6106d267ca2355fca2b6b3de60c01b61027c565b61070e60017fb618d9d3acae9868efbd61e58009d02a18b4c68c820f7d374893e09cc600f2ce60001c610705919061077a565b60001b83610712565b5050565b610726673bf0eb899936ed6760c01b61027c565b61073a679d6191d532b17a8e60c01b61027c565b8082555050565b6000819050919050565b7f4e487b7100000000000000000000000000000000000000000000000000000000600052601160045260246000fd5b600061078582610741565b915061079083610741565b92508282039050818111156107a8576107a761074b565b5b92915050565b600081905092915050565b82818337600083830152505050565b60006107d483856107ae565b93506107e18385846107b9565b82840190509392505050565b60006107fa8284866107c8565b91508190509392505050565b600080fd5b600073ffffffffffffffffffffffffffffffffffffffff82169050919050565b60006108368261080b565b9050919050565b6108468161082b565b811461085157600080fd5b50565b6000813590506108638161083d565b92915050565b60006020828403121561087f5761087e610806565b5b600061088d84828501610854565b91505092915050565b61089f8161082b565b82525050565b60006020820190506108ba6000830184610896565b92915050565b600082825260208201905092915050565b7f4f6e6c79204f776e65722063616e2075736520746869732066756e6374696f6e60008201527f2e00000000000000000000000000000000000000000000000000000000000000602082015250565b600061092d6021836108c0565b9150610938826108d1565b604082019050919050565b6000602082019050818103600083015261095c81610920565b905091905056fea26469706673582212205ade4ffa7592742c62d4dc8e451352838d1dc2d1760498fbecc0dc3144e8685a64736f6c63430008120033",
  "linkReferences": {},
  "deployedLinkReferences": {}
}