{"contracts/SafeUpgradeable.sol":{"StoreFund_v2":{"abi":[{"inputs":[{"internalType":"address","name":"","type":"address"},{"internalType":"address","name":"","type":"address"}],"name":"balances","outputs":[{"internalType":"uint256","name":"","type":"uint256"}],"stateMutability":"view","type":"function"},{"inputs":[{"internalType":"address","name":"tokenAddress","type":"address"},{"internalType":"uint256","name":"amount","type":"uint256"}],"name":"deposit","outputs":[],"stateMutability":"nonpayable","type":"function"},{"inputs":[{"internalType":"address","name":"NewOwner","type":"address"}],"name":"initialize","outputs":[],"stateMutability":"nonpayable","type":"function"},{"inputs":[],"name":"initialized","outputs":[{"internalType":"bool","name":"","type":"bool"}],"stateMutability":"view","type":"function"},{"inputs":[],"name":"owner","outputs":[{"internalType":"address","name":"","type":"address"}],"stateMutability":"view","type":"function"},{"inputs":[{"internalType":"address","name":"tokenAddress","type":"address"}],"name":"takefee","outputs":[],"stateMutability":"nonpayable","type":"function"},{"inputs":[{"internalType":"address","name":"","type":"address"}],"name":"totalfee","outputs":[{"internalType":"uint256","name":"","type":"uint256"}],"stateMutability":"view","type":"function"},{"inputs":[{"internalType":"address","name":"tokenAddress","type":"address"},{"internalType":"uint256","name":"amount","type":"uint256"}],"name":"withdraw","outputs":[],"stateMutability":"nonpayable","type":"function"}],"evm":{"bytecode":{"linkReferences":{},"object":"608060405234801561001057600080fd5b5061002b6760e0a990809517e560c01b61008a60201b60201c565b61004567cf2ba84ff3e9ba1a60c01b61008a60201b60201c565b336000806101000a81548173ffffffffffffffffffffffffffffffffffffffff021916908373ffffffffffffffffffffffffffffffffffffffff16021790555061008d565b50565b6116108061009c6000396000f3fe608060405234801561001057600080fd5b50600436106100885760003560e01c80638da5cb5b1161005b5780638da5cb5b14610113578063c23f001f14610131578063c4d66de814610161578063f3fef3a31461017d57610088565b8063158ef93e1461008d5780631e89dfb6146100ab578063465ded82146100c757806347e7ef24146100f7575b600080fd5b610095610199565b6040516100a29190610e29565b60405180910390f35b6100c560048036038101906100c09190610ea7565b6101ac565b005b6100e160048036038101906100dc9190610ea7565b6103fc565b6040516100ee9190610eed565b60405180910390f35b610111600480360381019061010c9190610f34565b610414565b005b61011b61073d565b6040516101289190610f83565b60405180910390f35b61014b60048036038101906101469190610f9e565b610761565b6040516101589190610eed565b60405180910390f35b61017b60048036038101906101769190610ea7565b610786565b005b61019760048036038101906101929190610f34565b6108c0565b005b600360009054906101000a900460ff1681565b6101c06708a62702dc15449f60c01b610a65565b6101d467bf7d3d512f15a65860c01b610a68565b6101e867a13f6f6290f6ed6d60c01b610a68565b6101fc67a1562c92563709b560c01b610a68565b610210671a44e0f51eb858ee60c01b610a68565b60008054906101000a900473ffffffffffffffffffffffffffffffffffffffff1673ffffffffffffffffffffffffffffffffffffffff163373ffffffffffffffffffffffffffffffffffffffff161461029e576040517f08c379a000000000000000000000000000000000000000000000000000000000815260040161029590611061565b60405180910390fd5b6102b2672e8d6dd2626e427360c01b610a68565b6102c667d1116e53d575bfeb60c01b610a68565b6102da67f439023f76f0b31c60c01b610a65565b6102ee67a6f8d7f28335767d60c01b610a65565b61030267d772bba5a852622360c01b610a65565b61031667486c1a9c3abeac8560c01b610a65565b6103a060008054906101000a900473ffffffffffffffffffffffffffffffffffffffff16600260008473ffffffffffffffffffffffffffffffffffffffff1673ffffffffffffffffffffffffffffffffffffffff168152602001908152602001600020548373ffffffffffffffffffffffffffffffffffffffff16610a6b9092919063ffffffff16565b6103b467ee277c61d6117fa560c01b610a65565b6000600260008373ffffffffffffffffffffffffffffffffffffffff1673ffffffffffffffffffffffffffffffffffffffff1681526020019081526020016000208190555050565b60026020528060005260406000206000915090505481565b61042867b5c4bf41b54f869560c01b610a65565b61043c67cf95479d3e7b65c660c01b610a65565b61045067a818e53275658f9c60c01b610a65565b61046467be222dd24ac2255c60c01b610a65565b600081116104a7576040517f08c379a000000000000000000000000000000000000000000000000000000000815260040161049e906110cd565b60405180910390fd5b6104bb67aec4a26d6546d68660c01b610a65565b6104cf6702c636e221b5f7f360c01b610a65565b6104e367e82a7000efa69e3c60c01b610a65565b60006104f967364ebebf88fe7d8960c01b610a65565b61050d67966e209036e5917760c01b610a65565b61053a3330848673ffffffffffffffffffffffffffffffffffffffff16610af1909392919063ffffffff16565b61054e67cfeb3614e3e5758460c01b610a65565b61056267f19a9cf6be379b2660c01b610a65565b6103e88210156105c05761058067a417323bd3e755d260c01b610a65565b6105946781b2452f5be0142d60c01b610a65565b600190506105ac6706cf9259bc9b38c960c01b610a65565b6001826105b9919061111c565b9150610627565b6105d46760c234a9b166141160c01b610a65565b6105e86740c383ba874bab8360c01b610a65565b612710600a836105f89190611150565b61060291906111c1565b9050610618675d091a3ee3a53a7a60c01b610a65565b8082610624919061111c565b91505b61063b671868233be905d30d60c01b610a65565b81600160003373ffffffffffffffffffffffffffffffffffffffff1673ffffffffffffffffffffffffffffffffffffffff16815260200190815260200160002060008573ffffffffffffffffffffffffffffffffffffffff1673ffffffffffffffffffffffffffffffffffffffff16815260200190815260200160002060008282546106c791906111f2565b925050819055506106e267328039bc80b56e8b60c01b610a65565b80600260008573ffffffffffffffffffffffffffffffffffffffff1673ffffffffffffffffffffffffffffffffffffffff168152602001908152602001600020600082825461073191906111f2565b92505081905550505050565b60008054906101000a900473ffffffffffffffffffffffffffffffffffffffff1681565b6001602052816000526040600020602052806000526040600020600091509150505481565b61079a67e8aeaea867ab9f8b60c01b610a65565b6107ae673a2e681fe1bf79fe60c01b610a65565b6107c2670c67fc2143a151bd60c01b610a65565b6107d667795f815f6a66d67160c01b610a65565b600360009054906101000a900460ff1615610826576040517f08c379a000000000000000000000000000000000000000000000000000000000815260040161081d90611272565b60405180910390fd5b61083a67121c0aca9f14fe4e60c01b610a65565b61084e676a45152556dedece60c01b610a65565b806000806101000a81548173ffffffffffffffffffffffffffffffffffffffff021916908373ffffffffffffffffffffffffffffffffffffffff1602179055506108a267f4911a353802b9be60c01b610a65565b6001600360006101000a81548160ff02191690831515021790555050565b6108d4677fd66e44f17d96f860c01b610a65565b6108e867ce391b5482da6a6f60c01b610a65565b6108fc67059c90ccb0ed827560c01b610a65565b610910675af3074d411a414760c01b610a65565b60008111610953576040517f08c379a000000000000000000000000000000000000000000000000000000000815260040161094a906110cd565b60405180910390fd5b610967674c74e06cbaf433a360c01b610a65565b61097b67ed621946d039c9b260c01b610a65565b80600160003373ffffffffffffffffffffffffffffffffffffffff1673ffffffffffffffffffffffffffffffffffffffff16815260200190815260200160002060008473ffffffffffffffffffffffffffffffffffffffff1673ffffffffffffffffffffffffffffffffffffffff1681526020019081526020016000206000828254610a07919061111c565b92505081905550610a2267bf79d2cb24d56f8360c01b610a65565b610a366760d70b63d22791a460c01b610a65565b610a6133828473ffffffffffffffffffffffffffffffffffffffff16610a6b9092919063ffffffff16565b5050565b50565b50565b610aec8363a9059cbb60e01b8484604051602401610a8a929190611292565b604051602081830303815290604052907bffffffffffffffffffffffffffffffffffffffffffffffffffffffff19166020820180517bffffffffffffffffffffffffffffffffffffffffffffffffffffffff8381831617835250505050610b7a565b505050565b610b74846323b872dd60e01b858585604051602401610b12939291906112bb565b604051602081830303815290604052907bffffffffffffffffffffffffffffffffffffffffffffffffffffffff19166020820180517bffffffffffffffffffffffffffffffffffffffffffffffffffffffff8381831617835250505050610b7a565b50505050565b6000610bdc826040518060400160405280602081526020017f5361666545524332303a206c6f772d6c6576656c2063616c6c206661696c65648152508573ffffffffffffffffffffffffffffffffffffffff16610c419092919063ffffffff16565b9050600081511115610c3c5780806020019051810190610bfc919061131e565b610c3b576040517f08c379a0000000000000000000000000000000000000000000000000000000008152600401610c32906113bd565b60405180910390fd5b5b505050565b6060610c508484600085610c59565b90509392505050565b606082471015610c9e576040517f08c379a0000000000000000000000000000000000000000000000000000000008152600401610c959061144f565b60405180910390fd5b6000808673ffffffffffffffffffffffffffffffffffffffff168587604051610cc791906114e0565b60006040518083038185875af1925050503d8060008114610d04576040519150601f19603f3d011682016040523d82523d6000602084013e610d09565b606091505b5091509150610d1a87838387610d26565b92505050949350505050565b60608315610d88576000835103610d8057610d4085610d9b565b610d7f576040517f08c379a0000000000000000000000000000000000000000000000000000000008152600401610d7690611543565b60405180910390fd5b5b829050610d93565b610d928383610dbe565b5b949350505050565b6000808273ffffffffffffffffffffffffffffffffffffffff163b119050919050565b600082511115610dd15781518083602001fd5b806040517f08c379a0000000000000000000000000000000000000000000000000000000008152600401610e0591906115b8565b60405180910390fd5b60008115159050919050565b610e2381610e0e565b82525050565b6000602082019050610e3e6000830184610e1a565b92915050565b600080fd5b600073ffffffffffffffffffffffffffffffffffffffff82169050919050565b6000610e7482610e49565b9050919050565b610e8481610e69565b8114610e8f57600080fd5b50565b600081359050610ea181610e7b565b92915050565b600060208284031215610ebd57610ebc610e44565b5b6000610ecb84828501610e92565b91505092915050565b6000819050919050565b610ee781610ed4565b82525050565b6000602082019050610f026000830184610ede565b92915050565b610f1181610ed4565b8114610f1c57600080fd5b50565b600081359050610f2e81610f08565b92915050565b60008060408385031215610f4b57610f4a610e44565b5b6000610f5985828601610e92565b9250506020610f6a85828601610f1f565b9150509250929050565b610f7d81610e69565b82525050565b6000602082019050610f986000830184610f74565b92915050565b60008060408385031215610fb557610fb4610e44565b5b6000610fc385828601610e92565b9250506020610fd485828601610e92565b9150509250929050565b600082825260208201905092915050565b7f4f6e6c79204f776e65722063616e2075736520746869732066756e6374696f6e60008201527f2e00000000000000000000000000000000000000000000000000000000000000602082015250565b600061104b602183610fde565b915061105682610fef565b604082019050919050565b6000602082019050818103600083015261107a8161103e565b9050919050565b7f416d6f756e742073686f756c64206265206c6172676572207468616e20302e00600082015250565b60006110b7601f83610fde565b91506110c282611081565b602082019050919050565b600060208201905081810360008301526110e6816110aa565b9050919050565b7f4e487b7100000000000000000000000000000000000000000000000000000000600052601160045260246000fd5b600061112782610ed4565b915061113283610ed4565b925082820390508181111561114a576111496110ed565b5b92915050565b600061115b82610ed4565b915061116683610ed4565b925082820261117481610ed4565b9150828204841483151761118b5761118a6110ed565b5b5092915050565b7f4e487b7100000000000000000000000000000000000000000000000000000000600052601260045260246000fd5b60006111cc82610ed4565b91506111d783610ed4565b9250826111e7576111e6611192565b5b828204905092915050565b60006111fd82610ed4565b915061120883610ed4565b92508282019050808211156112205761121f6110ed565b5b92915050565b7f616c726561647920696e697469616c697a656400000000000000000000000000600082015250565b600061125c601383610fde565b915061126782611226565b602082019050919050565b6000602082019050818103600083015261128b8161124f565b9050919050565b60006040820190506112a76000830185610f74565b6112b46020830184610ede565b9392505050565b60006060820190506112d06000830186610f74565b6112dd6020830185610f74565b6112ea6040830184610ede565b949350505050565b6112fb81610e0e565b811461130657600080fd5b50565b600081519050611318816112f2565b92915050565b60006020828403121561133457611333610e44565b5b600061134284828501611309565b91505092915050565b7f5361666545524332303a204552433230206f7065726174696f6e20646964206e60008201527f6f74207375636365656400000000000000000000000000000000000000000000602082015250565b60006113a7602a83610fde565b91506113b28261134b565b604082019050919050565b600060208201905081810360008301526113d68161139a565b9050919050565b7f416464726573733a20696e73756666696369656e742062616c616e636520666f60008201527f722063616c6c0000000000000000000000000000000000000000000000000000602082015250565b6000611439602683610fde565b9150611444826113dd565b604082019050919050565b600060208201905081810360008301526114688161142c565b9050919050565b600081519050919050565b600081905092915050565b60005b838110156114a3578082015181840152602081019050611488565b60008484015250505050565b60006114ba8261146f565b6114c4818561147a565b93506114d4818560208601611485565b80840191505092915050565b60006114ec82846114af565b915081905092915050565b7f416464726573733a2063616c6c20746f206e6f6e2d636f6e7472616374000000600082015250565b600061152d601d83610fde565b9150611538826114f7565b602082019050919050565b6000602082019050818103600083015261155c81611520565b9050919050565b600081519050919050565b6000601f19601f8301169050919050565b600061158a82611563565b6115948185610fde565b93506115a4818560208601611485565b6115ad8161156e565b840191505092915050565b600060208201905081810360008301526115d2818461157f565b90509291505056fea2646970667358221220356a81b3bae8e168ea1bd8c3d6159f692ac8002069ff66e84e323806d60c61ac64736f6c63430008120033","opcodes":"PUSH1 0x80 PUSH1 0x40 MSTORE CALLVALUE DUP1 ISZERO PUSH2 0x10 JUMPI PUSH1 0x0 DUP1 REVERT JUMPDEST POP PUSH2 0x2B PUSH8 0x60E0A990809517E5 PUSH1 0xC0 SHL PUSH2 0x8A PUSH1 0x20 SHL PUSH1 0x20 SHR JUMP JUMPDEST PUSH2 0x45 PUSH8 0xCF2BA84FF3E9BA1A PUSH1 0xC0 SHL PUSH2 0x8A PUSH1 0x20 SHL PUSH1 0x20 SHR JUMP JUMPDEST CALLER PUSH1 0x0 DUP1 PUSH2 0x100 EXP DUP2 SLOAD DUP2 PUSH20 0xFFFFFFFFFFFFFFFFFFFFFFFFFFFFFFFFFFFFFFFF MUL NOT AND SWAP1 DUP4 PUSH20 0xFFFFFFFFFFFFFFFFFFFFFFFFFFFFFFFFFFFFFFFF AND MUL OR SWAP1 SSTORE POP PUSH2 0x8D JUMP JUMPDEST POP JUMP JUMPDEST PUSH2 0x1610 DUP1 PUSH2 0x9C PUSH1 0x0 CODECOPY PUSH1 0x0 RETURN INVALID PUSH1 0x80 PUSH1 0x40 MSTORE CALLVALUE DUP1 ISZERO PUSH2 0x10 JUMPI PUSH1 0x0 DUP1 REVERT JUMPDEST POP PUSH1 0x4 CALLDATASIZE LT PUSH2 0x88 JUMPI PUSH1 0x0 CALLDATALOAD PUSH1 0xE0 SHR DUP1 PUSH4 0x8DA5CB5B GT PUSH2 0x5B JUMPI DUP1 PUSH4 0x8DA5CB5B EQ PUSH2 0x113 JUMPI DUP1 PUSH4 0xC23F001F EQ PUSH2 0x131 JUMPI DUP1 PUSH4 0xC4D66DE8 EQ PUSH2 0x161 JUMPI DUP1 PUSH4 0xF3FEF3A3 EQ PUSH2 0x17D JUMPI PUSH2 0x88 JUMP JUMPDEST DUP1 PUSH4 0x158EF93E EQ PUSH2 0x8D JUMPI DUP1 PUSH4 0x1E89DFB6 EQ PUSH2 0xAB JUMPI DUP1 PUSH4 0x465DED82 EQ PUSH2 0xC7 JUMPI DUP1 PUSH4 0x47E7EF24 EQ PUSH2 0xF7 JUMPI JUMPDEST PUSH1 0x0 DUP1 REVERT JUMPDEST PUSH2 0x95 PUSH2 0x199 JUMP JUMPDEST PUSH1 0x40 MLOAD PUSH2 0xA2 SWAP2 SWAP1 PUSH2 0xE29 JUMP JUMPDEST PUSH1 0x40 MLOAD DUP1 SWAP2 SUB SWAP1 RETURN JUMPDEST PUSH2 0xC5 PUSH1 0x4 DUP1 CALLDATASIZE SUB DUP2 ADD SWAP1 PUSH2 0xC0 SWAP2 SWAP1 PUSH2 0xEA7 JUMP JUMPDEST PUSH2 0x1AC JUMP JUMPDEST STOP JUMPDEST PUSH2 0xE1 PUSH1 0x4 DUP1 CALLDATASIZE SUB DUP2 ADD SWAP1 PUSH2 0xDC SWAP2 SWAP1 PUSH2 0xEA7 JUMP JUMPDEST PUSH2 0x3FC JUMP JUMPDEST PUSH1 0x40 MLOAD PUSH2 0xEE SWAP2 SWAP1 PUSH2 0xEED JUMP JUMPDEST PUSH1 0x40 MLOAD DUP1 SWAP2 SUB SWAP1 RETURN JUMPDEST PUSH2 0x111 PUSH1 0x4 DUP1 CALLDATASIZE SUB DUP2 ADD SWAP1 PUSH2 0x10C SWAP2 SWAP1 PUSH2 0xF34 JUMP JUMPDEST PUSH2 0x414 JUMP JUMPDEST STOP JUMPDEST PUSH2 0x11B PUSH2 0x73D JUMP JUMPDEST PUSH1 0x40 MLOAD PUSH2 0x128 SWAP2 SWAP1 PUSH2 0xF83 JUMP JUMPDEST PUSH1 0x40 MLOAD DUP1 SWAP2 SUB SWAP1 RETURN JUMPDEST PUSH2 0x14B PUSH1 0x4 DUP1 CALLDATASIZE SUB DUP2 ADD SWAP1 PUSH2 0x146 SWAP2 SWAP1 PUSH2 0xF9E JUMP JUMPDEST PUSH2 0x761 JUMP JUMPDEST PUSH1 0x40 MLOAD PUSH2 0x158 SWAP2 SWAP1 PUSH2 0xEED JUMP JUMPDEST PUSH1 0x40 MLOAD DUP1 SWAP2 SUB SWAP1 RETURN JUMPDEST PUSH2 0x17B PUSH1 0x4 DUP1 CALLDATASIZE SUB DUP2 ADD SWAP1 PUSH2 0x176 SWAP2 SWAP1 PUSH2 0xEA7 JUMP JUMPDEST PUSH2 0x786 JUMP JUMPDEST STOP JUMPDEST PUSH2 0x197 PUSH1 0x4 DUP1 CALLDATASIZE SUB DUP2 ADD SWAP1 PUSH2 0x192 SWAP2 SWAP1 PUSH2 0xF34 JUMP JUMPDEST PUSH2 0x8C0 JUMP JUMPDEST STOP JUMPDEST PUSH1 0x3 PUSH1 0x0 SWAP1 SLOAD SWAP1 PUSH2 0x100 EXP SWAP1 DIV PUSH1 0xFF AND DUP2 JUMP JUMPDEST PUSH2 0x1C0 PUSH8 0x8A62702DC15449F PUSH1 0xC0 SHL PUSH2 0xA65 JUMP JUMPDEST PUSH2 0x1D4 PUSH8 0xBF7D3D512F15A658 PUSH1 0xC0 SHL PUSH2 0xA68 JUMP JUMPDEST PUSH2 0x1E8 PUSH8 0xA13F6F6290F6ED6D PUSH1 0xC0 SHL PUSH2 0xA68 JUMP JUMPDEST PUSH2 0x1FC PUSH8 0xA1562C92563709B5 PUSH1 0xC0 SHL PUSH2 0xA68 JUMP JUMPDEST PUSH2 0x210 PUSH8 0x1A44E0F51EB858EE PUSH1 0xC0 SHL PUSH2 0xA68 JUMP JUMPDEST PUSH1 0x0 DUP1 SLOAD SWAP1 PUSH2 0x100 EXP SWAP1 DIV PUSH20 0xFFFFFFFFFFFFFFFFFFFFFFFFFFFFFFFFFFFFFFFF AND PUSH20 0xFFFFFFFFFFFFFFFFFFFFFFFFFFFFFFFFFFFFFFFF AND CALLER PUSH20 0xFFFFFFFFFFFFFFFFFFFFFFFFFFFFFFFFFFFFFFFF AND EQ PUSH2 0x29E JUMPI PUSH1 0x40 MLOAD PUSH32 0x8C379A000000000000000000000000000000000000000000000000000000000 DUP2 MSTORE PUSH1 0x4 ADD PUSH2 0x295 SWAP1 PUSH2 0x1061 JUMP JUMPDEST PUSH1 0x40 MLOAD DUP1 SWAP2 SUB SWAP1 REVERT JUMPDEST PUSH2 0x2B2 PUSH8 0x2E8D6DD2626E4273 PUSH1 0xC0 SHL PUSH2 0xA68 JUMP JUMPDEST PUSH2 0x2C6 PUSH8 0xD1116E53D575BFEB PUSH1 0xC0 SHL PUSH2 0xA68 JUMP JUMPDEST PUSH2 0x2DA PUSH8 0xF439023F76F0B31C PUSH1 0xC0 SHL PUSH2 0xA65 JUMP JUMPDEST PUSH2 0x2EE PUSH8 0xA6F8D7F28335767D PUSH1 0xC0 SHL PUSH2 0xA65 JUMP JUMPDEST PUSH2 0x302 PUSH8 0xD772BBA5A8526223 PUSH1 0xC0 SHL PUSH2 0xA65 JUMP JUMPDEST PUSH2 0x316 PUSH8 0x486C1A9C3ABEAC85 PUSH1 0xC0 SHL PUSH2 0xA65 JUMP JUMPDEST PUSH2 0x3A0 PUSH1 0x0 DUP1 SLOAD SWAP1 PUSH2 0x100 EXP SWAP1 DIV PUSH20 0xFFFFFFFFFFFFFFFFFFFFFFFFFFFFFFFFFFFFFFFF AND PUSH1 0x2 PUSH1 0x0 DUP5 PUSH20 0xFFFFFFFFFFFFFFFFFFFFFFFFFFFFFFFFFFFFFFFF AND PUSH20 0xFFFFFFFFFFFFFFFFFFFFFFFFFFFFFFFFFFFFFFFF AND DUP2 MSTORE PUSH1 0x20 ADD SWAP1 DUP2 MSTORE PUSH1 0x20 ADD PUSH1 0x0 KECCAK256 SLOAD DUP4 PUSH20 0xFFFFFFFFFFFFFFFFFFFFFFFFFFFFFFFFFFFFFFFF AND PUSH2 0xA6B SWAP1 SWAP3 SWAP2 SWAP1 PUSH4 0xFFFFFFFF AND JUMP JUMPDEST PUSH2 0x3B4 PUSH8 0xEE277C61D6117FA5 PUSH1 0xC0 SHL PUSH2 0xA65 JUMP JUMPDEST PUSH1 0x0 PUSH1 0x2 PUSH1 0x0 DUP4 PUSH20 0xFFFFFFFFFFFFFFFFFFFFFFFFFFFFFFFFFFFFFFFF AND PUSH20 0xFFFFFFFFFFFFFFFFFFFFFFFFFFFFFFFFFFFFFFFF AND DUP2 MSTORE PUSH1 0x20 ADD SWAP1 DUP2 MSTORE PUSH1 0x20 ADD PUSH1 0x0 KECCAK256 DUP2 SWAP1 SSTORE POP POP JUMP JUMPDEST PUSH1 0x2 PUSH1 0x20 MSTORE DUP1 PUSH1 0x0 MSTORE PUSH1 0x40 PUSH1 0x0 KECCAK256 PUSH1 0x0 SWAP2 POP SWAP1 POP SLOAD DUP2 JUMP JUMPDEST PUSH2 0x428 PUSH8 0xB5C4BF41B54F8695 PUSH1 0xC0 SHL PUSH2 0xA65 JUMP JUMPDEST PUSH2 0x43C PUSH8 0xCF95479D3E7B65C6 PUSH1 0xC0 SHL PUSH2 0xA65 JUMP JUMPDEST PUSH2 0x450 PUSH8 0xA818E53275658F9C PUSH1 0xC0 SHL PUSH2 0xA65 JUMP JUMPDEST PUSH2 0x464 PUSH8 0xBE222DD24AC2255C PUSH1 0xC0 SHL PUSH2 0xA65 JUMP JUMPDEST PUSH1 0x0 DUP2 GT PUSH2 0x4A7 JUMPI PUSH1 0x40 MLOAD PUSH32 0x8C379A000000000000000000000000000000000000000000000000000000000 DUP2 MSTORE PUSH1 0x4 ADD PUSH2 0x49E SWAP1 PUSH2 0x10CD JUMP JUMPDEST PUSH1 0x40 MLOAD DUP1 SWAP2 SUB SWAP1 REVERT JUMPDEST PUSH2 0x4BB PUSH8 0xAEC4A26D6546D686 PUSH1 0xC0 SHL PUSH2 0xA65 JUMP JUMPDEST PUSH2 0x4CF PUSH8 0x2C636E221B5F7F3 PUSH1 0xC0 SHL PUSH2 0xA65 JUMP JUMPDEST PUSH2 0x4E3 PUSH8 0xE82A7000EFA69E3C PUSH1 0xC0 SHL PUSH2 0xA65 JUMP JUMPDEST PUSH1 0x0 PUSH2 0x4F9 PUSH8 0x364EBEBF88FE7D89 PUSH1 0xC0 SHL PUSH2 0xA65 JUMP JUMPDEST PUSH2 0x50D PUSH8 0x966E209036E59177 PUSH1 0xC0 SHL PUSH2 0xA65 JUMP JUMPDEST PUSH2 0x53A CALLER ADDRESS DUP5 DUP7 PUSH20 0xFFFFFFFFFFFFFFFFFFFFFFFFFFFFFFFFFFFFFFFF AND PUSH2 0xAF1 SWAP1 SWAP4 SWAP3 SWAP2 SWAP1 PUSH4 0xFFFFFFFF AND JUMP JUMPDEST PUSH2 0x54E PUSH8 0xCFEB3614E3E57584 PUSH1 0xC0 SHL PUSH2 0xA65 JUMP JUMPDEST PUSH2 0x562 PUSH8 0xF19A9CF6BE379B26 PUSH1 0xC0 SHL PUSH2 0xA65 JUMP JUMPDEST PUSH2 0x3E8 DUP3 LT ISZERO PUSH2 0x5C0 JUMPI PUSH2 0x580 PUSH8 0xA417323BD3E755D2 PUSH1 0xC0 SHL PUSH2 0xA65 JUMP JUMPDEST PUSH2 0x594 PUSH8 0x81B2452F5BE0142D PUSH1 0xC0 SHL PUSH2 0xA65 JUMP JUMPDEST PUSH1 0x1 SWAP1 POP PUSH2 0x5AC PUSH8 0x6CF9259BC9B38C9 PUSH1 0xC0 SHL PUSH2 0xA65 JUMP JUMPDEST PUSH1 0x1 DUP3 PUSH2 0x5B9 SWAP2 SWAP1 PUSH2 0x111C JUMP JUMPDEST SWAP2 POP PUSH2 0x627 JUMP JUMPDEST PUSH2 0x5D4 PUSH8 0x60C234A9B1661411 PUSH1 0xC0 SHL PUSH2 0xA65 JUMP JUMPDEST PUSH2 0x5E8 PUSH8 0x40C383BA874BAB83 PUSH1 0xC0 SHL PUSH2 0xA65 JUMP JUMPDEST PUSH2 0x2710 PUSH1 0xA DUP4 PUSH2 0x5F8 SWAP2 SWAP1 PUSH2 0x1150 JUMP JUMPDEST PUSH2 0x602 SWAP2 SWAP1 PUSH2 0x11C1 JUMP JUMPDEST SWAP1 POP PUSH2 0x618 PUSH8 0x5D091A3EE3A53A7A PUSH1 0xC0 SHL PUSH2 0xA65 JUMP JUMPDEST DUP1 DUP3 PUSH2 0x624 SWAP2 SWAP1 PUSH2 0x111C JUMP JUMPDEST SWAP2 POP JUMPDEST PUSH2 0x63B PUSH8 0x1868233BE905D30D PUSH1 0xC0 SHL PUSH2 0xA65 JUMP JUMPDEST DUP2 PUSH1 0x1 PUSH1 0x0 CALLER PUSH20 0xFFFFFFFFFFFFFFFFFFFFFFFFFFFFFFFFFFFFFFFF AND PUSH20 0xFFFFFFFFFFFFFFFFFFFFFFFFFFFFFFFFFFFFFFFF AND DUP2 MSTORE PUSH1 0x20 ADD SWAP1 DUP2 MSTORE PUSH1 0x20 ADD PUSH1 0x0 KECCAK256 PUSH1 0x0 DUP6 PUSH20 0xFFFFFFFFFFFFFFFFFFFFFFFFFFFFFFFFFFFFFFFF AND PUSH20 0xFFFFFFFFFFFFFFFFFFFFFFFFFFFFFFFFFFFFFFFF AND DUP2 MSTORE PUSH1 0x20 ADD SWAP1 DUP2 MSTORE PUSH1 0x20 ADD PUSH1 0x0 KECCAK256 PUSH1 0x0 DUP3 DUP3 SLOAD PUSH2 0x6C7 SWAP2 SWAP1 PUSH2 0x11F2 JUMP JUMPDEST SWAP3 POP POP DUP2 SWAP1 SSTORE POP PUSH2 0x6E2 PUSH8 0x328039BC80B56E8B PUSH1 0xC0 SHL PUSH2 0xA65 JUMP JUMPDEST DUP1 PUSH1 0x2 PUSH1 0x0 DUP6 PUSH20 0xFFFFFFFFFFFFFFFFFFFFFFFFFFFFFFFFFFFFFFFF AND PUSH20 0xFFFFFFFFFFFFFFFFFFFFFFFFFFFFFFFFFFFFFFFF AND DUP2 MSTORE PUSH1 0x20 ADD SWAP1 DUP2 MSTORE PUSH1 0x20 ADD PUSH1 0x0 KECCAK256 PUSH1 0x0 DUP3 DUP3 SLOAD PUSH2 0x731 SWAP2 SWAP1 PUSH2 0x11F2 JUMP JUMPDEST SWAP3 POP POP DUP2 SWAP1 SSTORE POP POP POP POP JUMP JUMPDEST PUSH1 0x0 DUP1 SLOAD SWAP1 PUSH2 0x100 EXP SWAP1 DIV PUSH20 0xFFFFFFFFFFFFFFFFFFFFFFFFFFFFFFFFFFFFFFFF AND DUP2 JUMP JUMPDEST PUSH1 0x1 PUSH1 0x20 MSTORE DUP2 PUSH1 0x0 MSTORE PUSH1 0x40 PUSH1 0x0 KECCAK256 PUSH1 0x20 MSTORE DUP1 PUSH1 0x0 MSTORE PUSH1 0x40 PUSH1 0x0 KECCAK256 PUSH1 0x0 SWAP2 POP SWAP2 POP POP SLOAD DUP2 JUMP JUMPDEST PUSH2 0x79A PUSH8 0xE8AEAEA867AB9F8B PUSH1 0xC0 SHL PUSH2 0xA65 JUMP JUMPDEST PUSH2 0x7AE PUSH8 0x3A2E681FE1BF79FE PUSH1 0xC0 SHL PUSH2 0xA65 JUMP JUMPDEST PUSH2 0x7C2 PUSH8 0xC67FC2143A151BD PUSH1 0xC0 SHL PUSH2 0xA65 JUMP JUMPDEST PUSH2 0x7D6 PUSH8 0x795F815F6A66D671 PUSH1 0xC0 SHL PUSH2 0xA65 JUMP JUMPDEST PUSH1 0x3 PUSH1 0x0 SWAP1 SLOAD SWAP1 PUSH2 0x100 EXP SWAP1 DIV PUSH1 0xFF AND ISZERO PUSH2 0x826 JUMPI PUSH1 0x40 MLOAD PUSH32 0x8C379A000000000000000000000000000000000000000000000000000000000 DUP2 MSTORE PUSH1 0x4 ADD PUSH2 0x81D SWAP1 PUSH2 0x1272 JUMP JUMPDEST PUSH1 0x40 MLOAD DUP1 SWAP2 SUB SWAP1 REVERT JUMPDEST PUSH2 0x83A PUSH8 0x121C0ACA9F14FE4E PUSH1 0xC0 SHL PUSH2 0xA65 JUMP JUMPDEST PUSH2 0x84E PUSH8 0x6A45152556DEDECE PUSH1 0xC0 SHL PUSH2 0xA65 JUMP JUMPDEST DUP1 PUSH1 0x0 DUP1 PUSH2 0x100 EXP DUP2 SLOAD DUP2 PUSH20 0xFFFFFFFFFFFFFFFFFFFFFFFFFFFFFFFFFFFFFFFF MUL NOT AND SWAP1 DUP4 PUSH20 0xFFFFFFFFFFFFFFFFFFFFFFFFFFFFFFFFFFFFFFFF AND MUL OR SWAP1 SSTORE POP PUSH2 0x8A2 PUSH8 0xF4911A353802B9BE PUSH1 0xC0 SHL PUSH2 0xA65 JUMP JUMPDEST PUSH1 0x1 PUSH1 0x3 PUSH1 0x0 PUSH2 0x100 EXP DUP2 SLOAD DUP2 PUSH1 0xFF MUL NOT AND SWAP1 DUP4 ISZERO ISZERO MUL OR SWAP1 SSTORE POP POP JUMP JUMPDEST PUSH2 0x8D4 PUSH8 0x7FD66E44F17D96F8 PUSH1 0xC0 SHL PUSH2 0xA65 JUMP JUMPDEST PUSH2 0x8E8 PUSH8 0xCE391B5482DA6A6F PUSH1 0xC0 SHL PUSH2 0xA65 JUMP JUMPDEST PUSH2 0x8FC PUSH8 0x59C90CCB0ED8275 PUSH1 0xC0 SHL PUSH2 0xA65 JUMP JUMPDEST PUSH2 0x910 PUSH8 0x5AF3074D411A4147 PUSH1 0xC0 SHL PUSH2 0xA65 JUMP JUMPDEST PUSH1 0x0 DUP2 GT PUSH2 0x953 JUMPI PUSH1 0x40 MLOAD PUSH32 0x8C379A000000000000000000000000000000000000000000000000000000000 DUP2 MSTORE PUSH1 0x4 ADD PUSH2 0x94A SWAP1 PUSH2 0x10CD JUMP JUMPDEST PUSH1 0x40 MLOAD DUP1 SWAP2 SUB SWAP1 REVERT JUMPDEST PUSH2 0x967 PUSH8 0x4C74E06CBAF433A3 PUSH1 0xC0 SHL PUSH2 0xA65 JUMP JUMPDEST PUSH2 0x97B PUSH8 0xED621946D039C9B2 PUSH1 0xC0 SHL PUSH2 0xA65 JUMP JUMPDEST DUP1 PUSH1 0x1 PUSH1 0x0 CALLER PUSH20 0xFFFFFFFFFFFFFFFFFFFFFFFFFFFFFFFFFFFFFFFF AND PUSH20 0xFFFFFFFFFFFFFFFFFFFFFFFFFFFFFFFFFFFFFFFF AND DUP2 MSTORE PUSH1 0x20 ADD SWAP1 DUP2 MSTORE PUSH1 0x20 ADD PUSH1 0x0 KECCAK256 PUSH1 0x0 DUP5 PUSH20 0xFFFFFFFFFFFFFFFFFFFFFFFFFFFFFFFFFFFFFFFF AND PUSH20 0xFFFFFFFFFFFFFFFFFFFFFFFFFFFFFFFFFFFFFFFF AND DUP2 MSTORE PUSH1 0x20 ADD SWAP1 DUP2 MSTORE PUSH1 0x20 ADD PUSH1 0x0 KECCAK256 PUSH1 0x0 DUP3 DUP3 SLOAD PUSH2 0xA07 SWAP2 SWAP1 PUSH2 0x111C JUMP JUMPDEST SWAP3 POP POP DUP2 SWAP1 SSTORE POP PUSH2 0xA22 PUSH8 0xBF79D2CB24D56F83 PUSH1 0xC0 SHL PUSH2 0xA65 JUMP JUMPDEST PUSH2 0xA36 PUSH8 0x60D70B63D22791A4 PUSH1 0xC0 SHL PUSH2 0xA65 JUMP JUMPDEST PUSH2 0xA61 CALLER DUP3 DUP5 PUSH20 0xFFFFFFFFFFFFFFFFFFFFFFFFFFFFFFFFFFFFFFFF AND PUSH2 0xA6B SWAP1 SWAP3 SWAP2 SWAP1 PUSH4 0xFFFFFFFF AND JUMP JUMPDEST POP POP JUMP JUMPDEST POP JUMP JUMPDEST POP JUMP JUMPDEST PUSH2 0xAEC DUP4 PUSH4 0xA9059CBB PUSH1 0xE0 SHL DUP5 DUP5 PUSH1 0x40 MLOAD PUSH1 0x24 ADD PUSH2 0xA8A SWAP3 SWAP2 SWAP1 PUSH2 0x1292 JUMP JUMPDEST PUSH1 0x40 MLOAD PUSH1 0x20 DUP2 DUP4 SUB SUB DUP2 MSTORE SWAP1 PUSH1 0x40 MSTORE SWAP1 PUSH28 0xFFFFFFFFFFFFFFFFFFFFFFFFFFFFFFFFFFFFFFFFFFFFFFFFFFFFFFFF NOT AND PUSH1 0x20 DUP3 ADD DUP1 MLOAD PUSH28 0xFFFFFFFFFFFFFFFFFFFFFFFFFFFFFFFFFFFFFFFFFFFFFFFFFFFFFFFF DUP4 DUP2 DUP4 AND OR DUP4 MSTORE POP POP POP POP PUSH2 0xB7A JUMP JUMPDEST POP POP POP JUMP JUMPDEST PUSH2 0xB74 DUP5 PUSH4 0x23B872DD PUSH1 0xE0 SHL DUP6 DUP6 DUP6 PUSH1 0x40 MLOAD PUSH1 0x24 ADD PUSH2 0xB12 SWAP4 SWAP3 SWAP2 SWAP1 PUSH2 0x12BB JUMP JUMPDEST PUSH1 0x40 MLOAD PUSH1 0x20 DUP2 DUP4 SUB SUB DUP2 MSTORE SWAP1 PUSH1 0x40 MSTORE SWAP1 PUSH28 0xFFFFFFFFFFFFFFFFFFFFFFFFFFFFFFFFFFFFFFFFFFFFFFFFFFFFFFFF NOT AND PUSH1 0x20 DUP3 ADD DUP1 MLOAD PUSH28 0xFFFFFFFFFFFFFFFFFFFFFFFFFFFFFFFFFFFFFFFFFFFFFFFFFFFFFFFF DUP4 DUP2 DUP4 AND OR DUP4 MSTORE POP POP POP POP PUSH2 0xB7A JUMP JUMPDEST POP POP POP POP JUMP JUMPDEST PUSH1 0x0 PUSH2 0xBDC DUP3 PUSH1 0x40 MLOAD DUP1 PUSH1 0x40 ADD PUSH1 0x40 MSTORE DUP1 PUSH1 0x20 DUP2 MSTORE PUSH1 0x20 ADD PUSH32 0x5361666545524332303A206C6F772D6C6576656C2063616C6C206661696C6564 DUP2 MSTORE POP DUP6 PUSH20 0xFFFFFFFFFFFFFFFFFFFFFFFFFFFFFFFFFFFFFFFF AND PUSH2 0xC41 SWAP1 SWAP3 SWAP2 SWAP1 PUSH4 0xFFFFFFFF AND JUMP JUMPDEST SWAP1 POP PUSH1 0x0 DUP2 MLOAD GT ISZERO PUSH2 0xC3C JUMPI DUP1 DUP1 PUSH1 0x20 ADD SWAP1 MLOAD DUP2 ADD SWAP1 PUSH2 0xBFC SWAP2 SWAP1 PUSH2 0x131E JUMP JUMPDEST PUSH2 0xC3B JUMPI PUSH1 0x40 MLOAD PUSH32 0x8C379A000000000000000000000000000000000000000000000000000000000 DUP2 MSTORE PUSH1 0x4 ADD PUSH2 0xC32 SWAP1 PUSH2 0x13BD JUMP JUMPDEST PUSH1 0x40 MLOAD DUP1 SWAP2 SUB SWAP1 REVERT JUMPDEST JUMPDEST POP POP POP JUMP JUMPDEST PUSH1 0x60 PUSH2 0xC50 DUP5 DUP5 PUSH1 0x0 DUP6 PUSH2 0xC59 JUMP JUMPDEST SWAP1 POP SWAP4 SWAP3 POP POP POP JUMP JUMPDEST PUSH1 0x60 DUP3 SELFBALANCE LT ISZERO PUSH2 0xC9E JUMPI PUSH1 0x40 MLOAD PUSH32 0x8C379A000000000000000000000000000000000000000000000000000000000 DUP2 MSTORE PUSH1 0x4 ADD PUSH2 0xC95 SWAP1 PUSH2 0x144F JUMP JUMPDEST PUSH1 0x40 MLOAD DUP1 SWAP2 SUB SWAP1 REVERT JUMPDEST PUSH1 0x0 DUP1 DUP7 PUSH20 0xFFFFFFFFFFFFFFFFFFFFFFFFFFFFFFFFFFFFFFFF AND DUP6 DUP8 PUSH1 0x40 MLOAD PUSH2 0xCC7 SWAP2 SWAP1 PUSH2 0x14E0 JUMP JUMPDEST PUSH1 0x0 PUSH1 0x40 MLOAD DUP1 DUP4 SUB DUP2 DUP6 DUP8 GAS CALL SWAP3 POP POP POP RETURNDATASIZE DUP1 PUSH1 0x0 DUP2 EQ PUSH2 0xD04 JUMPI PUSH1 0x40 MLOAD SWAP2 POP PUSH1 0x1F NOT PUSH1 0x3F RETURNDATASIZE ADD AND DUP3 ADD PUSH1 0x40 MSTORE RETURNDATASIZE DUP3 MSTORE RETURNDATASIZE PUSH1 0x0 PUSH1 0x20 DUP5 ADD RETURNDATACOPY PUSH2 0xD09 JUMP JUMPDEST PUSH1 0x60 SWAP2 POP JUMPDEST POP SWAP2 POP SWAP2 POP PUSH2 0xD1A DUP8 DUP4 DUP4 DUP8 PUSH2 0xD26 JUMP JUMPDEST SWAP3 POP POP POP SWAP5 SWAP4 POP POP POP POP JUMP JUMPDEST PUSH1 0x60 DUP4 ISZERO PUSH2 0xD88 JUMPI PUSH1 0x0 DUP4 MLOAD SUB PUSH2 0xD80 JUMPI PUSH2 0xD40 DUP6 PUSH2 0xD9B JUMP JUMPDEST PUSH2 0xD7F JUMPI PUSH1 0x40 MLOAD PUSH32 0x8C379A000000000000000000000000000000000000000000000000000000000 DUP2 MSTORE PUSH1 0x4 ADD PUSH2 0xD76 SWAP1 PUSH2 0x1543 JUMP JUMPDEST PUSH1 0x40 MLOAD DUP1 SWAP2 SUB SWAP1 REVERT JUMPDEST JUMPDEST DUP3 SWAP1 POP PUSH2 0xD93 JUMP JUMPDEST PUSH2 0xD92 DUP4 DUP4 PUSH2 0xDBE JUMP JUMPDEST JUMPDEST SWAP5 SWAP4 POP POP POP POP JUMP JUMPDEST PUSH1 0x0 DUP1 DUP3 PUSH20 0xFFFFFFFFFFFFFFFFFFFFFFFFFFFFFFFFFFFFFFFF AND EXTCODESIZE GT SWAP1 POP SWAP2 SWAP1 POP JUMP JUMPDEST PUSH1 0x0 DUP3 MLOAD GT ISZERO PUSH2 0xDD1 JUMPI DUP2 MLOAD DUP1 DUP4 PUSH1 0x20 ADD REVERT JUMPDEST DUP1 PUSH1 0x40 MLOAD PUSH32 0x8C379A000000000000000000000000000000000000000000000000000000000 DUP2 MSTORE PUSH1 0x4 ADD PUSH2 0xE05 SWAP2 SWAP1 PUSH2 0x15B8 JUMP JUMPDEST PUSH1 0x40 MLOAD DUP1 SWAP2 SUB SWAP1 REVERT JUMPDEST PUSH1 0x0 DUP2 ISZERO ISZERO SWAP1 POP SWAP2 SWAP1 POP JUMP JUMPDEST PUSH2 0xE23 DUP2 PUSH2 0xE0E JUMP JUMPDEST DUP3 MSTORE POP POP JUMP JUMPDEST PUSH1 0x0 PUSH1 0x20 DUP3 ADD SWAP1 POP PUSH2 0xE3E PUSH1 0x0 DUP4 ADD DUP5 PUSH2 0xE1A JUMP JUMPDEST SWAP3 SWAP2 POP POP JUMP JUMPDEST PUSH1 0x0 DUP1 REVERT JUMPDEST PUSH1 0x0 PUSH20 0xFFFFFFFFFFFFFFFFFFFFFFFFFFFFFFFFFFFFFFFF DUP3 AND SWAP1 POP SWAP2 SWAP1 POP JUMP JUMPDEST PUSH1 0x0 PUSH2 0xE74 DUP3 PUSH2 0xE49 JUMP JUMPDEST SWAP1 POP SWAP2 SWAP1 POP JUMP JUMPDEST PUSH2 0xE84 DUP2 PUSH2 0xE69 JUMP JUMPDEST DUP2 EQ PUSH2 0xE8F JUMPI PUSH1 0x0 DUP1 REVERT JUMPDEST POP JUMP JUMPDEST PUSH1 0x0 DUP2 CALLDATALOAD SWAP1 POP PUSH2 0xEA1 DUP2 PUSH2 0xE7B JUMP JUMPDEST SWAP3 SWAP2 POP POP JUMP JUMPDEST PUSH1 0x0 PUSH1 0x20 DUP3 DUP5 SUB SLT ISZERO PUSH2 0xEBD JUMPI PUSH2 0xEBC PUSH2 0xE44 JUMP JUMPDEST JUMPDEST PUSH1 0x0 PUSH2 0xECB DUP5 DUP3 DUP6 ADD PUSH2 0xE92 JUMP JUMPDEST SWAP2 POP POP SWAP3 SWAP2 POP POP JUMP JUMPDEST PUSH1 0x0 DUP2 SWAP1 POP SWAP2 SWAP1 POP JUMP JUMPDEST PUSH2 0xEE7 DUP2 PUSH2 0xED4 JUMP JUMPDEST DUP3 MSTORE POP POP JUMP JUMPDEST PUSH1 0x0 PUSH1 0x20 DUP3 ADD SWAP1 POP PUSH2 0xF02 PUSH1 0x0 DUP4 ADD DUP5 PUSH2 0xEDE JUMP JUMPDEST SWAP3 SWAP2 POP POP JUMP JUMPDEST PUSH2 0xF11 DUP2 PUSH2 0xED4 JUMP JUMPDEST DUP2 EQ PUSH2 0xF1C JUMPI PUSH1 0x0 DUP1 REVERT JUMPDEST POP JUMP JUMPDEST PUSH1 0x0 DUP2 CALLDATALOAD SWAP1 POP PUSH2 0xF2E DUP2 PUSH2 0xF08 JUMP JUMPDEST SWAP3 SWAP2 POP POP JUMP JUMPDEST PUSH1 0x0 DUP1 PUSH1 0x40 DUP4 DUP6 SUB SLT ISZERO PUSH2 0xF4B JUMPI PUSH2 0xF4A PUSH2 0xE44 JUMP JUMPDEST JUMPDEST PUSH1 0x0 PUSH2 0xF59 DUP6 DUP3 DUP7 ADD PUSH2 0xE92 JUMP JUMPDEST SWAP3 POP POP PUSH1 0x20 PUSH2 0xF6A DUP6 DUP3 DUP7 ADD PUSH2 0xF1F JUMP JUMPDEST SWAP2 POP POP SWAP3 POP SWAP3 SWAP1 POP JUMP JUMPDEST PUSH2 0xF7D DUP2 PUSH2 0xE69 JUMP JUMPDEST DUP3 MSTORE POP POP JUMP JUMPDEST PUSH1 0x0 PUSH1 0x20 DUP3 ADD SWAP1 POP PUSH2 0xF98 PUSH1 0x0 DUP4 ADD DUP5 PUSH2 0xF74 JUMP JUMPDEST SWAP3 SWAP2 POP POP JUMP JUMPDEST PUSH1 0x0 DUP1 PUSH1 0x40 DUP4 DUP6 SUB SLT ISZERO PUSH2 0xFB5 JUMPI PUSH2 0xFB4 PUSH2 0xE44 JUMP JUMPDEST JUMPDEST PUSH1 0x0 PUSH2 0xFC3 DUP6 DUP3 DUP7 ADD PUSH2 0xE92 JUMP JUMPDEST SWAP3 POP POP PUSH1 0x20 PUSH2 0xFD4 DUP6 DUP3 DUP7 ADD PUSH2 0xE92 JUMP JUMPDEST SWAP2 POP POP SWAP3 POP SWAP3 SWAP1 POP JUMP JUMPDEST PUSH1 0x0 DUP3 DUP3 MSTORE PUSH1 0x20 DUP3 ADD SWAP1 POP SWAP3 SWAP2 POP POP JUMP JUMPDEST PUSH32 0x4F6E6C79204F776E65722063616E2075736520746869732066756E6374696F6E PUSH1 0x0 DUP3 ADD MSTORE PUSH32 0x2E00000000000000000000000000000000000000000000000000000000000000 PUSH1 0x20 DUP3 ADD MSTORE POP JUMP JUMPDEST PUSH1 0x0 PUSH2 0x104B PUSH1 0x21 DUP4 PUSH2 0xFDE JUMP JUMPDEST SWAP2 POP PUSH2 0x1056 DUP3 PUSH2 0xFEF JUMP JUMPDEST PUSH1 0x40 DUP3 ADD SWAP1 POP SWAP2 SWAP1 POP JUMP JUMPDEST PUSH1 0x0 PUSH1 0x20 DUP3 ADD SWAP1 POP DUP2 DUP2 SUB PUSH1 0x0 DUP4 ADD MSTORE PUSH2 0x107A DUP2 PUSH2 0x103E JUMP JUMPDEST SWAP1 POP SWAP2 SWAP1 POP JUMP JUMPDEST PUSH32 0x416D6F756E742073686F756C64206265206C6172676572207468616E20302E00 PUSH1 0x0 DUP3 ADD MSTORE POP JUMP JUMPDEST PUSH1 0x0 PUSH2 0x10B7 PUSH1 0x1F DUP4 PUSH2 0xFDE JUMP JUMPDEST SWAP2 POP PUSH2 0x10C2 DUP3 PUSH2 0x1081 JUMP JUMPDEST PUSH1 0x20 DUP3 ADD SWAP1 POP SWAP2 SWAP1 POP JUMP JUMPDEST PUSH1 0x0 PUSH1 0x20 DUP3 ADD SWAP1 POP DUP2 DUP2 SUB PUSH1 0x0 DUP4 ADD MSTORE PUSH2 0x10E6 DUP2 PUSH2 0x10AA JUMP JUMPDEST SWAP1 POP SWAP2 SWAP1 POP JUMP JUMPDEST PUSH32 0x4E487B7100000000000000000000000000000000000000000000000000000000 PUSH1 0x0 MSTORE PUSH1 0x11 PUSH1 0x4 MSTORE PUSH1 0x24 PUSH1 0x0 REVERT JUMPDEST PUSH1 0x0 PUSH2 0x1127 DUP3 PUSH2 0xED4 JUMP JUMPDEST SWAP2 POP PUSH2 0x1132 DUP4 PUSH2 0xED4 JUMP JUMPDEST SWAP3 POP DUP3 DUP3 SUB SWAP1 POP DUP2 DUP2 GT ISZERO PUSH2 0x114A JUMPI PUSH2 0x1149 PUSH2 0x10ED JUMP JUMPDEST JUMPDEST SWAP3 SWAP2 POP POP JUMP JUMPDEST PUSH1 0x0 PUSH2 0x115B DUP3 PUSH2 0xED4 JUMP JUMPDEST SWAP2 POP PUSH2 0x1166 DUP4 PUSH2 0xED4 JUMP JUMPDEST SWAP3 POP DUP3 DUP3 MUL PUSH2 0x1174 DUP2 PUSH2 0xED4 JUMP JUMPDEST SWAP2 POP DUP3 DUP3 DIV DUP5 EQ DUP4 ISZERO OR PUSH2 0x118B JUMPI PUSH2 0x118A PUSH2 0x10ED JUMP JUMPDEST JUMPDEST POP SWAP3 SWAP2 POP POP JUMP JUMPDEST PUSH32 0x4E487B7100000000000000000000000000000000000000000000000000000000 PUSH1 0x0 MSTORE PUSH1 0x12 PUSH1 0x4 MSTORE PUSH1 0x24 PUSH1 0x0 REVERT JUMPDEST PUSH1 0x0 PUSH2 0x11CC DUP3 PUSH2 0xED4 JUMP JUMPDEST SWAP2 POP PUSH2 0x11D7 DUP4 PUSH2 0xED4 JUMP JUMPDEST SWAP3 POP DUP3 PUSH2 0x11E7 JUMPI PUSH2 0x11E6 PUSH2 0x1192 JUMP JUMPDEST JUMPDEST DUP3 DUP3 DIV SWAP1 POP SWAP3 SWAP2 POP POP JUMP JUMPDEST PUSH1 0x0 PUSH2 0x11FD DUP3 PUSH2 0xED4 JUMP JUMPDEST SWAP2 POP PUSH2 0x1208 DUP4 PUSH2 0xED4 JUMP JUMPDEST SWAP3 POP DUP3 DUP3 ADD SWAP1 POP DUP1 DUP3 GT ISZERO PUSH2 0x1220 JUMPI PUSH2 0x121F PUSH2 0x10ED JUMP JUMPDEST JUMPDEST SWAP3 SWAP2 POP POP JUMP JUMPDEST PUSH32 0x616C726561647920696E697469616C697A656400000000000000000000000000 PUSH1 0x0 DUP3 ADD MSTORE POP JUMP JUMPDEST PUSH1 0x0 PUSH2 0x125C PUSH1 0x13 DUP4 PUSH2 0xFDE JUMP JUMPDEST SWAP2 POP PUSH2 0x1267 DUP3 PUSH2 0x1226 JUMP JUMPDEST PUSH1 0x20 DUP3 ADD SWAP1 POP SWAP2 SWAP1 POP JUMP JUMPDEST PUSH1 0x0 PUSH1 0x20 DUP3 ADD SWAP1 POP DUP2 DUP2 SUB PUSH1 0x0 DUP4 ADD MSTORE PUSH2 0x128B DUP2 PUSH2 0x124F JUMP JUMPDEST SWAP1 POP SWAP2 SWAP1 POP JUMP JUMPDEST PUSH1 0x0 PUSH1 0x40 DUP3 ADD SWAP1 POP PUSH2 0x12A7 PUSH1 0x0 DUP4 ADD DUP6 PUSH2 0xF74 JUMP JUMPDEST PUSH2 0x12B4 PUSH1 0x20 DUP4 ADD DUP5 PUSH2 0xEDE JUMP JUMPDEST SWAP4 SWAP3 POP POP POP JUMP JUMPDEST PUSH1 0x0 PUSH1 0x60 DUP3 ADD SWAP1 POP PUSH2 0x12D0 PUSH1 0x0 DUP4 ADD DUP7 PUSH2 0xF74 JUMP JUMPDEST PUSH2 0x12DD PUSH1 0x20 DUP4 ADD DUP6 PUSH2 0xF74 JUMP JUMPDEST PUSH2 0x12EA PUSH1 0x40 DUP4 ADD DUP5 PUSH2 0xEDE JUMP JUMPDEST SWAP5 SWAP4 POP POP POP POP JUMP JUMPDEST PUSH2 0x12FB DUP2 PUSH2 0xE0E JUMP JUMPDEST DUP2 EQ PUSH2 0x1306 JUMPI PUSH1 0x0 DUP1 REVERT JUMPDEST POP JUMP JUMPDEST PUSH1 0x0 DUP2 MLOAD SWAP1 POP PUSH2 0x1318 DUP2 PUSH2 0x12F2 JUMP JUMPDEST SWAP3 SWAP2 POP POP JUMP JUMPDEST PUSH1 0x0 PUSH1 0x20 DUP3 DUP5 SUB SLT ISZERO PUSH2 0x1334 JUMPI PUSH2 0x1333 PUSH2 0xE44 JUMP JUMPDEST JUMPDEST PUSH1 0x0 PUSH2 0x1342 DUP5 DUP3 DUP6 ADD PUSH2 0x1309 JUMP JUMPDEST SWAP2 POP POP SWAP3 SWAP2 POP POP JUMP JUMPDEST PUSH32 0x5361666545524332303A204552433230206F7065726174696F6E20646964206E PUSH1 0x0 DUP3 ADD MSTORE PUSH32 0x6F74207375636365656400000000000000000000000000000000000000000000 PUSH1 0x20 DUP3 ADD MSTORE POP JUMP JUMPDEST PUSH1 0x0 PUSH2 0x13A7 PUSH1 0x2A DUP4 PUSH2 0xFDE JUMP JUMPDEST SWAP2 POP PUSH2 0x13B2 DUP3 PUSH2 0x134B JUMP JUMPDEST PUSH1 0x40 DUP3 ADD SWAP1 POP SWAP2 SWAP1 POP JUMP JUMPDEST PUSH1 0x0 PUSH1 0x20 DUP3 ADD SWAP1 POP DUP2 DUP2 SUB PUSH1 0x0 DUP4 ADD MSTORE PUSH2 0x13D6 DUP2 PUSH2 0x139A JUMP JUMPDEST SWAP1 POP SWAP2 SWAP1 POP JUMP JUMPDEST PUSH32 0x416464726573733A20696E73756666696369656E742062616C616E636520666F PUSH1 0x0 DUP3 ADD MSTORE PUSH32 0x722063616C6C0000000000000000000000000000000000000000000000000000 PUSH1 0x20 DUP3 ADD MSTORE POP JUMP JUMPDEST PUSH1 0x0 PUSH2 0x1439 PUSH1 0x26 DUP4 PUSH2 0xFDE JUMP JUMPDEST SWAP2 POP PUSH2 0x1444 DUP3 PUSH2 0x13DD JUMP JUMPDEST PUSH1 0x40 DUP3 ADD SWAP1 POP SWAP2 SWAP1 POP JUMP JUMPDEST PUSH1 0x0 PUSH1 0x20 DUP3 ADD SWAP1 POP DUP2 DUP2 SUB PUSH1 0x0 DUP4 ADD MSTORE PUSH2 0x1468 DUP2 PUSH2 0x142C JUMP JUMPDEST SWAP1 POP SWAP2 SWAP1 POP JUMP JUMPDEST PUSH1 0x0 DUP2 MLOAD SWAP1 POP SWAP2 SWAP1 POP JUMP JUMPDEST PUSH1 0x0 DUP2 SWAP1 POP SWAP3 SWAP2 POP POP JUMP JUMPDEST PUSH1 0x0 JUMPDEST DUP4 DUP2 LT ISZERO PUSH2 0x14A3 JUMPI DUP1 DUP3 ADD MLOAD DUP2 DUP5 ADD MSTORE PUSH1 0x20 DUP2 ADD SWAP1 POP PUSH2 0x1488 JUMP JUMPDEST PUSH1 0x0 DUP5 DUP5 ADD MSTORE POP POP POP POP JUMP JUMPDEST PUSH1 0x0 PUSH2 0x14BA DUP3 PUSH2 0x146F JUMP JUMPDEST PUSH2 0x14C4 DUP2 DUP6 PUSH2 0x147A JUMP JUMPDEST SWAP4 POP PUSH2 0x14D4 DUP2 DUP6 PUSH1 0x20 DUP7 ADD PUSH2 0x1485 JUMP JUMPDEST DUP1 DUP5 ADD SWAP2 POP POP SWAP3 SWAP2 POP POP JUMP JUMPDEST PUSH1 0x0 PUSH2 0x14EC DUP3 DUP5 PUSH2 0x14AF JUMP JUMPDEST SWAP2 POP DUP2 SWAP1 POP SWAP3 SWAP2 POP POP JUMP JUMPDEST PUSH32 0x416464726573733A2063616C6C20746F206E6F6E2D636F6E7472616374000000 PUSH1 0x0 DUP3 ADD MSTORE POP JUMP JUMPDEST PUSH1 0x0 PUSH2 0x152D PUSH1 0x1D DUP4 PUSH2 0xFDE JUMP JUMPDEST SWAP2 POP PUSH2 0x1538 DUP3 PUSH2 0x14F7 JUMP JUMPDEST PUSH1 0x20 DUP3 ADD SWAP1 POP SWAP2 SWAP1 POP JUMP JUMPDEST PUSH1 0x0 PUSH1 0x20 DUP3 ADD SWAP1 POP DUP2 DUP2 SUB PUSH1 0x0 DUP4 ADD MSTORE PUSH2 0x155C DUP2 PUSH2 0x1520 JUMP JUMPDEST SWAP1 POP SWAP2 SWAP1 POP JUMP JUMPDEST PUSH1 0x0 DUP2 MLOAD SWAP1 POP SWAP2 SWAP1 POP JUMP JUMPDEST PUSH1 0x0 PUSH1 0x1F NOT PUSH1 0x1F DUP4 ADD AND SWAP1 POP SWAP2 SWAP1 POP JUMP JUMPDEST PUSH1 0x0 PUSH2 0x158A DUP3 PUSH2 0x1563 JUMP JUMPDEST PUSH2 0x1594 DUP2 DUP6 PUSH2 0xFDE JUMP JUMPDEST SWAP4 POP PUSH2 0x15A4 DUP2 DUP6 PUSH1 0x20 DUP7 ADD PUSH2 0x1485 JUMP JUMPDEST PUSH2 0x15AD DUP2 PUSH2 0x156E JUMP JUMPDEST DUP5 ADD SWAP2 POP POP SWAP3 SWAP2 POP POP JUMP JUMPDEST PUSH1 0x0 PUSH1 0x20 DUP3 ADD SWAP1 POP DUP2 DUP2 SUB PUSH1 0x0 DUP4 ADD MSTORE PUSH2 0x15D2 DUP2 DUP5 PUSH2 0x157F JUMP JUMPDEST SWAP1 POP SWAP3 SWAP2 POP POP JUMP INVALID LOG2 PUSH5 0x6970667358 0x22 SLT KECCAK256 CALLDATALOAD PUSH11 0x81B3BAE8E168EA1BD8C3D6 ISZERO SWAP16 PUSH10 0x2AC8002069FF66E84E32 CODESIZE MOD 0xD6 0xC PUSH2 0xAC64 PUSH20 0x6F6C634300081200330000000000000000000000 "},"methodIdentifiers":{"balances(address,address)":"c23f001f","deposit(address,uint256)":"47e7ef24","initialize(address)":"c4d66de8","initialized()":"158ef93e","owner()":"8da5cb5b","takefee(address)":"1e89dfb6","totalfee(address)":"465ded82","withdraw(address,uint256)":"f3fef3a3"}}}}}