{"contracts/safe.sol":{"StoreFund":{"abi":[{"inputs":[{"internalType":"address","name":"whodeploy","type":"address"}],"stateMutability":"nonpayable","type":"constructor"},{"inputs":[{"internalType":"address","name":"","type":"address"},{"internalType":"address","name":"","type":"address"}],"name":"balances","outputs":[{"internalType":"uint256","name":"","type":"uint256"}],"stateMutability":"view","type":"function"},{"inputs":[{"internalType":"address","name":"tokenAddress","type":"address"},{"internalType":"uint256","name":"amount","type":"uint256"}],"name":"deposit","outputs":[],"stateMutability":"nonpayable","type":"function"},{"inputs":[],"name":"owner","outputs":[{"internalType":"address","name":"","type":"address"}],"stateMutability":"view","type":"function"},{"inputs":[{"internalType":"address","name":"tokenAddress","type":"address"}],"name":"takefee","outputs":[],"stateMutability":"nonpayable","type":"function"},{"inputs":[{"internalType":"address","name":"","type":"address"}],"name":"totalfee","outputs":[{"internalType":"uint256","name":"","type":"uint256"}],"stateMutability":"view","type":"function"},{"inputs":[{"internalType":"address","name":"tokenAddress","type":"address"},{"internalType":"uint256","name":"amount","type":"uint256"}],"name":"withdraw","outputs":[],"stateMutability":"nonpayable","type":"function"}],"evm":{"bytecode":{"linkReferences":{},"object":"60806040523480156200001157600080fd5b506040516200153238038062001532833981810160405281019062000037919062000123565b62000053676fc376605781402860c01b620000b660201b60201c565b6200006f6751405ecf13d3953260c01b620000b660201b60201c565b806000806101000a81548173ffffffffffffffffffffffffffffffffffffffff021916908373ffffffffffffffffffffffffffffffffffffffff1602179055505062000155565b50565b600080fd5b600073ffffffffffffffffffffffffffffffffffffffff82169050919050565b6000620000eb82620000be565b9050919050565b620000fd81620000de565b81146200010957600080fd5b50565b6000815190506200011d81620000f2565b92915050565b6000602082840312156200013c576200013b620000b9565b5b60006200014c848285016200010c565b91505092915050565b6113cd80620001656000396000f3fe608060405234801561001057600080fd5b50600436106100625760003560e01c80631e89dfb614610067578063465ded821461008357806347e7ef24146100b35780638da5cb5b146100cf578063c23f001f146100ed578063f3fef3a31461011d575b600080fd5b610081600480360381019061007c9190610cc4565b610139565b005b61009d60048036038101906100989190610cc4565b610389565b6040516100aa9190610d0a565b60405180910390f35b6100cd60048036038101906100c89190610d51565b6103a1565b005b6100d76106ca565b6040516100e49190610da0565b60405180910390f35b61010760048036038101906101029190610dbb565b6106ee565b6040516101149190610d0a565b60405180910390f35b61013760048036038101906101329190610d51565b610713565b005b61014d67c160147c5fe3880760c01b6108b8565b6101616726c7004522a429fb60c01b6108bb565b61017567df23a199d37c695b60c01b6108bb565b61018967bddaaf3812e5a25060c01b6108bb565b61019d674bdaf2107fa8fd6f60c01b6108bb565b60008054906101000a900473ffffffffffffffffffffffffffffffffffffffff1673ffffffffffffffffffffffffffffffffffffffff163373ffffffffffffffffffffffffffffffffffffffff161461022b576040517f08c379a000000000000000000000000000000000000000000000000000000000815260040161022290610e7e565b60405180910390fd5b61023f67acf7d2992e2e72ff60c01b6108bb565b61025367643c8e338ba14e0660c01b6108bb565b6102676715e44f716eb440d760c01b6108b8565b61027b67a45004c54bf3754f60c01b6108b8565b61028f6707602f9eaa77291760c01b6108b8565b6102a36713ce91dfaedeff6760c01b6108b8565b61032d60008054906101000a900473ffffffffffffffffffffffffffffffffffffffff16600260008473ffffffffffffffffffffffffffffffffffffffff1673ffffffffffffffffffffffffffffffffffffffff168152602001908152602001600020548373ffffffffffffffffffffffffffffffffffffffff166108be9092919063ffffffff16565b61034167279a44395b8d3c4360c01b6108b8565b6000600260008373ffffffffffffffffffffffffffffffffffffffff1673ffffffffffffffffffffffffffffffffffffffff1681526020019081526020016000208190555050565b60026020528060005260406000206000915090505481565b6103b5673957059f26f3feaa60c01b6108b8565b6103c96765fcac3f022f8e7d60c01b6108b8565b6103dd67b28cd1f14b1f549960c01b6108b8565b6103f167bfd3d8718f75efa560c01b6108b8565b60008111610434576040517f08c379a000000000000000000000000000000000000000000000000000000000815260040161042b90610eea565b60405180910390fd5b610448676e57b499be5879f560c01b6108b8565b61045c678c93488e93f7976460c01b6108b8565b61047067292a3aae12c9775460c01b6108b8565b6000610486676d47e79eefa720f460c01b6108b8565b61049a67f7777fcdcbbc37f160c01b6108b8565b6104c73330848673ffffffffffffffffffffffffffffffffffffffff16610944909392919063ffffffff16565b6104db67fa675e5278d5a30060c01b6108b8565b6104ef67e5ae6292417ebbe760c01b6108b8565b6103e882101561054d5761050d67b46ade4dd0f4be8260c01b6108b8565b61052167418cf1b3a2518d3f60c01b6108b8565b60019050610539675fb9e1c149346da660c01b6108b8565b6001826105469190610f39565b91506105b4565b6105616736f648fba366969460c01b6108b8565b61057567a666ea1911503dc860c01b6108b8565b612710600a836105859190610f6d565b61058f9190610fde565b90506105a5675069f69f6b6c338f60c01b6108b8565b80826105b19190610f39565b91505b6105c867e6e3ef71b83e928060c01b6108b8565b81600160003373ffffffffffffffffffffffffffffffffffffffff1673ffffffffffffffffffffffffffffffffffffffff16815260200190815260200160002060008573ffffffffffffffffffffffffffffffffffffffff1673ffffffffffffffffffffffffffffffffffffffff1681526020019081526020016000206000828254610654919061100f565b9250508190555061066f67e79723449f85aff560c01b6108b8565b80600260008573ffffffffffffffffffffffffffffffffffffffff1673ffffffffffffffffffffffffffffffffffffffff16815260200190815260200160002060008282546106be919061100f565b92505081905550505050565b60008054906101000a900473ffffffffffffffffffffffffffffffffffffffff1681565b6001602052816000526040600020602052806000526040600020600091509150505481565b6107276733d3c2e8537172ee60c01b6108b8565b61073b673cfe208a28d771c060c01b6108b8565b61074f67e9fff55a3ca2418c60c01b6108b8565b61076367873dd71f49b1d3fd60c01b6108b8565b600081116107a6576040517f08c379a000000000000000000000000000000000000000000000000000000000815260040161079d90610eea565b60405180910390fd5b6107ba67800f8a20ff0094d960c01b6108b8565b6107ce677194b66831fc688160c01b6108b8565b80600160003373ffffffffffffffffffffffffffffffffffffffff1673ffffffffffffffffffffffffffffffffffffffff16815260200190815260200160002060008473ffffffffffffffffffffffffffffffffffffffff1673ffffffffffffffffffffffffffffffffffffffff168152602001908152602001600020600082825461085a9190610f39565b9250508190555061087567a2eccc84988205c860c01b6108b8565b610889670735f7f3b946137460c01b6108b8565b6108b433828473ffffffffffffffffffffffffffffffffffffffff166108be9092919063ffffffff16565b5050565b50565b50565b61093f8363a9059cbb60e01b84846040516024016108dd929190611043565b604051602081830303815290604052907bffffffffffffffffffffffffffffffffffffffffffffffffffffffff19166020820180517bffffffffffffffffffffffffffffffffffffffffffffffffffffffff83818316178352505050506109cd565b505050565b6109c7846323b872dd60e01b8585856040516024016109659392919061106c565b604051602081830303815290604052907bffffffffffffffffffffffffffffffffffffffffffffffffffffffff19166020820180517bffffffffffffffffffffffffffffffffffffffffffffffffffffffff83818316178352505050506109cd565b50505050565b6000610a2f826040518060400160405280602081526020017f5361666545524332303a206c6f772d6c6576656c2063616c6c206661696c65648152508573ffffffffffffffffffffffffffffffffffffffff16610a949092919063ffffffff16565b9050600081511115610a8f5780806020019051810190610a4f91906110db565b610a8e576040517f08c379a0000000000000000000000000000000000000000000000000000000008152600401610a859061117a565b60405180910390fd5b5b505050565b6060610aa38484600085610aac565b90509392505050565b606082471015610af1576040517f08c379a0000000000000000000000000000000000000000000000000000000008152600401610ae89061120c565b60405180910390fd5b6000808673ffffffffffffffffffffffffffffffffffffffff168587604051610b1a919061129d565b60006040518083038185875af1925050503d8060008114610b57576040519150601f19603f3d011682016040523d82523d6000602084013e610b5c565b606091505b5091509150610b6d87838387610b79565b92505050949350505050565b60608315610bdb576000835103610bd357610b9385610bee565b610bd2576040517f08c379a0000000000000000000000000000000000000000000000000000000008152600401610bc990611300565b60405180910390fd5b5b829050610be6565b610be58383610c11565b5b949350505050565b6000808273ffffffffffffffffffffffffffffffffffffffff163b119050919050565b600082511115610c245781518083602001fd5b806040517f08c379a0000000000000000000000000000000000000000000000000000000008152600401610c589190611375565b60405180910390fd5b600080fd5b600073ffffffffffffffffffffffffffffffffffffffff82169050919050565b6000610c9182610c66565b9050919050565b610ca181610c86565b8114610cac57600080fd5b50565b600081359050610cbe81610c98565b92915050565b600060208284031215610cda57610cd9610c61565b5b6000610ce884828501610caf565b91505092915050565b6000819050919050565b610d0481610cf1565b82525050565b6000602082019050610d1f6000830184610cfb565b92915050565b610d2e81610cf1565b8114610d3957600080fd5b50565b600081359050610d4b81610d25565b92915050565b60008060408385031215610d6857610d67610c61565b5b6000610d7685828601610caf565b9250506020610d8785828601610d3c565b9150509250929050565b610d9a81610c86565b82525050565b6000602082019050610db56000830184610d91565b92915050565b60008060408385031215610dd257610dd1610c61565b5b6000610de085828601610caf565b9250506020610df185828601610caf565b9150509250929050565b600082825260208201905092915050565b7f4f6e6c79204f776e65722063616e2075736520746869732066756e6374696f6e60008201527f2e00000000000000000000000000000000000000000000000000000000000000602082015250565b6000610e68602183610dfb565b9150610e7382610e0c565b604082019050919050565b60006020820190508181036000830152610e9781610e5b565b9050919050565b7f416d6f756e742073686f756c64206265206c6172676572207468616e20302e00600082015250565b6000610ed4601f83610dfb565b9150610edf82610e9e565b602082019050919050565b60006020820190508181036000830152610f0381610ec7565b9050919050565b7f4e487b7100000000000000000000000000000000000000000000000000000000600052601160045260246000fd5b6000610f4482610cf1565b9150610f4f83610cf1565b9250828203905081811115610f6757610f66610f0a565b5b92915050565b6000610f7882610cf1565b9150610f8383610cf1565b9250828202610f9181610cf1565b91508282048414831517610fa857610fa7610f0a565b5b5092915050565b7f4e487b7100000000000000000000000000000000000000000000000000000000600052601260045260246000fd5b6000610fe982610cf1565b9150610ff483610cf1565b92508261100457611003610faf565b5b828204905092915050565b600061101a82610cf1565b915061102583610cf1565b925082820190508082111561103d5761103c610f0a565b5b92915050565b60006040820190506110586000830185610d91565b6110656020830184610cfb565b9392505050565b60006060820190506110816000830186610d91565b61108e6020830185610d91565b61109b6040830184610cfb565b949350505050565b60008115159050919050565b6110b8816110a3565b81146110c357600080fd5b50565b6000815190506110d5816110af565b92915050565b6000602082840312156110f1576110f0610c61565b5b60006110ff848285016110c6565b91505092915050565b7f5361666545524332303a204552433230206f7065726174696f6e20646964206e60008201527f6f74207375636365656400000000000000000000000000000000000000000000602082015250565b6000611164602a83610dfb565b915061116f82611108565b604082019050919050565b6000602082019050818103600083015261119381611157565b9050919050565b7f416464726573733a20696e73756666696369656e742062616c616e636520666f60008201527f722063616c6c0000000000000000000000000000000000000000000000000000602082015250565b60006111f6602683610dfb565b91506112018261119a565b604082019050919050565b60006020820190508181036000830152611225816111e9565b9050919050565b600081519050919050565b600081905092915050565b60005b83811015611260578082015181840152602081019050611245565b60008484015250505050565b60006112778261122c565b6112818185611237565b9350611291818560208601611242565b80840191505092915050565b60006112a9828461126c565b915081905092915050565b7f416464726573733a2063616c6c20746f206e6f6e2d636f6e7472616374000000600082015250565b60006112ea601d83610dfb565b91506112f5826112b4565b602082019050919050565b60006020820190508181036000830152611319816112dd565b9050919050565b600081519050919050565b6000601f19601f8301169050919050565b600061134782611320565b6113518185610dfb565b9350611361818560208601611242565b61136a8161132b565b840191505092915050565b6000602082019050818103600083015261138f818461133c565b90509291505056fea2646970667358221220f3bdbdc8ec45e90c12166124c7abc80519c4d8538b1f980f06abd39f17e4a5bb64736f6c63430008120033","opcodes":"PUSH1 0x80 PUSH1 0x40 MSTORE CALLVALUE DUP1 ISZERO PUSH3 0x11 JUMPI PUSH1 0x0 DUP1 REVERT JUMPDEST POP PUSH1 0x40 MLOAD PUSH3 0x1532 CODESIZE SUB DUP1 PUSH3 0x1532 DUP4 CODECOPY DUP2 DUP2 ADD PUSH1 0x40 MSTORE DUP2 ADD SWAP1 PUSH3 0x37 SWAP2 SWAP1 PUSH3 0x123 JUMP JUMPDEST PUSH3 0x53 PUSH8 0x6FC3766057814028 PUSH1 0xC0 SHL PUSH3 0xB6 PUSH1 0x20 SHL PUSH1 0x20 SHR JUMP JUMPDEST PUSH3 0x6F PUSH8 0x51405ECF13D39532 PUSH1 0xC0 SHL PUSH3 0xB6 PUSH1 0x20 SHL PUSH1 0x20 SHR JUMP JUMPDEST DUP1 PUSH1 0x0 DUP1 PUSH2 0x100 EXP DUP2 SLOAD DUP2 PUSH20 0xFFFFFFFFFFFFFFFFFFFFFFFFFFFFFFFFFFFFFFFF MUL NOT AND SWAP1 DUP4 PUSH20 0xFFFFFFFFFFFFFFFFFFFFFFFFFFFFFFFFFFFFFFFF AND MUL OR SWAP1 SSTORE POP POP PUSH3 0x155 JUMP JUMPDEST POP JUMP JUMPDEST PUSH1 0x0 DUP1 REVERT JUMPDEST PUSH1 0x0 PUSH20 0xFFFFFFFFFFFFFFFFFFFFFFFFFFFFFFFFFFFFFFFF DUP3 AND SWAP1 POP SWAP2 SWAP1 POP JUMP JUMPDEST PUSH1 0x0 PUSH3 0xEB DUP3 PUSH3 0xBE JUMP JUMPDEST SWAP1 POP SWAP2 SWAP1 POP JUMP JUMPDEST PUSH3 0xFD DUP2 PUSH3 0xDE JUMP JUMPDEST DUP2 EQ PUSH3 0x109 JUMPI PUSH1 0x0 DUP1 REVERT JUMPDEST POP JUMP JUMPDEST PUSH1 0x0 DUP2 MLOAD SWAP1 POP PUSH3 0x11D DUP2 PUSH3 0xF2 JUMP JUMPDEST SWAP3 SWAP2 POP POP JUMP JUMPDEST PUSH1 0x0 PUSH1 0x20 DUP3 DUP5 SUB SLT ISZERO PUSH3 0x13C JUMPI PUSH3 0x13B PUSH3 0xB9 JUMP JUMPDEST JUMPDEST PUSH1 0x0 PUSH3 0x14C DUP5 DUP3 DUP6 ADD PUSH3 0x10C JUMP JUMPDEST SWAP2 POP POP SWAP3 SWAP2 POP POP JUMP JUMPDEST PUSH2 0x13CD DUP1 PUSH3 0x165 PUSH1 0x0 CODECOPY PUSH1 0x0 RETURN INVALID PUSH1 0x80 PUSH1 0x40 MSTORE CALLVALUE DUP1 ISZERO PUSH2 0x10 JUMPI PUSH1 0x0 DUP1 REVERT JUMPDEST POP PUSH1 0x4 CALLDATASIZE LT PUSH2 0x62 JUMPI PUSH1 0x0 CALLDATALOAD PUSH1 0xE0 SHR DUP1 PUSH4 0x1E89DFB6 EQ PUSH2 0x67 JUMPI DUP1 PUSH4 0x465DED82 EQ PUSH2 0x83 JUMPI DUP1 PUSH4 0x47E7EF24 EQ PUSH2 0xB3 JUMPI DUP1 PUSH4 0x8DA5CB5B EQ PUSH2 0xCF JUMPI DUP1 PUSH4 0xC23F001F EQ PUSH2 0xED JUMPI DUP1 PUSH4 0xF3FEF3A3 EQ PUSH2 0x11D JUMPI JUMPDEST PUSH1 0x0 DUP1 REVERT JUMPDEST PUSH2 0x81 PUSH1 0x4 DUP1 CALLDATASIZE SUB DUP2 ADD SWAP1 PUSH2 0x7C SWAP2 SWAP1 PUSH2 0xCC4 JUMP JUMPDEST PUSH2 0x139 JUMP JUMPDEST STOP JUMPDEST PUSH2 0x9D PUSH1 0x4 DUP1 CALLDATASIZE SUB DUP2 ADD SWAP1 PUSH2 0x98 SWAP2 SWAP1 PUSH2 0xCC4 JUMP JUMPDEST PUSH2 0x389 JUMP JUMPDEST PUSH1 0x40 MLOAD PUSH2 0xAA SWAP2 SWAP1 PUSH2 0xD0A JUMP JUMPDEST PUSH1 0x40 MLOAD DUP1 SWAP2 SUB SWAP1 RETURN JUMPDEST PUSH2 0xCD PUSH1 0x4 DUP1 CALLDATASIZE SUB DUP2 ADD SWAP1 PUSH2 0xC8 SWAP2 SWAP1 PUSH2 0xD51 JUMP JUMPDEST PUSH2 0x3A1 JUMP JUMPDEST STOP JUMPDEST PUSH2 0xD7 PUSH2 0x6CA JUMP JUMPDEST PUSH1 0x40 MLOAD PUSH2 0xE4 SWAP2 SWAP1 PUSH2 0xDA0 JUMP JUMPDEST PUSH1 0x40 MLOAD DUP1 SWAP2 SUB SWAP1 RETURN JUMPDEST PUSH2 0x107 PUSH1 0x4 DUP1 CALLDATASIZE SUB DUP2 ADD SWAP1 PUSH2 0x102 SWAP2 SWAP1 PUSH2 0xDBB JUMP JUMPDEST PUSH2 0x6EE JUMP JUMPDEST PUSH1 0x40 MLOAD PUSH2 0x114 SWAP2 SWAP1 PUSH2 0xD0A JUMP JUMPDEST PUSH1 0x40 MLOAD DUP1 SWAP2 SUB SWAP1 RETURN JUMPDEST PUSH2 0x137 PUSH1 0x4 DUP1 CALLDATASIZE SUB DUP2 ADD SWAP1 PUSH2 0x132 SWAP2 SWAP1 PUSH2 0xD51 JUMP JUMPDEST PUSH2 0x713 JUMP JUMPDEST STOP JUMPDEST PUSH2 0x14D PUSH8 0xC160147C5FE38807 PUSH1 0xC0 SHL PUSH2 0x8B8 JUMP JUMPDEST PUSH2 0x161 PUSH8 0x26C7004522A429FB PUSH1 0xC0 SHL PUSH2 0x8BB JUMP JUMPDEST PUSH2 0x175 PUSH8 0xDF23A199D37C695B PUSH1 0xC0 SHL PUSH2 0x8BB JUMP JUMPDEST PUSH2 0x189 PUSH8 0xBDDAAF3812E5A250 PUSH1 0xC0 SHL PUSH2 0x8BB JUMP JUMPDEST PUSH2 0x19D PUSH8 0x4BDAF2107FA8FD6F PUSH1 0xC0 SHL PUSH2 0x8BB JUMP JUMPDEST PUSH1 0x0 DUP1 SLOAD SWAP1 PUSH2 0x100 EXP SWAP1 DIV PUSH20 0xFFFFFFFFFFFFFFFFFFFFFFFFFFFFFFFFFFFFFFFF AND PUSH20 0xFFFFFFFFFFFFFFFFFFFFFFFFFFFFFFFFFFFFFFFF AND CALLER PUSH20 0xFFFFFFFFFFFFFFFFFFFFFFFFFFFFFFFFFFFFFFFF AND EQ PUSH2 0x22B JUMPI PUSH1 0x40 MLOAD PUSH32 0x8C379A000000000000000000000000000000000000000000000000000000000 DUP2 MSTORE PUSH1 0x4 ADD PUSH2 0x222 SWAP1 PUSH2 0xE7E JUMP JUMPDEST PUSH1 0x40 MLOAD DUP1 SWAP2 SUB SWAP1 REVERT JUMPDEST PUSH2 0x23F PUSH8 0xACF7D2992E2E72FF PUSH1 0xC0 SHL PUSH2 0x8BB JUMP JUMPDEST PUSH2 0x253 PUSH8 0x643C8E338BA14E06 PUSH1 0xC0 SHL PUSH2 0x8BB JUMP JUMPDEST PUSH2 0x267 PUSH8 0x15E44F716EB440D7 PUSH1 0xC0 SHL PUSH2 0x8B8 JUMP JUMPDEST PUSH2 0x27B PUSH8 0xA45004C54BF3754F PUSH1 0xC0 SHL PUSH2 0x8B8 JUMP JUMPDEST PUSH2 0x28F PUSH8 0x7602F9EAA772917 PUSH1 0xC0 SHL PUSH2 0x8B8 JUMP JUMPDEST PUSH2 0x2A3 PUSH8 0x13CE91DFAEDEFF67 PUSH1 0xC0 SHL PUSH2 0x8B8 JUMP JUMPDEST PUSH2 0x32D PUSH1 0x0 DUP1 SLOAD SWAP1 PUSH2 0x100 EXP SWAP1 DIV PUSH20 0xFFFFFFFFFFFFFFFFFFFFFFFFFFFFFFFFFFFFFFFF AND PUSH1 0x2 PUSH1 0x0 DUP5 PUSH20 0xFFFFFFFFFFFFFFFFFFFFFFFFFFFFFFFFFFFFFFFF AND PUSH20 0xFFFFFFFFFFFFFFFFFFFFFFFFFFFFFFFFFFFFFFFF AND DUP2 MSTORE PUSH1 0x20 ADD SWAP1 DUP2 MSTORE PUSH1 0x20 ADD PUSH1 0x0 KECCAK256 SLOAD DUP4 PUSH20 0xFFFFFFFFFFFFFFFFFFFFFFFFFFFFFFFFFFFFFFFF AND PUSH2 0x8BE SWAP1 SWAP3 SWAP2 SWAP1 PUSH4 0xFFFFFFFF AND JUMP JUMPDEST PUSH2 0x341 PUSH8 0x279A44395B8D3C43 PUSH1 0xC0 SHL PUSH2 0x8B8 JUMP JUMPDEST PUSH1 0x0 PUSH1 0x2 PUSH1 0x0 DUP4 PUSH20 0xFFFFFFFFFFFFFFFFFFFFFFFFFFFFFFFFFFFFFFFF AND PUSH20 0xFFFFFFFFFFFFFFFFFFFFFFFFFFFFFFFFFFFFFFFF AND DUP2 MSTORE PUSH1 0x20 ADD SWAP1 DUP2 MSTORE PUSH1 0x20 ADD PUSH1 0x0 KECCAK256 DUP2 SWAP1 SSTORE POP POP JUMP JUMPDEST PUSH1 0x2 PUSH1 0x20 MSTORE DUP1 PUSH1 0x0 MSTORE PUSH1 0x40 PUSH1 0x0 KECCAK256 PUSH1 0x0 SWAP2 POP SWAP1 POP SLOAD DUP2 JUMP JUMPDEST PUSH2 0x3B5 PUSH8 0x3957059F26F3FEAA PUSH1 0xC0 SHL PUSH2 0x8B8 JUMP JUMPDEST PUSH2 0x3C9 PUSH8 0x65FCAC3F022F8E7D PUSH1 0xC0 SHL PUSH2 0x8B8 JUMP JUMPDEST PUSH2 0x3DD PUSH8 0xB28CD1F14B1F5499 PUSH1 0xC0 SHL PUSH2 0x8B8 JUMP JUMPDEST PUSH2 0x3F1 PUSH8 0xBFD3D8718F75EFA5 PUSH1 0xC0 SHL PUSH2 0x8B8 JUMP JUMPDEST PUSH1 0x0 DUP2 GT PUSH2 0x434 JUMPI PUSH1 0x40 MLOAD PUSH32 0x8C379A000000000000000000000000000000000000000000000000000000000 DUP2 MSTORE PUSH1 0x4 ADD PUSH2 0x42B SWAP1 PUSH2 0xEEA JUMP JUMPDEST PUSH1 0x40 MLOAD DUP1 SWAP2 SUB SWAP1 REVERT JUMPDEST PUSH2 0x448 PUSH8 0x6E57B499BE5879F5 PUSH1 0xC0 SHL PUSH2 0x8B8 JUMP JUMPDEST PUSH2 0x45C PUSH8 0x8C93488E93F79764 PUSH1 0xC0 SHL PUSH2 0x8B8 JUMP JUMPDEST PUSH2 0x470 PUSH8 0x292A3AAE12C97754 PUSH1 0xC0 SHL PUSH2 0x8B8 JUMP JUMPDEST PUSH1 0x0 PUSH2 0x486 PUSH8 0x6D47E79EEFA720F4 PUSH1 0xC0 SHL PUSH2 0x8B8 JUMP JUMPDEST PUSH2 0x49A PUSH8 0xF7777FCDCBBC37F1 PUSH1 0xC0 SHL PUSH2 0x8B8 JUMP JUMPDEST PUSH2 0x4C7 CALLER ADDRESS DUP5 DUP7 PUSH20 0xFFFFFFFFFFFFFFFFFFFFFFFFFFFFFFFFFFFFFFFF AND PUSH2 0x944 SWAP1 SWAP4 SWAP3 SWAP2 SWAP1 PUSH4 0xFFFFFFFF AND JUMP JUMPDEST PUSH2 0x4DB PUSH8 0xFA675E5278D5A300 PUSH1 0xC0 SHL PUSH2 0x8B8 JUMP JUMPDEST PUSH2 0x4EF PUSH8 0xE5AE6292417EBBE7 PUSH1 0xC0 SHL PUSH2 0x8B8 JUMP JUMPDEST PUSH2 0x3E8 DUP3 LT ISZERO PUSH2 0x54D JUMPI PUSH2 0x50D PUSH8 0xB46ADE4DD0F4BE82 PUSH1 0xC0 SHL PUSH2 0x8B8 JUMP JUMPDEST PUSH2 0x521 PUSH8 0x418CF1B3A2518D3F PUSH1 0xC0 SHL PUSH2 0x8B8 JUMP JUMPDEST PUSH1 0x1 SWAP1 POP PUSH2 0x539 PUSH8 0x5FB9E1C149346DA6 PUSH1 0xC0 SHL PUSH2 0x8B8 JUMP JUMPDEST PUSH1 0x1 DUP3 PUSH2 0x546 SWAP2 SWAP1 PUSH2 0xF39 JUMP JUMPDEST SWAP2 POP PUSH2 0x5B4 JUMP JUMPDEST PUSH2 0x561 PUSH8 0x36F648FBA3669694 PUSH1 0xC0 SHL PUSH2 0x8B8 JUMP JUMPDEST PUSH2 0x575 PUSH8 0xA666EA1911503DC8 PUSH1 0xC0 SHL PUSH2 0x8B8 JUMP JUMPDEST PUSH2 0x2710 PUSH1 0xA DUP4 PUSH2 0x585 SWAP2 SWAP1 PUSH2 0xF6D JUMP JUMPDEST PUSH2 0x58F SWAP2 SWAP1 PUSH2 0xFDE JUMP JUMPDEST SWAP1 POP PUSH2 0x5A5 PUSH8 0x5069F69F6B6C338F PUSH1 0xC0 SHL PUSH2 0x8B8 JUMP JUMPDEST DUP1 DUP3 PUSH2 0x5B1 SWAP2 SWAP1 PUSH2 0xF39 JUMP JUMPDEST SWAP2 POP JUMPDEST PUSH2 0x5C8 PUSH8 0xE6E3EF71B83E9280 PUSH1 0xC0 SHL PUSH2 0x8B8 JUMP JUMPDEST DUP2 PUSH1 0x1 PUSH1 0x0 CALLER PUSH20 0xFFFFFFFFFFFFFFFFFFFFFFFFFFFFFFFFFFFFFFFF AND PUSH20 0xFFFFFFFFFFFFFFFFFFFFFFFFFFFFFFFFFFFFFFFF AND DUP2 MSTORE PUSH1 0x20 ADD SWAP1 DUP2 MSTORE PUSH1 0x20 ADD PUSH1 0x0 KECCAK256 PUSH1 0x0 DUP6 PUSH20 0xFFFFFFFFFFFFFFFFFFFFFFFFFFFFFFFFFFFFFFFF AND PUSH20 0xFFFFFFFFFFFFFFFFFFFFFFFFFFFFFFFFFFFFFFFF AND DUP2 MSTORE PUSH1 0x20 ADD SWAP1 DUP2 MSTORE PUSH1 0x20 ADD PUSH1 0x0 KECCAK256 PUSH1 0x0 DUP3 DUP3 SLOAD PUSH2 0x654 SWAP2 SWAP1 PUSH2 0x100F JUMP JUMPDEST SWAP3 POP POP DUP2 SWAP1 SSTORE POP PUSH2 0x66F PUSH8 0xE79723449F85AFF5 PUSH1 0xC0 SHL PUSH2 0x8B8 JUMP JUMPDEST DUP1 PUSH1 0x2 PUSH1 0x0 DUP6 PUSH20 0xFFFFFFFFFFFFFFFFFFFFFFFFFFFFFFFFFFFFFFFF AND PUSH20 0xFFFFFFFFFFFFFFFFFFFFFFFFFFFFFFFFFFFFFFFF AND DUP2 MSTORE PUSH1 0x20 ADD SWAP1 DUP2 MSTORE PUSH1 0x20 ADD PUSH1 0x0 KECCAK256 PUSH1 0x0 DUP3 DUP3 SLOAD PUSH2 0x6BE SWAP2 SWAP1 PUSH2 0x100F JUMP JUMPDEST SWAP3 POP POP DUP2 SWAP1 SSTORE POP POP POP POP JUMP JUMPDEST PUSH1 0x0 DUP1 SLOAD SWAP1 PUSH2 0x100 EXP SWAP1 DIV PUSH20 0xFFFFFFFFFFFFFFFFFFFFFFFFFFFFFFFFFFFFFFFF AND DUP2 JUMP JUMPDEST PUSH1 0x1 PUSH1 0x20 MSTORE DUP2 PUSH1 0x0 MSTORE PUSH1 0x40 PUSH1 0x0 KECCAK256 PUSH1 0x20 MSTORE DUP1 PUSH1 0x0 MSTORE PUSH1 0x40 PUSH1 0x0 KECCAK256 PUSH1 0x0 SWAP2 POP SWAP2 POP POP SLOAD DUP2 JUMP JUMPDEST PUSH2 0x727 PUSH8 0x33D3C2E8537172EE PUSH1 0xC0 SHL PUSH2 0x8B8 JUMP JUMPDEST PUSH2 0x73B PUSH8 0x3CFE208A28D771C0 PUSH1 0xC0 SHL PUSH2 0x8B8 JUMP JUMPDEST PUSH2 0x74F PUSH8 0xE9FFF55A3CA2418C PUSH1 0xC0 SHL PUSH2 0x8B8 JUMP JUMPDEST PUSH2 0x763 PUSH8 0x873DD71F49B1D3FD PUSH1 0xC0 SHL PUSH2 0x8B8 JUMP JUMPDEST PUSH1 0x0 DUP2 GT PUSH2 0x7A6 JUMPI PUSH1 0x40 MLOAD PUSH32 0x8C379A000000000000000000000000000000000000000000000000000000000 DUP2 MSTORE PUSH1 0x4 ADD PUSH2 0x79D SWAP1 PUSH2 0xEEA JUMP JUMPDEST PUSH1 0x40 MLOAD DUP1 SWAP2 SUB SWAP1 REVERT JUMPDEST PUSH2 0x7BA PUSH8 0x800F8A20FF0094D9 PUSH1 0xC0 SHL PUSH2 0x8B8 JUMP JUMPDEST PUSH2 0x7CE PUSH8 0x7194B66831FC6881 PUSH1 0xC0 SHL PUSH2 0x8B8 JUMP JUMPDEST DUP1 PUSH1 0x1 PUSH1 0x0 CALLER PUSH20 0xFFFFFFFFFFFFFFFFFFFFFFFFFFFFFFFFFFFFFFFF AND PUSH20 0xFFFFFFFFFFFFFFFFFFFFFFFFFFFFFFFFFFFFFFFF AND DUP2 MSTORE PUSH1 0x20 ADD SWAP1 DUP2 MSTORE PUSH1 0x20 ADD PUSH1 0x0 KECCAK256 PUSH1 0x0 DUP5 PUSH20 0xFFFFFFFFFFFFFFFFFFFFFFFFFFFFFFFFFFFFFFFF AND PUSH20 0xFFFFFFFFFFFFFFFFFFFFFFFFFFFFFFFFFFFFFFFF AND DUP2 MSTORE PUSH1 0x20 ADD SWAP1 DUP2 MSTORE PUSH1 0x20 ADD PUSH1 0x0 KECCAK256 PUSH1 0x0 DUP3 DUP3 SLOAD PUSH2 0x85A SWAP2 SWAP1 PUSH2 0xF39 JUMP JUMPDEST SWAP3 POP POP DUP2 SWAP1 SSTORE POP PUSH2 0x875 PUSH8 0xA2ECCC84988205C8 PUSH1 0xC0 SHL PUSH2 0x8B8 JUMP JUMPDEST PUSH2 0x889 PUSH8 0x735F7F3B9461374 PUSH1 0xC0 SHL PUSH2 0x8B8 JUMP JUMPDEST PUSH2 0x8B4 CALLER DUP3 DUP5 PUSH20 0xFFFFFFFFFFFFFFFFFFFFFFFFFFFFFFFFFFFFFFFF AND PUSH2 0x8BE SWAP1 SWAP3 SWAP2 SWAP1 PUSH4 0xFFFFFFFF AND JUMP JUMPDEST POP POP JUMP JUMPDEST POP JUMP JUMPDEST POP JUMP JUMPDEST PUSH2 0x93F DUP4 PUSH4 0xA9059CBB PUSH1 0xE0 SHL DUP5 DUP5 PUSH1 0x40 MLOAD PUSH1 0x24 ADD PUSH2 0x8DD SWAP3 SWAP2 SWAP1 PUSH2 0x1043 JUMP JUMPDEST PUSH1 0x40 MLOAD PUSH1 0x20 DUP2 DUP4 SUB SUB DUP2 MSTORE SWAP1 PUSH1 0x40 MSTORE SWAP1 PUSH28 0xFFFFFFFFFFFFFFFFFFFFFFFFFFFFFFFFFFFFFFFFFFFFFFFFFFFFFFFF NOT AND PUSH1 0x20 DUP3 ADD DUP1 MLOAD PUSH28 0xFFFFFFFFFFFFFFFFFFFFFFFFFFFFFFFFFFFFFFFFFFFFFFFFFFFFFFFF DUP4 DUP2 DUP4 AND OR DUP4 MSTORE POP POP POP POP PUSH2 0x9CD JUMP JUMPDEST POP POP POP JUMP JUMPDEST PUSH2 0x9C7 DUP5 PUSH4 0x23B872DD PUSH1 0xE0 SHL DUP6 DUP6 DUP6 PUSH1 0x40 MLOAD PUSH1 0x24 ADD PUSH2 0x965 SWAP4 SWAP3 SWAP2 SWAP1 PUSH2 0x106C JUMP JUMPDEST PUSH1 0x40 MLOAD PUSH1 0x20 DUP2 DUP4 SUB SUB DUP2 MSTORE SWAP1 PUSH1 0x40 MSTORE SWAP1 PUSH28 0xFFFFFFFFFFFFFFFFFFFFFFFFFFFFFFFFFFFFFFFFFFFFFFFFFFFFFFFF NOT AND PUSH1 0x20 DUP3 ADD DUP1 MLOAD PUSH28 0xFFFFFFFFFFFFFFFFFFFFFFFFFFFFFFFFFFFFFFFFFFFFFFFFFFFFFFFF DUP4 DUP2 DUP4 AND OR DUP4 MSTORE POP POP POP POP PUSH2 0x9CD JUMP JUMPDEST POP POP POP POP JUMP JUMPDEST PUSH1 0x0 PUSH2 0xA2F DUP3 PUSH1 0x40 MLOAD DUP1 PUSH1 0x40 ADD PUSH1 0x40 MSTORE DUP1 PUSH1 0x20 DUP2 MSTORE PUSH1 0x20 ADD PUSH32 0x5361666545524332303A206C6F772D6C6576656C2063616C6C206661696C6564 DUP2 MSTORE POP DUP6 PUSH20 0xFFFFFFFFFFFFFFFFFFFFFFFFFFFFFFFFFFFFFFFF AND PUSH2 0xA94 SWAP1 SWAP3 SWAP2 SWAP1 PUSH4 0xFFFFFFFF AND JUMP JUMPDEST SWAP1 POP PUSH1 0x0 DUP2 MLOAD GT ISZERO PUSH2 0xA8F JUMPI DUP1 DUP1 PUSH1 0x20 ADD SWAP1 MLOAD DUP2 ADD SWAP1 PUSH2 0xA4F SWAP2 SWAP1 PUSH2 0x10DB JUMP JUMPDEST PUSH2 0xA8E JUMPI PUSH1 0x40 MLOAD PUSH32 0x8C379A000000000000000000000000000000000000000000000000000000000 DUP2 MSTORE PUSH1 0x4 ADD PUSH2 0xA85 SWAP1 PUSH2 0x117A JUMP JUMPDEST PUSH1 0x40 MLOAD DUP1 SWAP2 SUB SWAP1 REVERT JUMPDEST JUMPDEST POP POP POP JUMP JUMPDEST PUSH1 0x60 PUSH2 0xAA3 DUP5 DUP5 PUSH1 0x0 DUP6 PUSH2 0xAAC JUMP JUMPDEST SWAP1 POP SWAP4 SWAP3 POP POP POP JUMP JUMPDEST PUSH1 0x60 DUP3 SELFBALANCE LT ISZERO PUSH2 0xAF1 JUMPI PUSH1 0x40 MLOAD PUSH32 0x8C379A000000000000000000000000000000000000000000000000000000000 DUP2 MSTORE PUSH1 0x4 ADD PUSH2 0xAE8 SWAP1 PUSH2 0x120C JUMP JUMPDEST PUSH1 0x40 MLOAD DUP1 SWAP2 SUB SWAP1 REVERT JUMPDEST PUSH1 0x0 DUP1 DUP7 PUSH20 0xFFFFFFFFFFFFFFFFFFFFFFFFFFFFFFFFFFFFFFFF AND DUP6 DUP8 PUSH1 0x40 MLOAD PUSH2 0xB1A SWAP2 SWAP1 PUSH2 0x129D JUMP JUMPDEST PUSH1 0x0 PUSH1 0x40 MLOAD DUP1 DUP4 SUB DUP2 DUP6 DUP8 GAS CALL SWAP3 POP POP POP RETURNDATASIZE DUP1 PUSH1 0x0 DUP2 EQ PUSH2 0xB57 JUMPI PUSH1 0x40 MLOAD SWAP2 POP PUSH1 0x1F NOT PUSH1 0x3F RETURNDATASIZE ADD AND DUP3 ADD PUSH1 0x40 MSTORE RETURNDATASIZE DUP3 MSTORE RETURNDATASIZE PUSH1 0x0 PUSH1 0x20 DUP5 ADD RETURNDATACOPY PUSH2 0xB5C JUMP JUMPDEST PUSH1 0x60 SWAP2 POP JUMPDEST POP SWAP2 POP SWAP2 POP PUSH2 0xB6D DUP8 DUP4 DUP4 DUP8 PUSH2 0xB79 JUMP JUMPDEST SWAP3 POP POP POP SWAP5 SWAP4 POP POP POP POP JUMP JUMPDEST PUSH1 0x60 DUP4 ISZERO PUSH2 0xBDB JUMPI PUSH1 0x0 DUP4 MLOAD SUB PUSH2 0xBD3 JUMPI PUSH2 0xB93 DUP6 PUSH2 0xBEE JUMP JUMPDEST PUSH2 0xBD2 JUMPI PUSH1 0x40 MLOAD PUSH32 0x8C379A000000000000000000000000000000000000000000000000000000000 DUP2 MSTORE PUSH1 0x4 ADD PUSH2 0xBC9 SWAP1 PUSH2 0x1300 JUMP JUMPDEST PUSH1 0x40 MLOAD DUP1 SWAP2 SUB SWAP1 REVERT JUMPDEST JUMPDEST DUP3 SWAP1 POP PUSH2 0xBE6 JUMP JUMPDEST PUSH2 0xBE5 DUP4 DUP4 PUSH2 0xC11 JUMP JUMPDEST JUMPDEST SWAP5 SWAP4 POP POP POP POP JUMP JUMPDEST PUSH1 0x0 DUP1 DUP3 PUSH20 0xFFFFFFFFFFFFFFFFFFFFFFFFFFFFFFFFFFFFFFFF AND EXTCODESIZE GT SWAP1 POP SWAP2 SWAP1 POP JUMP JUMPDEST PUSH1 0x0 DUP3 MLOAD GT ISZERO PUSH2 0xC24 JUMPI DUP2 MLOAD DUP1 DUP4 PUSH1 0x20 ADD REVERT JUMPDEST DUP1 PUSH1 0x40 MLOAD PUSH32 0x8C379A000000000000000000000000000000000000000000000000000000000 DUP2 MSTORE PUSH1 0x4 ADD PUSH2 0xC58 SWAP2 SWAP1 PUSH2 0x1375 JUMP JUMPDEST PUSH1 0x40 MLOAD DUP1 SWAP2 SUB SWAP1 REVERT JUMPDEST PUSH1 0x0 DUP1 REVERT JUMPDEST PUSH1 0x0 PUSH20 0xFFFFFFFFFFFFFFFFFFFFFFFFFFFFFFFFFFFFFFFF DUP3 AND SWAP1 POP SWAP2 SWAP1 POP JUMP JUMPDEST PUSH1 0x0 PUSH2 0xC91 DUP3 PUSH2 0xC66 JUMP JUMPDEST SWAP1 POP SWAP2 SWAP1 POP JUMP JUMPDEST PUSH2 0xCA1 DUP2 PUSH2 0xC86 JUMP JUMPDEST DUP2 EQ PUSH2 0xCAC JUMPI PUSH1 0x0 DUP1 REVERT JUMPDEST POP JUMP JUMPDEST PUSH1 0x0 DUP2 CALLDATALOAD SWAP1 POP PUSH2 0xCBE DUP2 PUSH2 0xC98 JUMP JUMPDEST SWAP3 SWAP2 POP POP JUMP JUMPDEST PUSH1 0x0 PUSH1 0x20 DUP3 DUP5 SUB SLT ISZERO PUSH2 0xCDA JUMPI PUSH2 0xCD9 PUSH2 0xC61 JUMP JUMPDEST JUMPDEST PUSH1 0x0 PUSH2 0xCE8 DUP5 DUP3 DUP6 ADD PUSH2 0xCAF JUMP JUMPDEST SWAP2 POP POP SWAP3 SWAP2 POP POP JUMP JUMPDEST PUSH1 0x0 DUP2 SWAP1 POP SWAP2 SWAP1 POP JUMP JUMPDEST PUSH2 0xD04 DUP2 PUSH2 0xCF1 JUMP JUMPDEST DUP3 MSTORE POP POP JUMP JUMPDEST PUSH1 0x0 PUSH1 0x20 DUP3 ADD SWAP1 POP PUSH2 0xD1F PUSH1 0x0 DUP4 ADD DUP5 PUSH2 0xCFB JUMP JUMPDEST SWAP3 SWAP2 POP POP JUMP JUMPDEST PUSH2 0xD2E DUP2 PUSH2 0xCF1 JUMP JUMPDEST DUP2 EQ PUSH2 0xD39 JUMPI PUSH1 0x0 DUP1 REVERT JUMPDEST POP JUMP JUMPDEST PUSH1 0x0 DUP2 CALLDATALOAD SWAP1 POP PUSH2 0xD4B DUP2 PUSH2 0xD25 JUMP JUMPDEST SWAP3 SWAP2 POP POP JUMP JUMPDEST PUSH1 0x0 DUP1 PUSH1 0x40 DUP4 DUP6 SUB SLT ISZERO PUSH2 0xD68 JUMPI PUSH2 0xD67 PUSH2 0xC61 JUMP JUMPDEST JUMPDEST PUSH1 0x0 PUSH2 0xD76 DUP6 DUP3 DUP7 ADD PUSH2 0xCAF JUMP JUMPDEST SWAP3 POP POP PUSH1 0x20 PUSH2 0xD87 DUP6 DUP3 DUP7 ADD PUSH2 0xD3C JUMP JUMPDEST SWAP2 POP POP SWAP3 POP SWAP3 SWAP1 POP JUMP JUMPDEST PUSH2 0xD9A DUP2 PUSH2 0xC86 JUMP JUMPDEST DUP3 MSTORE POP POP JUMP JUMPDEST PUSH1 0x0 PUSH1 0x20 DUP3 ADD SWAP1 POP PUSH2 0xDB5 PUSH1 0x0 DUP4 ADD DUP5 PUSH2 0xD91 JUMP JUMPDEST SWAP3 SWAP2 POP POP JUMP JUMPDEST PUSH1 0x0 DUP1 PUSH1 0x40 DUP4 DUP6 SUB SLT ISZERO PUSH2 0xDD2 JUMPI PUSH2 0xDD1 PUSH2 0xC61 JUMP JUMPDEST JUMPDEST PUSH1 0x0 PUSH2 0xDE0 DUP6 DUP3 DUP7 ADD PUSH2 0xCAF JUMP JUMPDEST SWAP3 POP POP PUSH1 0x20 PUSH2 0xDF1 DUP6 DUP3 DUP7 ADD PUSH2 0xCAF JUMP JUMPDEST SWAP2 POP POP SWAP3 POP SWAP3 SWAP1 POP JUMP JUMPDEST PUSH1 0x0 DUP3 DUP3 MSTORE PUSH1 0x20 DUP3 ADD SWAP1 POP SWAP3 SWAP2 POP POP JUMP JUMPDEST PUSH32 0x4F6E6C79204F776E65722063616E2075736520746869732066756E6374696F6E PUSH1 0x0 DUP3 ADD MSTORE PUSH32 0x2E00000000000000000000000000000000000000000000000000000000000000 PUSH1 0x20 DUP3 ADD MSTORE POP JUMP JUMPDEST PUSH1 0x0 PUSH2 0xE68 PUSH1 0x21 DUP4 PUSH2 0xDFB JUMP JUMPDEST SWAP2 POP PUSH2 0xE73 DUP3 PUSH2 0xE0C JUMP JUMPDEST PUSH1 0x40 DUP3 ADD SWAP1 POP SWAP2 SWAP1 POP JUMP JUMPDEST PUSH1 0x0 PUSH1 0x20 DUP3 ADD SWAP1 POP DUP2 DUP2 SUB PUSH1 0x0 DUP4 ADD MSTORE PUSH2 0xE97 DUP2 PUSH2 0xE5B JUMP JUMPDEST SWAP1 POP SWAP2 SWAP1 POP JUMP JUMPDEST PUSH32 0x416D6F756E742073686F756C64206265206C6172676572207468616E20302E00 PUSH1 0x0 DUP3 ADD MSTORE POP JUMP JUMPDEST PUSH1 0x0 PUSH2 0xED4 PUSH1 0x1F DUP4 PUSH2 0xDFB JUMP JUMPDEST SWAP2 POP PUSH2 0xEDF DUP3 PUSH2 0xE9E JUMP JUMPDEST PUSH1 0x20 DUP3 ADD SWAP1 POP SWAP2 SWAP1 POP JUMP JUMPDEST PUSH1 0x0 PUSH1 0x20 DUP3 ADD SWAP1 POP DUP2 DUP2 SUB PUSH1 0x0 DUP4 ADD MSTORE PUSH2 0xF03 DUP2 PUSH2 0xEC7 JUMP JUMPDEST SWAP1 POP SWAP2 SWAP1 POP JUMP JUMPDEST PUSH32 0x4E487B7100000000000000000000000000000000000000000000000000000000 PUSH1 0x0 MSTORE PUSH1 0x11 PUSH1 0x4 MSTORE PUSH1 0x24 PUSH1 0x0 REVERT JUMPDEST PUSH1 0x0 PUSH2 0xF44 DUP3 PUSH2 0xCF1 JUMP JUMPDEST SWAP2 POP PUSH2 0xF4F DUP4 PUSH2 0xCF1 JUMP JUMPDEST SWAP3 POP DUP3 DUP3 SUB SWAP1 POP DUP2 DUP2 GT ISZERO PUSH2 0xF67 JUMPI PUSH2 0xF66 PUSH2 0xF0A JUMP JUMPDEST JUMPDEST SWAP3 SWAP2 POP POP JUMP JUMPDEST PUSH1 0x0 PUSH2 0xF78 DUP3 PUSH2 0xCF1 JUMP JUMPDEST SWAP2 POP PUSH2 0xF83 DUP4 PUSH2 0xCF1 JUMP JUMPDEST SWAP3 POP DUP3 DUP3 MUL PUSH2 0xF91 DUP2 PUSH2 0xCF1 JUMP JUMPDEST SWAP2 POP DUP3 DUP3 DIV DUP5 EQ DUP4 ISZERO OR PUSH2 0xFA8 JUMPI PUSH2 0xFA7 PUSH2 0xF0A JUMP JUMPDEST JUMPDEST POP SWAP3 SWAP2 POP POP JUMP JUMPDEST PUSH32 0x4E487B7100000000000000000000000000000000000000000000000000000000 PUSH1 0x0 MSTORE PUSH1 0x12 PUSH1 0x4 MSTORE PUSH1 0x24 PUSH1 0x0 REVERT JUMPDEST PUSH1 0x0 PUSH2 0xFE9 DUP3 PUSH2 0xCF1 JUMP JUMPDEST SWAP2 POP PUSH2 0xFF4 DUP4 PUSH2 0xCF1 JUMP JUMPDEST SWAP3 POP DUP3 PUSH2 0x1004 JUMPI PUSH2 0x1003 PUSH2 0xFAF JUMP JUMPDEST JUMPDEST DUP3 DUP3 DIV SWAP1 POP SWAP3 SWAP2 POP POP JUMP JUMPDEST PUSH1 0x0 PUSH2 0x101A DUP3 PUSH2 0xCF1 JUMP JUMPDEST SWAP2 POP PUSH2 0x1025 DUP4 PUSH2 0xCF1 JUMP JUMPDEST SWAP3 POP DUP3 DUP3 ADD SWAP1 POP DUP1 DUP3 GT ISZERO PUSH2 0x103D JUMPI PUSH2 0x103C PUSH2 0xF0A JUMP JUMPDEST JUMPDEST SWAP3 SWAP2 POP POP JUMP JUMPDEST PUSH1 0x0 PUSH1 0x40 DUP3 ADD SWAP1 POP PUSH2 0x1058 PUSH1 0x0 DUP4 ADD DUP6 PUSH2 0xD91 JUMP JUMPDEST PUSH2 0x1065 PUSH1 0x20 DUP4 ADD DUP5 PUSH2 0xCFB JUMP JUMPDEST SWAP4 SWAP3 POP POP POP JUMP JUMPDEST PUSH1 0x0 PUSH1 0x60 DUP3 ADD SWAP1 POP PUSH2 0x1081 PUSH1 0x0 DUP4 ADD DUP7 PUSH2 0xD91 JUMP JUMPDEST PUSH2 0x108E PUSH1 0x20 DUP4 ADD DUP6 PUSH2 0xD91 JUMP JUMPDEST PUSH2 0x109B PUSH1 0x40 DUP4 ADD DUP5 PUSH2 0xCFB JUMP JUMPDEST SWAP5 SWAP4 POP POP POP POP JUMP JUMPDEST PUSH1 0x0 DUP2 ISZERO ISZERO SWAP1 POP SWAP2 SWAP1 POP JUMP JUMPDEST PUSH2 0x10B8 DUP2 PUSH2 0x10A3 JUMP JUMPDEST DUP2 EQ PUSH2 0x10C3 JUMPI PUSH1 0x0 DUP1 REVERT JUMPDEST POP JUMP JUMPDEST PUSH1 0x0 DUP2 MLOAD SWAP1 POP PUSH2 0x10D5 DUP2 PUSH2 0x10AF JUMP JUMPDEST SWAP3 SWAP2 POP POP JUMP JUMPDEST PUSH1 0x0 PUSH1 0x20 DUP3 DUP5 SUB SLT ISZERO PUSH2 0x10F1 JUMPI PUSH2 0x10F0 PUSH2 0xC61 JUMP JUMPDEST JUMPDEST PUSH1 0x0 PUSH2 0x10FF DUP5 DUP3 DUP6 ADD PUSH2 0x10C6 JUMP JUMPDEST SWAP2 POP POP SWAP3 SWAP2 POP POP JUMP JUMPDEST PUSH32 0x5361666545524332303A204552433230206F7065726174696F6E20646964206E PUSH1 0x0 DUP3 ADD MSTORE PUSH32 0x6F74207375636365656400000000000000000000000000000000000000000000 PUSH1 0x20 DUP3 ADD MSTORE POP JUMP JUMPDEST PUSH1 0x0 PUSH2 0x1164 PUSH1 0x2A DUP4 PUSH2 0xDFB JUMP JUMPDEST SWAP2 POP PUSH2 0x116F DUP3 PUSH2 0x1108 JUMP JUMPDEST PUSH1 0x40 DUP3 ADD SWAP1 POP SWAP2 SWAP1 POP JUMP JUMPDEST PUSH1 0x0 PUSH1 0x20 DUP3 ADD SWAP1 POP DUP2 DUP2 SUB PUSH1 0x0 DUP4 ADD MSTORE PUSH2 0x1193 DUP2 PUSH2 0x1157 JUMP JUMPDEST SWAP1 POP SWAP2 SWAP1 POP JUMP JUMPDEST PUSH32 0x416464726573733A20696E73756666696369656E742062616C616E636520666F PUSH1 0x0 DUP3 ADD MSTORE PUSH32 0x722063616C6C0000000000000000000000000000000000000000000000000000 PUSH1 0x20 DUP3 ADD MSTORE POP JUMP JUMPDEST PUSH1 0x0 PUSH2 0x11F6 PUSH1 0x26 DUP4 PUSH2 0xDFB JUMP JUMPDEST SWAP2 POP PUSH2 0x1201 DUP3 PUSH2 0x119A JUMP JUMPDEST PUSH1 0x40 DUP3 ADD SWAP1 POP SWAP2 SWAP1 POP JUMP JUMPDEST PUSH1 0x0 PUSH1 0x20 DUP3 ADD SWAP1 POP DUP2 DUP2 SUB PUSH1 0x0 DUP4 ADD MSTORE PUSH2 0x1225 DUP2 PUSH2 0x11E9 JUMP JUMPDEST SWAP1 POP SWAP2 SWAP1 POP JUMP JUMPDEST PUSH1 0x0 DUP2 MLOAD SWAP1 POP SWAP2 SWAP1 POP JUMP JUMPDEST PUSH1 0x0 DUP2 SWAP1 POP SWAP3 SWAP2 POP POP JUMP JUMPDEST PUSH1 0x0 JUMPDEST DUP4 DUP2 LT ISZERO PUSH2 0x1260 JUMPI DUP1 DUP3 ADD MLOAD DUP2 DUP5 ADD MSTORE PUSH1 0x20 DUP2 ADD SWAP1 POP PUSH2 0x1245 JUMP JUMPDEST PUSH1 0x0 DUP5 DUP5 ADD MSTORE POP POP POP POP JUMP JUMPDEST PUSH1 0x0 PUSH2 0x1277 DUP3 PUSH2 0x122C JUMP JUMPDEST PUSH2 0x1281 DUP2 DUP6 PUSH2 0x1237 JUMP JUMPDEST SWAP4 POP PUSH2 0x1291 DUP2 DUP6 PUSH1 0x20 DUP7 ADD PUSH2 0x1242 JUMP JUMPDEST DUP1 DUP5 ADD SWAP2 POP POP SWAP3 SWAP2 POP POP JUMP JUMPDEST PUSH1 0x0 PUSH2 0x12A9 DUP3 DUP5 PUSH2 0x126C JUMP JUMPDEST SWAP2 POP DUP2 SWAP1 POP SWAP3 SWAP2 POP POP JUMP JUMPDEST PUSH32 0x416464726573733A2063616C6C20746F206E6F6E2D636F6E7472616374000000 PUSH1 0x0 DUP3 ADD MSTORE POP JUMP JUMPDEST PUSH1 0x0 PUSH2 0x12EA PUSH1 0x1D DUP4 PUSH2 0xDFB JUMP JUMPDEST SWAP2 POP PUSH2 0x12F5 DUP3 PUSH2 0x12B4 JUMP JUMPDEST PUSH1 0x20 DUP3 ADD SWAP1 POP SWAP2 SWAP1 POP JUMP JUMPDEST PUSH1 0x0 PUSH1 0x20 DUP3 ADD SWAP1 POP DUP2 DUP2 SUB PUSH1 0x0 DUP4 ADD MSTORE PUSH2 0x1319 DUP2 PUSH2 0x12DD JUMP JUMPDEST SWAP1 POP SWAP2 SWAP1 POP JUMP JUMPDEST PUSH1 0x0 DUP2 MLOAD SWAP1 POP SWAP2 SWAP1 POP JUMP JUMPDEST PUSH1 0x0 PUSH1 0x1F NOT PUSH1 0x1F DUP4 ADD AND SWAP1 POP SWAP2 SWAP1 POP JUMP JUMPDEST PUSH1 0x0 PUSH2 0x1347 DUP3 PUSH2 0x1320 JUMP JUMPDEST PUSH2 0x1351 DUP2 DUP6 PUSH2 0xDFB JUMP JUMPDEST SWAP4 POP PUSH2 0x1361 DUP2 DUP6 PUSH1 0x20 DUP7 ADD PUSH2 0x1242 JUMP JUMPDEST PUSH2 0x136A DUP2 PUSH2 0x132B JUMP JUMPDEST DUP5 ADD SWAP2 POP POP SWAP3 SWAP2 POP POP JUMP JUMPDEST PUSH1 0x0 PUSH1 0x20 DUP3 ADD SWAP1 POP DUP2 DUP2 SUB PUSH1 0x0 DUP4 ADD MSTORE PUSH2 0x138F DUP2 DUP5 PUSH2 0x133C JUMP JUMPDEST SWAP1 POP SWAP3 SWAP2 POP POP JUMP INVALID LOG2 PUSH5 0x6970667358 0x22 SLT KECCAK256 RETURN 0xBD 0xBD 0xC8 0xEC GASLIMIT 0xE9 0xC SLT AND PUSH2 0x24C7 0xAB 0xC8 SDIV NOT 0xC4 0xD8 MSTORE8 DUP12 0x1F SWAP9 0xF MOD 0xAB 0xD3 SWAP16 OR 0xE4 0xA5 0xBB PUSH5 0x736F6C6343 STOP ADDMOD SLT STOP CALLER "},"methodIdentifiers":{"balances(address,address)":"c23f001f","deposit(address,uint256)":"47e7ef24","owner()":"8da5cb5b","takefee(address)":"1e89dfb6","totalfee(address)":"465ded82","withdraw(address,uint256)":"f3fef3a3"}}}}}