{"contracts/proxy.sol":{"Proxy_contract":{"abi":[{"inputs":[{"internalType":"address","name":"implementation","type":"address"},{"internalType":"address","name":"whodeploy","type":"address"}],"stateMutability":"nonpayable","type":"constructor"},{"stateMutability":"payable","type":"fallback"},{"inputs":[{"internalType":"address","name":"new_owner","type":"address"}],"name":"changeOwner","outputs":[],"stateMutability":"nonpayable","type":"function"},{"inputs":[],"name":"getOwner","outputs":[{"internalType":"address","name":"","type":"address"}],"stateMutability":"view","type":"function"},{"inputs":[{"internalType":"address","name":"implementation","type":"address"}],"name":"update","outputs":[],"stateMutability":"nonpayable","type":"function"},{"stateMutability":"payable","type":"receive"}],"evm":{"bytecode":{"linkReferences":{},"object":"60806040523480156200001157600080fd5b5060405162000c6738038062000c67833981810160405281019062000037919062000203565b6200005367363e07a1c7cf49cf60c01b6200015760201b60201c565b6200006f67efa6a12a37cf60a660c01b6200015760201b60201c565b6200008b679bbdf5840f83607a60c01b6200015760201b60201c565b620000d160017fb618d9d3acae9868efbd61e58009d02a18b4c68c820f7d374893e09cc600f2ce60001c620000c1919062000283565b60001b826200015a60201b60201c565b620000ed6794d520d2e2540d7e60c01b6200015760201b60201c565b62000109675b2207298004bf4260c01b6200015760201b60201c565b6200014f60017f360894a13ba1a3210667c828492db98dca3e2076cc3735a920a3ca505d382bbd60001c6200013f919062000283565b60001b836200015a60201b60201c565b5050620002be565b50565b62000176673bf0eb899936ed6760c01b6200015760201b60201c565b62000192679d6191d532b17a8e60c01b6200015760201b60201c565b8082555050565b600080fd5b600073ffffffffffffffffffffffffffffffffffffffff82169050919050565b6000620001cb826200019e565b9050919050565b620001dd81620001be565b8114620001e957600080fd5b50565b600081519050620001fd81620001d2565b92915050565b600080604083850312156200021d576200021c62000199565b5b60006200022d85828601620001ec565b92505060206200024085828601620001ec565b9150509250929050565b6000819050919050565b7f4e487b7100000000000000000000000000000000000000000000000000000000600052601160045260246000fd5b600062000290826200024a565b91506200029d836200024a565b9250828203905081811115620002b857620002b762000254565b5b92915050565b61099980620002ce6000396000f3fe6080604052600436106100385760003560e01c80631c1b8772146101ff578063893d20e814610228578063a6f9dae1146102535761003f565b3661003f57005b60003660606100586794d30a998e4615bc60c01b61027c565b61006c679f427ba19831257f60c01b61027c565b61008067326c6bcb1dc7067e60c01b61027c565b600061009667964c2ff879730df560c01b61027c565b6100d160017f360894a13ba1a3210667c828492db98dca3e2076cc3735a920a3ca505d382bbd60001c6100c9919061077a565b60001b61027f565b90506100e767406118bbe1f4c81e60c01b61027c565b6100fb67de829d45d620bc3160c01b61027c565b6000610111674a019424e2869ca460c01b61027c565b8173ffffffffffffffffffffffffffffffffffffffff1685856040516101389291906107ed565b600060405180830381855af49150503d8060008114610173576040519150601f19603f3d011682016040523d82523d6000602084013e610178565b606091505b508094508192505050610195677ccd2e16610b226f60c01b61027c565b6101a9677239e6c1431c2be160c01b61027c565b806101de576101c26718585803c3b7aacd60c01b61027c565b6101d66793f208b277c2350d60c01b61027c565b825160208401fd5b6101f267b41a1e64a793b07360c01b61027c565b5050915050805190602001f35b34801561020b57600080fd5b5061022660048036038101906102219190610869565b6102b2565b005b34801561023457600080fd5b5061023d6104a3565b60405161024a91906108a5565b60405180910390f35b34801561025f57600080fd5b5061027a60048036038101906102759190610869565b610521565b005b50565b600061029567798a90f79330b1a860c01b61027c565b6102a967d48997b6f8a77e5960c01b61027c565b81549050919050565b6102c6676ac3133b1153add760c01b61027c565b6102da67de312c3877e2b64560c01b61027c565b6102ee67ab205cb8dc87973860c01b61027c565b610302678cd77e4da31be0e260c01b61027c565b600061033f60017fb618d9d3acae9868efbd61e58009d02a18b4c68c820f7d374893e09cc600f2ce60001c610337919061077a565b60001b61027f565b90506103556708a9ac22bffe09cd60c01b61027c565b610369677644229d0154df6660c01b61027c565b61037d675bd779080dfa9b4a60c01b61027c565b8073ffffffffffffffffffffffffffffffffffffffff163373ffffffffffffffffffffffffffffffffffffffff16146103eb576040517f08c379a00000000000000000000000000000000000000000000000000000000081526004016103e290610943565b60405180910390fd5b6103ff6732a054f20ebe052260c01b61027c565b610413679af21d3e250369d360c01b61027c565b61042767fe57722adb7fe83a60c01b61027c565b61043b6726a03b71bb09efb260c01b61027c565b61044f6720247178a05d43d160c01b61027c565b61046367542d2f0609e8c73b60c01b61027c565b61049f60017f360894a13ba1a3210667c828492db98dca3e2076cc3735a920a3ca505d382bbd60001c610496919061077a565b60001b83610712565b5050565b60006104b967addfbf40a855b83560c01b61027c565b6104cd673eed37b21cc7841060c01b61027c565b6104e167178d63140ccb0c8c60c01b61027c565b61051c60017fb618d9d3acae9868efbd61e58009d02a18b4c68c820f7d374893e09cc600f2ce60001c610514919061077a565b60001b61027f565b905090565b610535672c1a6c46c12e07df60c01b61027c565b61054967de312c3877e2b64560c01b61027c565b61055d67ab205cb8dc87973860c01b61027c565b610571678cd77e4da31be0e260c01b61027c565b60006105ae60017fb618d9d3acae9868efbd61e58009d02a18b4c68c820f7d374893e09cc600f2ce60001c6105a6919061077a565b60001b61027f565b90506105c46708a9ac22bffe09cd60c01b61027c565b6105d8677644229d0154df6660c01b61027c565b6105ec675bd779080dfa9b4a60c01b61027c565b8073ffffffffffffffffffffffffffffffffffffffff163373ffffffffffffffffffffffffffffffffffffffff161461065a576040517f08c379a000000000000000000000000000000000000000000000000000000000815260040161065190610943565b60405180910390fd5b61066e6732a054f20ebe052260c01b61027c565b610682679af21d3e250369d360c01b61027c565b61069667a0327dc5503bc63760c01b61027c565b6106aa6780268e0e48a8868d60c01b61027c565b6106be67945cf222bf3f850660c01b61027c565b6106d267ca2355fca2b6b3de60c01b61027c565b61070e60017fb618d9d3acae9868efbd61e58009d02a18b4c68c820f7d374893e09cc600f2ce60001c610705919061077a565b60001b83610712565b5050565b610726673bf0eb899936ed6760c01b61027c565b61073a679d6191d532b17a8e60c01b61027c565b8082555050565b6000819050919050565b7f4e487b7100000000000000000000000000000000000000000000000000000000600052601160045260246000fd5b600061078582610741565b915061079083610741565b92508282039050818111156107a8576107a761074b565b5b92915050565b600081905092915050565b82818337600083830152505050565b60006107d483856107ae565b93506107e18385846107b9565b82840190509392505050565b60006107fa8284866107c8565b91508190509392505050565b600080fd5b600073ffffffffffffffffffffffffffffffffffffffff82169050919050565b60006108368261080b565b9050919050565b6108468161082b565b811461085157600080fd5b50565b6000813590506108638161083d565b92915050565b60006020828403121561087f5761087e610806565b5b600061088d84828501610854565b91505092915050565b61089f8161082b565b82525050565b60006020820190506108ba6000830184610896565b92915050565b600082825260208201905092915050565b7f4f6e6c79204f776e65722063616e2075736520746869732066756e6374696f6e60008201527f2e00000000000000000000000000000000000000000000000000000000000000602082015250565b600061092d6021836108c0565b9150610938826108d1565b604082019050919050565b6000602082019050818103600083015261095c81610920565b905091905056fea26469706673582212205ade4ffa7592742c62d4dc8e451352838d1dc2d1760498fbecc0dc3144e8685a64736f6c63430008120033","opcodes":"PUSH1 0x80 PUSH1 0x40 MSTORE CALLVALUE DUP1 ISZERO PUSH3 0x11 JUMPI PUSH1 0x0 DUP1 REVERT JUMPDEST POP PUSH1 0x40 MLOAD PUSH3 0xC67 CODESIZE SUB DUP1 PUSH3 0xC67 DUP4 CODECOPY DUP2 DUP2 ADD PUSH1 0x40 MSTORE DUP2 ADD SWAP1 PUSH3 0x37 SWAP2 SWAP1 PUSH3 0x203 JUMP JUMPDEST PUSH3 0x53 PUSH8 0x363E07A1C7CF49CF PUSH1 0xC0 SHL PUSH3 0x157 PUSH1 0x20 SHL PUSH1 0x20 SHR JUMP JUMPDEST PUSH3 0x6F PUSH8 0xEFA6A12A37CF60A6 PUSH1 0xC0 SHL PUSH3 0x157 PUSH1 0x20 SHL PUSH1 0x20 SHR JUMP JUMPDEST PUSH3 0x8B PUSH8 0x9BBDF5840F83607A PUSH1 0xC0 SHL PUSH3 0x157 PUSH1 0x20 SHL PUSH1 0x20 SHR JUMP JUMPDEST PUSH3 0xD1 PUSH1 0x1 PUSH32 0xB618D9D3ACAE9868EFBD61E58009D02A18B4C68C820F7D374893E09CC600F2CE PUSH1 0x0 SHR PUSH3 0xC1 SWAP2 SWAP1 PUSH3 0x283 JUMP JUMPDEST PUSH1 0x0 SHL DUP3 PUSH3 0x15A PUSH1 0x20 SHL PUSH1 0x20 SHR JUMP JUMPDEST PUSH3 0xED PUSH8 0x94D520D2E2540D7E PUSH1 0xC0 SHL PUSH3 0x157 PUSH1 0x20 SHL PUSH1 0x20 SHR JUMP JUMPDEST PUSH3 0x109 PUSH8 0x5B2207298004BF42 PUSH1 0xC0 SHL PUSH3 0x157 PUSH1 0x20 SHL PUSH1 0x20 SHR JUMP JUMPDEST PUSH3 0x14F PUSH1 0x1 PUSH32 0x360894A13BA1A3210667C828492DB98DCA3E2076CC3735A920A3CA505D382BBD PUSH1 0x0 SHR PUSH3 0x13F SWAP2 SWAP1 PUSH3 0x283 JUMP JUMPDEST PUSH1 0x0 SHL DUP4 PUSH3 0x15A PUSH1 0x20 SHL PUSH1 0x20 SHR JUMP JUMPDEST POP POP PUSH3 0x2BE JUMP JUMPDEST POP JUMP JUMPDEST PUSH3 0x176 PUSH8 0x3BF0EB899936ED67 PUSH1 0xC0 SHL PUSH3 0x157 PUSH1 0x20 SHL PUSH1 0x20 SHR JUMP JUMPDEST PUSH3 0x192 PUSH8 0x9D6191D532B17A8E PUSH1 0xC0 SHL PUSH3 0x157 PUSH1 0x20 SHL PUSH1 0x20 SHR JUMP JUMPDEST DUP1 DUP3 SSTORE POP POP JUMP JUMPDEST PUSH1 0x0 DUP1 REVERT JUMPDEST PUSH1 0x0 PUSH20 0xFFFFFFFFFFFFFFFFFFFFFFFFFFFFFFFFFFFFFFFF DUP3 AND SWAP1 POP SWAP2 SWAP1 POP JUMP JUMPDEST PUSH1 0x0 PUSH3 0x1CB DUP3 PUSH3 0x19E JUMP JUMPDEST SWAP1 POP SWAP2 SWAP1 POP JUMP JUMPDEST PUSH3 0x1DD DUP2 PUSH3 0x1BE JUMP JUMPDEST DUP2 EQ PUSH3 0x1E9 JUMPI PUSH1 0x0 DUP1 REVERT JUMPDEST POP JUMP JUMPDEST PUSH1 0x0 DUP2 MLOAD SWAP1 POP PUSH3 0x1FD DUP2 PUSH3 0x1D2 JUMP JUMPDEST SWAP3 SWAP2 POP POP JUMP JUMPDEST PUSH1 0x0 DUP1 PUSH1 0x40 DUP4 DUP6 SUB SLT ISZERO PUSH3 0x21D JUMPI PUSH3 0x21C PUSH3 0x199 JUMP JUMPDEST JUMPDEST PUSH1 0x0 PUSH3 0x22D DUP6 DUP3 DUP7 ADD PUSH3 0x1EC JUMP JUMPDEST SWAP3 POP POP PUSH1 0x20 PUSH3 0x240 DUP6 DUP3 DUP7 ADD PUSH3 0x1EC JUMP JUMPDEST SWAP2 POP POP SWAP3 POP SWAP3 SWAP1 POP JUMP JUMPDEST PUSH1 0x0 DUP2 SWAP1 POP SWAP2 SWAP1 POP JUMP JUMPDEST PUSH32 0x4E487B7100000000000000000000000000000000000000000000000000000000 PUSH1 0x0 MSTORE PUSH1 0x11 PUSH1 0x4 MSTORE PUSH1 0x24 PUSH1 0x0 REVERT JUMPDEST PUSH1 0x0 PUSH3 0x290 DUP3 PUSH3 0x24A JUMP JUMPDEST SWAP2 POP PUSH3 0x29D DUP4 PUSH3 0x24A JUMP JUMPDEST SWAP3 POP DUP3 DUP3 SUB SWAP1 POP DUP2 DUP2 GT ISZERO PUSH3 0x2B8 JUMPI PUSH3 0x2B7 PUSH3 0x254 JUMP JUMPDEST JUMPDEST SWAP3 SWAP2 POP POP JUMP JUMPDEST PUSH2 0x999 DUP1 PUSH3 0x2CE PUSH1 0x0 CODECOPY PUSH1 0x0 RETURN INVALID PUSH1 0x80 PUSH1 0x40 MSTORE PUSH1 0x4 CALLDATASIZE LT PUSH2 0x38 JUMPI PUSH1 0x0 CALLDATALOAD PUSH1 0xE0 SHR DUP1 PUSH4 0x1C1B8772 EQ PUSH2 0x1FF JUMPI DUP1 PUSH4 0x893D20E8 EQ PUSH2 0x228 JUMPI DUP1 PUSH4 0xA6F9DAE1 EQ PUSH2 0x253 JUMPI PUSH2 0x3F JUMP JUMPDEST CALLDATASIZE PUSH2 0x3F JUMPI STOP JUMPDEST PUSH1 0x0 CALLDATASIZE PUSH1 0x60 PUSH2 0x58 PUSH8 0x94D30A998E4615BC PUSH1 0xC0 SHL PUSH2 0x27C JUMP JUMPDEST PUSH2 0x6C PUSH8 0x9F427BA19831257F PUSH1 0xC0 SHL PUSH2 0x27C JUMP JUMPDEST PUSH2 0x80 PUSH8 0x326C6BCB1DC7067E PUSH1 0xC0 SHL PUSH2 0x27C JUMP JUMPDEST PUSH1 0x0 PUSH2 0x96 PUSH8 0x964C2FF879730DF5 PUSH1 0xC0 SHL PUSH2 0x27C JUMP JUMPDEST PUSH2 0xD1 PUSH1 0x1 PUSH32 0x360894A13BA1A3210667C828492DB98DCA3E2076CC3735A920A3CA505D382BBD PUSH1 0x0 SHR PUSH2 0xC9 SWAP2 SWAP1 PUSH2 0x77A JUMP JUMPDEST PUSH1 0x0 SHL PUSH2 0x27F JUMP JUMPDEST SWAP1 POP PUSH2 0xE7 PUSH8 0x406118BBE1F4C81E PUSH1 0xC0 SHL PUSH2 0x27C JUMP JUMPDEST PUSH2 0xFB PUSH8 0xDE829D45D620BC31 PUSH1 0xC0 SHL PUSH2 0x27C JUMP JUMPDEST PUSH1 0x0 PUSH2 0x111 PUSH8 0x4A019424E2869CA4 PUSH1 0xC0 SHL PUSH2 0x27C JUMP JUMPDEST DUP2 PUSH20 0xFFFFFFFFFFFFFFFFFFFFFFFFFFFFFFFFFFFFFFFF AND DUP6 DUP6 PUSH1 0x40 MLOAD PUSH2 0x138 SWAP3 SWAP2 SWAP1 PUSH2 0x7ED JUMP JUMPDEST PUSH1 0x0 PUSH1 0x40 MLOAD DUP1 DUP4 SUB DUP2 DUP6 GAS DELEGATECALL SWAP2 POP POP RETURNDATASIZE DUP1 PUSH1 0x0 DUP2 EQ PUSH2 0x173 JUMPI PUSH1 0x40 MLOAD SWAP2 POP PUSH1 0x1F NOT PUSH1 0x3F RETURNDATASIZE ADD AND DUP3 ADD PUSH1 0x40 MSTORE RETURNDATASIZE DUP3 MSTORE RETURNDATASIZE PUSH1 0x0 PUSH1 0x20 DUP5 ADD RETURNDATACOPY PUSH2 0x178 JUMP JUMPDEST PUSH1 0x60 SWAP2 POP JUMPDEST POP DUP1 SWAP5 POP DUP2 SWAP3 POP POP POP PUSH2 0x195 PUSH8 0x7CCD2E16610B226F PUSH1 0xC0 SHL PUSH2 0x27C JUMP JUMPDEST PUSH2 0x1A9 PUSH8 0x7239E6C1431C2BE1 PUSH1 0xC0 SHL PUSH2 0x27C JUMP JUMPDEST DUP1 PUSH2 0x1DE JUMPI PUSH2 0x1C2 PUSH8 0x18585803C3B7AACD PUSH1 0xC0 SHL PUSH2 0x27C JUMP JUMPDEST PUSH2 0x1D6 PUSH8 0x93F208B277C2350D PUSH1 0xC0 SHL PUSH2 0x27C JUMP JUMPDEST DUP3 MLOAD PUSH1 0x20 DUP5 ADD REVERT JUMPDEST PUSH2 0x1F2 PUSH8 0xB41A1E64A793B073 PUSH1 0xC0 SHL PUSH2 0x27C JUMP JUMPDEST POP POP SWAP2 POP POP DUP1 MLOAD SWAP1 PUSH1 0x20 ADD RETURN JUMPDEST CALLVALUE DUP1 ISZERO PUSH2 0x20B JUMPI PUSH1 0x0 DUP1 REVERT JUMPDEST POP PUSH2 0x226 PUSH1 0x4 DUP1 CALLDATASIZE SUB DUP2 ADD SWAP1 PUSH2 0x221 SWAP2 SWAP1 PUSH2 0x869 JUMP JUMPDEST PUSH2 0x2B2 JUMP JUMPDEST STOP JUMPDEST CALLVALUE DUP1 ISZERO PUSH2 0x234 JUMPI PUSH1 0x0 DUP1 REVERT JUMPDEST POP PUSH2 0x23D PUSH2 0x4A3 JUMP JUMPDEST PUSH1 0x40 MLOAD PUSH2 0x24A SWAP2 SWAP1 PUSH2 0x8A5 JUMP JUMPDEST PUSH1 0x40 MLOAD DUP1 SWAP2 SUB SWAP1 RETURN JUMPDEST CALLVALUE DUP1 ISZERO PUSH2 0x25F JUMPI PUSH1 0x0 DUP1 REVERT JUMPDEST POP PUSH2 0x27A PUSH1 0x4 DUP1 CALLDATASIZE SUB DUP2 ADD SWAP1 PUSH2 0x275 SWAP2 SWAP1 PUSH2 0x869 JUMP JUMPDEST PUSH2 0x521 JUMP JUMPDEST STOP JUMPDEST POP JUMP JUMPDEST PUSH1 0x0 PUSH2 0x295 PUSH8 0x798A90F79330B1A8 PUSH1 0xC0 SHL PUSH2 0x27C JUMP JUMPDEST PUSH2 0x2A9 PUSH8 0xD48997B6F8A77E59 PUSH1 0xC0 SHL PUSH2 0x27C JUMP JUMPDEST DUP2 SLOAD SWAP1 POP SWAP2 SWAP1 POP JUMP JUMPDEST PUSH2 0x2C6 PUSH8 0x6AC3133B1153ADD7 PUSH1 0xC0 SHL PUSH2 0x27C JUMP JUMPDEST PUSH2 0x2DA PUSH8 0xDE312C3877E2B645 PUSH1 0xC0 SHL PUSH2 0x27C JUMP JUMPDEST PUSH2 0x2EE PUSH8 0xAB205CB8DC879738 PUSH1 0xC0 SHL PUSH2 0x27C JUMP JUMPDEST PUSH2 0x302 PUSH8 0x8CD77E4DA31BE0E2 PUSH1 0xC0 SHL PUSH2 0x27C JUMP JUMPDEST PUSH1 0x0 PUSH2 0x33F PUSH1 0x1 PUSH32 0xB618D9D3ACAE9868EFBD61E58009D02A18B4C68C820F7D374893E09CC600F2CE PUSH1 0x0 SHR PUSH2 0x337 SWAP2 SWAP1 PUSH2 0x77A JUMP JUMPDEST PUSH1 0x0 SHL PUSH2 0x27F JUMP JUMPDEST SWAP1 POP PUSH2 0x355 PUSH8 0x8A9AC22BFFE09CD PUSH1 0xC0 SHL PUSH2 0x27C JUMP JUMPDEST PUSH2 0x369 PUSH8 0x7644229D0154DF66 PUSH1 0xC0 SHL PUSH2 0x27C JUMP JUMPDEST PUSH2 0x37D PUSH8 0x5BD779080DFA9B4A PUSH1 0xC0 SHL PUSH2 0x27C JUMP JUMPDEST DUP1 PUSH20 0xFFFFFFFFFFFFFFFFFFFFFFFFFFFFFFFFFFFFFFFF AND CALLER PUSH20 0xFFFFFFFFFFFFFFFFFFFFFFFFFFFFFFFFFFFFFFFF AND EQ PUSH2 0x3EB JUMPI PUSH1 0x40 MLOAD PUSH32 0x8C379A000000000000000000000000000000000000000000000000000000000 DUP2 MSTORE PUSH1 0x4 ADD PUSH2 0x3E2 SWAP1 PUSH2 0x943 JUMP JUMPDEST PUSH1 0x40 MLOAD DUP1 SWAP2 SUB SWAP1 REVERT JUMPDEST PUSH2 0x3FF PUSH8 0x32A054F20EBE0522 PUSH1 0xC0 SHL PUSH2 0x27C JUMP JUMPDEST PUSH2 0x413 PUSH8 0x9AF21D3E250369D3 PUSH1 0xC0 SHL PUSH2 0x27C JUMP JUMPDEST PUSH2 0x427 PUSH8 0xFE57722ADB7FE83A PUSH1 0xC0 SHL PUSH2 0x27C JUMP JUMPDEST PUSH2 0x43B PUSH8 0x26A03B71BB09EFB2 PUSH1 0xC0 SHL PUSH2 0x27C JUMP JUMPDEST PUSH2 0x44F PUSH8 0x20247178A05D43D1 PUSH1 0xC0 SHL PUSH2 0x27C JUMP JUMPDEST PUSH2 0x463 PUSH8 0x542D2F0609E8C73B PUSH1 0xC0 SHL PUSH2 0x27C JUMP JUMPDEST PUSH2 0x49F PUSH1 0x1 PUSH32 0x360894A13BA1A3210667C828492DB98DCA3E2076CC3735A920A3CA505D382BBD PUSH1 0x0 SHR PUSH2 0x496 SWAP2 SWAP1 PUSH2 0x77A JUMP JUMPDEST PUSH1 0x0 SHL DUP4 PUSH2 0x712 JUMP JUMPDEST POP POP JUMP JUMPDEST PUSH1 0x0 PUSH2 0x4B9 PUSH8 0xADDFBF40A855B835 PUSH1 0xC0 SHL PUSH2 0x27C JUMP JUMPDEST PUSH2 0x4CD PUSH8 0x3EED37B21CC78410 PUSH1 0xC0 SHL PUSH2 0x27C JUMP JUMPDEST PUSH2 0x4E1 PUSH8 0x178D63140CCB0C8C PUSH1 0xC0 SHL PUSH2 0x27C JUMP JUMPDEST PUSH2 0x51C PUSH1 0x1 PUSH32 0xB618D9D3ACAE9868EFBD61E58009D02A18B4C68C820F7D374893E09CC600F2CE PUSH1 0x0 SHR PUSH2 0x514 SWAP2 SWAP1 PUSH2 0x77A JUMP JUMPDEST PUSH1 0x0 SHL PUSH2 0x27F JUMP JUMPDEST SWAP1 POP SWAP1 JUMP JUMPDEST PUSH2 0x535 PUSH8 0x2C1A6C46C12E07DF PUSH1 0xC0 SHL PUSH2 0x27C JUMP JUMPDEST PUSH2 0x549 PUSH8 0xDE312C3877E2B645 PUSH1 0xC0 SHL PUSH2 0x27C JUMP JUMPDEST PUSH2 0x55D PUSH8 0xAB205CB8DC879738 PUSH1 0xC0 SHL PUSH2 0x27C JUMP JUMPDEST PUSH2 0x571 PUSH8 0x8CD77E4DA31BE0E2 PUSH1 0xC0 SHL PUSH2 0x27C JUMP JUMPDEST PUSH1 0x0 PUSH2 0x5AE PUSH1 0x1 PUSH32 0xB618D9D3ACAE9868EFBD61E58009D02A18B4C68C820F7D374893E09CC600F2CE PUSH1 0x0 SHR PUSH2 0x5A6 SWAP2 SWAP1 PUSH2 0x77A JUMP JUMPDEST PUSH1 0x0 SHL PUSH2 0x27F JUMP JUMPDEST SWAP1 POP PUSH2 0x5C4 PUSH8 0x8A9AC22BFFE09CD PUSH1 0xC0 SHL PUSH2 0x27C JUMP JUMPDEST PUSH2 0x5D8 PUSH8 0x7644229D0154DF66 PUSH1 0xC0 SHL PUSH2 0x27C JUMP JUMPDEST PUSH2 0x5EC PUSH8 0x5BD779080DFA9B4A PUSH1 0xC0 SHL PUSH2 0x27C JUMP JUMPDEST DUP1 PUSH20 0xFFFFFFFFFFFFFFFFFFFFFFFFFFFFFFFFFFFFFFFF AND CALLER PUSH20 0xFFFFFFFFFFFFFFFFFFFFFFFFFFFFFFFFFFFFFFFF AND EQ PUSH2 0x65A JUMPI PUSH1 0x40 MLOAD PUSH32 0x8C379A000000000000000000000000000000000000000000000000000000000 DUP2 MSTORE PUSH1 0x4 ADD PUSH2 0x651 SWAP1 PUSH2 0x943 JUMP JUMPDEST PUSH1 0x40 MLOAD DUP1 SWAP2 SUB SWAP1 REVERT JUMPDEST PUSH2 0x66E PUSH8 0x32A054F20EBE0522 PUSH1 0xC0 SHL PUSH2 0x27C JUMP JUMPDEST PUSH2 0x682 PUSH8 0x9AF21D3E250369D3 PUSH1 0xC0 SHL PUSH2 0x27C JUMP JUMPDEST PUSH2 0x696 PUSH8 0xA0327DC5503BC637 PUSH1 0xC0 SHL PUSH2 0x27C JUMP JUMPDEST PUSH2 0x6AA PUSH8 0x80268E0E48A8868D PUSH1 0xC0 SHL PUSH2 0x27C JUMP JUMPDEST PUSH2 0x6BE PUSH8 0x945CF222BF3F8506 PUSH1 0xC0 SHL PUSH2 0x27C JUMP JUMPDEST PUSH2 0x6D2 PUSH8 0xCA2355FCA2B6B3DE PUSH1 0xC0 SHL PUSH2 0x27C JUMP JUMPDEST PUSH2 0x70E PUSH1 0x1 PUSH32 0xB618D9D3ACAE9868EFBD61E58009D02A18B4C68C820F7D374893E09CC600F2CE PUSH1 0x0 SHR PUSH2 0x705 SWAP2 SWAP1 PUSH2 0x77A JUMP JUMPDEST PUSH1 0x0 SHL DUP4 PUSH2 0x712 JUMP JUMPDEST POP POP JUMP JUMPDEST PUSH2 0x726 PUSH8 0x3BF0EB899936ED67 PUSH1 0xC0 SHL PUSH2 0x27C JUMP JUMPDEST PUSH2 0x73A PUSH8 0x9D6191D532B17A8E PUSH1 0xC0 SHL PUSH2 0x27C JUMP JUMPDEST DUP1 DUP3 SSTORE POP POP JUMP JUMPDEST PUSH1 0x0 DUP2 SWAP1 POP SWAP2 SWAP1 POP JUMP JUMPDEST PUSH32 0x4E487B7100000000000000000000000000000000000000000000000000000000 PUSH1 0x0 MSTORE PUSH1 0x11 PUSH1 0x4 MSTORE PUSH1 0x24 PUSH1 0x0 REVERT JUMPDEST PUSH1 0x0 PUSH2 0x785 DUP3 PUSH2 0x741 JUMP JUMPDEST SWAP2 POP PUSH2 0x790 DUP4 PUSH2 0x741 JUMP JUMPDEST SWAP3 POP DUP3 DUP3 SUB SWAP1 POP DUP2 DUP2 GT ISZERO PUSH2 0x7A8 JUMPI PUSH2 0x7A7 PUSH2 0x74B JUMP JUMPDEST JUMPDEST SWAP3 SWAP2 POP POP JUMP JUMPDEST PUSH1 0x0 DUP2 SWAP1 POP SWAP3 SWAP2 POP POP JUMP JUMPDEST DUP3 DUP2 DUP4 CALLDATACOPY PUSH1 0x0 DUP4 DUP4 ADD MSTORE POP POP POP JUMP JUMPDEST PUSH1 0x0 PUSH2 0x7D4 DUP4 DUP6 PUSH2 0x7AE JUMP JUMPDEST SWAP4 POP PUSH2 0x7E1 DUP4 DUP6 DUP5 PUSH2 0x7B9 JUMP JUMPDEST DUP3 DUP5 ADD SWAP1 POP SWAP4 SWAP3 POP POP POP JUMP JUMPDEST PUSH1 0x0 PUSH2 0x7FA DUP3 DUP5 DUP7 PUSH2 0x7C8 JUMP JUMPDEST SWAP2 POP DUP2 SWAP1 POP SWAP4 SWAP3 POP POP POP JUMP JUMPDEST PUSH1 0x0 DUP1 REVERT JUMPDEST PUSH1 0x0 PUSH20 0xFFFFFFFFFFFFFFFFFFFFFFFFFFFFFFFFFFFFFFFF DUP3 AND SWAP1 POP SWAP2 SWAP1 POP JUMP JUMPDEST PUSH1 0x0 PUSH2 0x836 DUP3 PUSH2 0x80B JUMP JUMPDEST SWAP1 POP SWAP2 SWAP1 POP JUMP JUMPDEST PUSH2 0x846 DUP2 PUSH2 0x82B JUMP JUMPDEST DUP2 EQ PUSH2 0x851 JUMPI PUSH1 0x0 DUP1 REVERT JUMPDEST POP JUMP JUMPDEST PUSH1 0x0 DUP2 CALLDATALOAD SWAP1 POP PUSH2 0x863 DUP2 PUSH2 0x83D JUMP JUMPDEST SWAP3 SWAP2 POP POP JUMP JUMPDEST PUSH1 0x0 PUSH1 0x20 DUP3 DUP5 SUB SLT ISZERO PUSH2 0x87F JUMPI PUSH2 0x87E PUSH2 0x806 JUMP JUMPDEST JUMPDEST PUSH1 0x0 PUSH2 0x88D DUP5 DUP3 DUP6 ADD PUSH2 0x854 JUMP JUMPDEST SWAP2 POP POP SWAP3 SWAP2 POP POP JUMP JUMPDEST PUSH2 0x89F DUP2 PUSH2 0x82B JUMP JUMPDEST DUP3 MSTORE POP POP JUMP JUMPDEST PUSH1 0x0 PUSH1 0x20 DUP3 ADD SWAP1 POP PUSH2 0x8BA PUSH1 0x0 DUP4 ADD DUP5 PUSH2 0x896 JUMP JUMPDEST SWAP3 SWAP2 POP POP JUMP JUMPDEST PUSH1 0x0 DUP3 DUP3 MSTORE PUSH1 0x20 DUP3 ADD SWAP1 POP SWAP3 SWAP2 POP POP JUMP JUMPDEST PUSH32 0x4F6E6C79204F776E65722063616E2075736520746869732066756E6374696F6E PUSH1 0x0 DUP3 ADD MSTORE PUSH32 0x2E00000000000000000000000000000000000000000000000000000000000000 PUSH1 0x20 DUP3 ADD MSTORE POP JUMP JUMPDEST PUSH1 0x0 PUSH2 0x92D PUSH1 0x21 DUP4 PUSH2 0x8C0 JUMP JUMPDEST SWAP2 POP PUSH2 0x938 DUP3 PUSH2 0x8D1 JUMP JUMPDEST PUSH1 0x40 DUP3 ADD SWAP1 POP SWAP2 SWAP1 POP JUMP JUMPDEST PUSH1 0x0 PUSH1 0x20 DUP3 ADD SWAP1 POP DUP2 DUP2 SUB PUSH1 0x0 DUP4 ADD MSTORE PUSH2 0x95C DUP2 PUSH2 0x920 JUMP JUMPDEST SWAP1 POP SWAP2 SWAP1 POP JUMP INVALID LOG2 PUSH5 0x6970667358 0x22 SLT KECCAK256 GAS 0xDE 0x4F STATICCALL PUSH22 0x92742C62D4DC8E451352838D1DC2D1760498FBECC0DC BALANCE PREVRANDAO 0xE8 PUSH9 0x5A64736F6C63430008 SLT STOP CALLER "},"methodIdentifiers":{"changeOwner(address)":"a6f9dae1","getOwner()":"893d20e8","update(address)":"1c1b8772"}}}}}