{"contracts/SafeFactory.sol":{"SafeFactory":{"abi":[{"inputs":[{"internalType":"address","name":"implementation_","type":"address"}],"stateMutability":"nonpayable","type":"constructor"},{"inputs":[],"name":"contractAddr","outputs":[{"internalType":"address","name":"","type":"address"}],"stateMutability":"view","type":"function"},{"inputs":[],"name":"deploySafe","outputs":[],"stateMutability":"nonpayable","type":"function"},{"inputs":[],"name":"deploySafeProxy","outputs":[],"stateMutability":"nonpayable","type":"function"},{"inputs":[],"name":"getAddress","outputs":[{"internalType":"address","name":"","type":"address"}],"stateMutability":"view","type":"function"},{"inputs":[],"name":"implementation","outputs":[{"internalType":"address","name":"","type":"address"}],"stateMutability":"view","type":"function"},{"inputs":[],"name":"owner","outputs":[{"internalType":"address","name":"","type":"address"}],"stateMutability":"view","type":"function"},{"inputs":[{"internalType":"address","name":"newImp","type":"address"}],"name":"updateImplementation","outputs":[],"stateMutability":"nonpayable","type":"function"}],"evm":{"bytecode":{"linkReferences":{},"object":"608060405234801561001057600080fd5b5060405162002d6f38038062002d6f8339818101604052810190610034919061016f565b61004e674a5b5bffc7312c3a60c01b61010960201b60201c565b61006867b165cd485cd91fd960c01b61010960201b60201c565b80600160006101000a81548173ffffffffffffffffffffffffffffffffffffffff021916908373ffffffffffffffffffffffffffffffffffffffff1602179055506100c3670c9a6c61c478807f60c01b61010960201b60201c565b336000806101000a81548173ffffffffffffffffffffffffffffffffffffffff021916908373ffffffffffffffffffffffffffffffffffffffff1602179055505061019c565b50565b600080fd5b600073ffffffffffffffffffffffffffffffffffffffff82169050919050565b600061013c82610111565b9050919050565b61014c81610131565b811461015757600080fd5b50565b60008151905061016981610143565b92915050565b6000602082840312156101855761018461010c565b5b60006101938482850161015a565b91505092915050565b612bc380620001ac6000396000f3fe60806040523480156200001157600080fd5b5060043610620000885760003560e01c80635c60da1b11620000635780635c60da1b14620000f1578063644f7aac14620001135780638da5cb5b146200011f5780639a8787bf14620001415762000088565b8063025b22bc146200008d57806315a5d9d814620000ad57806338cc483114620000cf575b600080fd5b620000ab6004803603810190620000a59190620008be565b6200014d565b005b620000b7620002fe565b604051620000c6919062000901565b60405180910390f35b620000d962000324565b604051620000e8919062000901565b60405180910390f35b620000fb62000390565b6040516200010a919062000901565b60405180910390f35b6200011d620003b6565b005b62000129620005d0565b60405162000138919062000901565b60405180910390f35b6200014b620005f4565b005b6200016367fed3cb233e6bb33460c01b62000832565b620001796726c7004522a429fb60c01b62000835565b6200018f67df23a199d37c695b60c01b62000835565b620001a567bddaaf3812e5a25060c01b62000835565b620001bb674bdaf2107fa8fd6f60c01b62000835565b60008054906101000a900473ffffffffffffffffffffffffffffffffffffffff1673ffffffffffffffffffffffffffffffffffffffff163373ffffffffffffffffffffffffffffffffffffffff16146200024c576040517f08c379a00000000000000000000000000000000000000000000000000000000081526004016200024390620009a5565b60405180910390fd5b6200026267acf7d2992e2e72ff60c01b62000835565b6200027867643c8e338ba14e0660c01b62000835565b6200028e677084bb9a60dc58ef60c01b62000832565b620002a46726f8430e64ac8fb560c01b62000832565b620002ba67961d63195801daa560c01b62000832565b80600160006101000a81548173ffffffffffffffffffffffffffffffffffffffff021916908373ffffffffffffffffffffffffffffffffffffffff16021790555050565b600260009054906101000a900473ffffffffffffffffffffffffffffffffffffffff1681565b60006200033c67733d8d05d797aee260c01b62000832565b6200035267d89e4cdf02bd486360c01b62000832565b6200036867252d2b710bbdf67160c01b62000832565b600260009054906101000a900473ffffffffffffffffffffffffffffffffffffffff16905090565b600160009054906101000a900473ffffffffffffffffffffffffffffffffffffffff1681565b620003cc673e7a051677e6e4af60c01b62000832565b620003e26726c7004522a429fb60c01b62000835565b620003f867df23a199d37c695b60c01b62000835565b6200040e67bddaaf3812e5a25060c01b62000835565b62000424674bdaf2107fa8fd6f60c01b62000835565b60008054906101000a900473ffffffffffffffffffffffffffffffffffffffff1673ffffffffffffffffffffffffffffffffffffffff163373ffffffffffffffffffffffffffffffffffffffff1614620004b5576040517f08c379a0000000000000000000000000000000000000000000000000000000008152600401620004ac90620009a5565b60405180910390fd5b620004cb67acf7d2992e2e72ff60c01b62000835565b620004e167643c8e338ba14e0660c01b62000835565b620004f7678531abe5ada1ef9f60c01b62000832565b6200050d673ca90563b91601bd60c01b62000832565b6200052367e31e25e67f3ce46f60c01b62000832565b62000539675f9418bb4a9384d960c01b62000832565b6000336040516200054a9062000838565b62000556919062000901565b604051809103906000f08015801562000573573d6000803e3d6000fd5b5090506200058c6755b0fff0f19a2dcc60c01b62000832565b80600260006101000a81548173ffffffffffffffffffffffffffffffffffffffff021916908373ffffffffffffffffffffffffffffffffffffffff16021790555050565b60008054906101000a900473ffffffffffffffffffffffffffffffffffffffff1681565b6200060a677e4a1b9f5d67d37e60c01b62000832565b620006206726c7004522a429fb60c01b62000835565b6200063667df23a199d37c695b60c01b62000835565b6200064c67bddaaf3812e5a25060c01b62000835565b62000662674bdaf2107fa8fd6f60c01b62000835565b60008054906101000a900473ffffffffffffffffffffffffffffffffffffffff1673ffffffffffffffffffffffffffffffffffffffff163373ffffffffffffffffffffffffffffffffffffffff1614620006f3576040517f08c379a0000000000000000000000000000000000000000000000000000000008152600401620006ea90620009a5565b60405180910390fd5b6200070967acf7d2992e2e72ff60c01b62000835565b6200071f67643c8e338ba14e0660c01b62000835565b6200073567476cef40de561c8960c01b62000832565b6200074b67fe1949fc1ed48eda60c01b62000832565b620007616723d626f5c265589760c01b62000832565b6200077767345e5ab9ea11c35660c01b62000832565b6000600160009054906101000a900473ffffffffffffffffffffffffffffffffffffffff1633604051620007ab9062000846565b620007b8929190620009c7565b604051809103906000f080158015620007d5573d6000803e3d6000fd5b509050620007ee6775ae1eb660f5384560c01b62000832565b80600260006101000a81548173ffffffffffffffffffffffffffffffffffffffff021916908373ffffffffffffffffffffffffffffffffffffffff16021790555050565b50565b50565b61153280620009f583390190565b610c678062001f2783390190565b600080fd5b600073ffffffffffffffffffffffffffffffffffffffff82169050919050565b6000620008868262000859565b9050919050565b620008988162000879565b8114620008a457600080fd5b50565b600081359050620008b8816200088d565b92915050565b600060208284031215620008d757620008d662000854565b5b6000620008e784828501620008a7565b91505092915050565b620008fb8162000879565b82525050565b6000602082019050620009186000830184620008f0565b92915050565b600082825260208201905092915050565b7f4f6e6c79204f776e65722063616e2075736520746869732066756e6374696f6e60008201527f2e00000000000000000000000000000000000000000000000000000000000000602082015250565b60006200098d6021836200091e565b91506200099a826200092f565b604082019050919050565b60006020820190508181036000830152620009c0816200097e565b9050919050565b6000604082019050620009de6000830185620008f0565b620009ed6020830184620008f0565b939250505056fe60806040523480156200001157600080fd5b506040516200153238038062001532833981810160405281019062000037919062000123565b62000053676fc376605781402860c01b620000b660201b60201c565b6200006f6751405ecf13d3953260c01b620000b660201b60201c565b806000806101000a81548173ffffffffffffffffffffffffffffffffffffffff021916908373ffffffffffffffffffffffffffffffffffffffff1602179055505062000155565b50565b600080fd5b600073ffffffffffffffffffffffffffffffffffffffff82169050919050565b6000620000eb82620000be565b9050919050565b620000fd81620000de565b81146200010957600080fd5b50565b6000815190506200011d81620000f2565b92915050565b6000602082840312156200013c576200013b620000b9565b5b60006200014c848285016200010c565b91505092915050565b6113cd80620001656000396000f3fe608060405234801561001057600080fd5b50600436106100625760003560e01c80631e89dfb614610067578063465ded821461008357806347e7ef24146100b35780638da5cb5b146100cf578063c23f001f146100ed578063f3fef3a31461011d575b600080fd5b610081600480360381019061007c9190610cc4565b610139565b005b61009d60048036038101906100989190610cc4565b610389565b6040516100aa9190610d0a565b60405180910390f35b6100cd60048036038101906100c89190610d51565b6103a1565b005b6100d76106ca565b6040516100e49190610da0565b60405180910390f35b61010760048036038101906101029190610dbb565b6106ee565b6040516101149190610d0a565b60405180910390f35b61013760048036038101906101329190610d51565b610713565b005b61014d67c160147c5fe3880760c01b6108b8565b6101616726c7004522a429fb60c01b6108bb565b61017567df23a199d37c695b60c01b6108bb565b61018967bddaaf3812e5a25060c01b6108bb565b61019d674bdaf2107fa8fd6f60c01b6108bb565b60008054906101000a900473ffffffffffffffffffffffffffffffffffffffff1673ffffffffffffffffffffffffffffffffffffffff163373ffffffffffffffffffffffffffffffffffffffff161461022b576040517f08c379a000000000000000000000000000000000000000000000000000000000815260040161022290610e7e565b60405180910390fd5b61023f67acf7d2992e2e72ff60c01b6108bb565b61025367643c8e338ba14e0660c01b6108bb565b6102676715e44f716eb440d760c01b6108b8565b61027b67a45004c54bf3754f60c01b6108b8565b61028f6707602f9eaa77291760c01b6108b8565b6102a36713ce91dfaedeff6760c01b6108b8565b61032d60008054906101000a900473ffffffffffffffffffffffffffffffffffffffff16600260008473ffffffffffffffffffffffffffffffffffffffff1673ffffffffffffffffffffffffffffffffffffffff168152602001908152602001600020548373ffffffffffffffffffffffffffffffffffffffff166108be9092919063ffffffff16565b61034167279a44395b8d3c4360c01b6108b8565b6000600260008373ffffffffffffffffffffffffffffffffffffffff1673ffffffffffffffffffffffffffffffffffffffff1681526020019081526020016000208190555050565b60026020528060005260406000206000915090505481565b6103b5673957059f26f3feaa60c01b6108b8565b6103c96765fcac3f022f8e7d60c01b6108b8565b6103dd67b28cd1f14b1f549960c01b6108b8565b6103f167bfd3d8718f75efa560c01b6108b8565b60008111610434576040517f08c379a000000000000000000000000000000000000000000000000000000000815260040161042b90610eea565b60405180910390fd5b610448676e57b499be5879f560c01b6108b8565b61045c678c93488e93f7976460c01b6108b8565b61047067292a3aae12c9775460c01b6108b8565b6000610486676d47e79eefa720f460c01b6108b8565b61049a67f7777fcdcbbc37f160c01b6108b8565b6104c73330848673ffffffffffffffffffffffffffffffffffffffff16610944909392919063ffffffff16565b6104db67fa675e5278d5a30060c01b6108b8565b6104ef67e5ae6292417ebbe760c01b6108b8565b6103e882101561054d5761050d67b46ade4dd0f4be8260c01b6108b8565b61052167418cf1b3a2518d3f60c01b6108b8565b60019050610539675fb9e1c149346da660c01b6108b8565b6001826105469190610f39565b91506105b4565b6105616736f648fba366969460c01b6108b8565b61057567a666ea1911503dc860c01b6108b8565b612710600a836105859190610f6d565b61058f9190610fde565b90506105a5675069f69f6b6c338f60c01b6108b8565b80826105b19190610f39565b91505b6105c867e6e3ef71b83e928060c01b6108b8565b81600160003373ffffffffffffffffffffffffffffffffffffffff1673ffffffffffffffffffffffffffffffffffffffff16815260200190815260200160002060008573ffffffffffffffffffffffffffffffffffffffff1673ffffffffffffffffffffffffffffffffffffffff1681526020019081526020016000206000828254610654919061100f565b9250508190555061066f67e79723449f85aff560c01b6108b8565b80600260008573ffffffffffffffffffffffffffffffffffffffff1673ffffffffffffffffffffffffffffffffffffffff16815260200190815260200160002060008282546106be919061100f565b92505081905550505050565b60008054906101000a900473ffffffffffffffffffffffffffffffffffffffff1681565b6001602052816000526040600020602052806000526040600020600091509150505481565b6107276733d3c2e8537172ee60c01b6108b8565b61073b673cfe208a28d771c060c01b6108b8565b61074f67e9fff55a3ca2418c60c01b6108b8565b61076367873dd71f49b1d3fd60c01b6108b8565b600081116107a6576040517f08c379a000000000000000000000000000000000000000000000000000000000815260040161079d90610eea565b60405180910390fd5b6107ba67800f8a20ff0094d960c01b6108b8565b6107ce677194b66831fc688160c01b6108b8565b80600160003373ffffffffffffffffffffffffffffffffffffffff1673ffffffffffffffffffffffffffffffffffffffff16815260200190815260200160002060008473ffffffffffffffffffffffffffffffffffffffff1673ffffffffffffffffffffffffffffffffffffffff168152602001908152602001600020600082825461085a9190610f39565b9250508190555061087567a2eccc84988205c860c01b6108b8565b610889670735f7f3b946137460c01b6108b8565b6108b433828473ffffffffffffffffffffffffffffffffffffffff166108be9092919063ffffffff16565b5050565b50565b50565b61093f8363a9059cbb60e01b84846040516024016108dd929190611043565b604051602081830303815290604052907bffffffffffffffffffffffffffffffffffffffffffffffffffffffff19166020820180517bffffffffffffffffffffffffffffffffffffffffffffffffffffffff83818316178352505050506109cd565b505050565b6109c7846323b872dd60e01b8585856040516024016109659392919061106c565b604051602081830303815290604052907bffffffffffffffffffffffffffffffffffffffffffffffffffffffff19166020820180517bffffffffffffffffffffffffffffffffffffffffffffffffffffffff83818316178352505050506109cd565b50505050565b6000610a2f826040518060400160405280602081526020017f5361666545524332303a206c6f772d6c6576656c2063616c6c206661696c65648152508573ffffffffffffffffffffffffffffffffffffffff16610a949092919063ffffffff16565b9050600081511115610a8f5780806020019051810190610a4f91906110db565b610a8e576040517f08c379a0000000000000000000000000000000000000000000000000000000008152600401610a859061117a565b60405180910390fd5b5b505050565b6060610aa38484600085610aac565b90509392505050565b606082471015610af1576040517f08c379a0000000000000000000000000000000000000000000000000000000008152600401610ae89061120c565b60405180910390fd5b6000808673ffffffffffffffffffffffffffffffffffffffff168587604051610b1a919061129d565b60006040518083038185875af1925050503d8060008114610b57576040519150601f19603f3d011682016040523d82523d6000602084013e610b5c565b606091505b5091509150610b6d87838387610b79565b92505050949350505050565b60608315610bdb576000835103610bd357610b9385610bee565b610bd2576040517f08c379a0000000000000000000000000000000000000000000000000000000008152600401610bc990611300565b60405180910390fd5b5b829050610be6565b610be58383610c11565b5b949350505050565b6000808273ffffffffffffffffffffffffffffffffffffffff163b119050919050565b600082511115610c245781518083602001fd5b806040517f08c379a0000000000000000000000000000000000000000000000000000000008152600401610c589190611375565b60405180910390fd5b600080fd5b600073ffffffffffffffffffffffffffffffffffffffff82169050919050565b6000610c9182610c66565b9050919050565b610ca181610c86565b8114610cac57600080fd5b50565b600081359050610cbe81610c98565b92915050565b600060208284031215610cda57610cd9610c61565b5b6000610ce884828501610caf565b91505092915050565b6000819050919050565b610d0481610cf1565b82525050565b6000602082019050610d1f6000830184610cfb565b92915050565b610d2e81610cf1565b8114610d3957600080fd5b50565b600081359050610d4b81610d25565b92915050565b60008060408385031215610d6857610d67610c61565b5b6000610d7685828601610caf565b9250506020610d8785828601610d3c565b9150509250929050565b610d9a81610c86565b82525050565b6000602082019050610db56000830184610d91565b92915050565b60008060408385031215610dd257610dd1610c61565b5b6000610de085828601610caf565b9250506020610df185828601610caf565b9150509250929050565b600082825260208201905092915050565b7f4f6e6c79204f776e65722063616e2075736520746869732066756e6374696f6e60008201527f2e00000000000000000000000000000000000000000000000000000000000000602082015250565b6000610e68602183610dfb565b9150610e7382610e0c565b604082019050919050565b60006020820190508181036000830152610e9781610e5b565b9050919050565b7f416d6f756e742073686f756c64206265206c6172676572207468616e20302e00600082015250565b6000610ed4601f83610dfb565b9150610edf82610e9e565b602082019050919050565b60006020820190508181036000830152610f0381610ec7565b9050919050565b7f4e487b7100000000000000000000000000000000000000000000000000000000600052601160045260246000fd5b6000610f4482610cf1565b9150610f4f83610cf1565b9250828203905081811115610f6757610f66610f0a565b5b92915050565b6000610f7882610cf1565b9150610f8383610cf1565b9250828202610f9181610cf1565b91508282048414831517610fa857610fa7610f0a565b5b5092915050565b7f4e487b7100000000000000000000000000000000000000000000000000000000600052601260045260246000fd5b6000610fe982610cf1565b9150610ff483610cf1565b92508261100457611003610faf565b5b828204905092915050565b600061101a82610cf1565b915061102583610cf1565b925082820190508082111561103d5761103c610f0a565b5b92915050565b60006040820190506110586000830185610d91565b6110656020830184610cfb565b9392505050565b60006060820190506110816000830186610d91565b61108e6020830185610d91565b61109b6040830184610cfb565b949350505050565b60008115159050919050565b6110b8816110a3565b81146110c357600080fd5b50565b6000815190506110d5816110af565b92915050565b6000602082840312156110f1576110f0610c61565b5b60006110ff848285016110c6565b91505092915050565b7f5361666545524332303a204552433230206f7065726174696f6e20646964206e60008201527f6f74207375636365656400000000000000000000000000000000000000000000602082015250565b6000611164602a83610dfb565b915061116f82611108565b604082019050919050565b6000602082019050818103600083015261119381611157565b9050919050565b7f416464726573733a20696e73756666696369656e742062616c616e636520666f60008201527f722063616c6c0000000000000000000000000000000000000000000000000000602082015250565b60006111f6602683610dfb565b91506112018261119a565b604082019050919050565b60006020820190508181036000830152611225816111e9565b9050919050565b600081519050919050565b600081905092915050565b60005b83811015611260578082015181840152602081019050611245565b60008484015250505050565b60006112778261122c565b6112818185611237565b9350611291818560208601611242565b80840191505092915050565b60006112a9828461126c565b915081905092915050565b7f416464726573733a2063616c6c20746f206e6f6e2d636f6e7472616374000000600082015250565b60006112ea601d83610dfb565b91506112f5826112b4565b602082019050919050565b60006020820190508181036000830152611319816112dd565b9050919050565b600081519050919050565b6000601f19601f8301169050919050565b600061134782611320565b6113518185610dfb565b9350611361818560208601611242565b61136a8161132b565b840191505092915050565b6000602082019050818103600083015261138f818461133c565b90509291505056fea2646970667358221220f3bdbdc8ec45e90c12166124c7abc80519c4d8538b1f980f06abd39f17e4a5bb64736f6c6343000812003360806040523480156200001157600080fd5b5060405162000c6738038062000c67833981810160405281019062000037919062000203565b6200005367363e07a1c7cf49cf60c01b6200015760201b60201c565b6200006f67efa6a12a37cf60a660c01b6200015760201b60201c565b6200008b679bbdf5840f83607a60c01b6200015760201b60201c565b620000d160017fb618d9d3acae9868efbd61e58009d02a18b4c68c820f7d374893e09cc600f2ce60001c620000c1919062000283565b60001b826200015a60201b60201c565b620000ed6794d520d2e2540d7e60c01b6200015760201b60201c565b62000109675b2207298004bf4260c01b6200015760201b60201c565b6200014f60017f360894a13ba1a3210667c828492db98dca3e2076cc3735a920a3ca505d382bbd60001c6200013f919062000283565b60001b836200015a60201b60201c565b5050620002be565b50565b62000176673bf0eb899936ed6760c01b6200015760201b60201c565b62000192679d6191d532b17a8e60c01b6200015760201b60201c565b8082555050565b600080fd5b600073ffffffffffffffffffffffffffffffffffffffff82169050919050565b6000620001cb826200019e565b9050919050565b620001dd81620001be565b8114620001e957600080fd5b50565b600081519050620001fd81620001d2565b92915050565b600080604083850312156200021d576200021c62000199565b5b60006200022d85828601620001ec565b92505060206200024085828601620001ec565b9150509250929050565b6000819050919050565b7f4e487b7100000000000000000000000000000000000000000000000000000000600052601160045260246000fd5b600062000290826200024a565b91506200029d836200024a565b9250828203905081811115620002b857620002b762000254565b5b92915050565b61099980620002ce6000396000f3fe6080604052600436106100385760003560e01c80631c1b8772146101ff578063893d20e814610228578063a6f9dae1146102535761003f565b3661003f57005b60003660606100586794d30a998e4615bc60c01b61027c565b61006c679f427ba19831257f60c01b61027c565b61008067326c6bcb1dc7067e60c01b61027c565b600061009667964c2ff879730df560c01b61027c565b6100d160017f360894a13ba1a3210667c828492db98dca3e2076cc3735a920a3ca505d382bbd60001c6100c9919061077a565b60001b61027f565b90506100e767406118bbe1f4c81e60c01b61027c565b6100fb67de829d45d620bc3160c01b61027c565b6000610111674a019424e2869ca460c01b61027c565b8173ffffffffffffffffffffffffffffffffffffffff1685856040516101389291906107ed565b600060405180830381855af49150503d8060008114610173576040519150601f19603f3d011682016040523d82523d6000602084013e610178565b606091505b508094508192505050610195677ccd2e16610b226f60c01b61027c565b6101a9677239e6c1431c2be160c01b61027c565b806101de576101c26718585803c3b7aacd60c01b61027c565b6101d66793f208b277c2350d60c01b61027c565b825160208401fd5b6101f267b41a1e64a793b07360c01b61027c565b5050915050805190602001f35b34801561020b57600080fd5b5061022660048036038101906102219190610869565b6102b2565b005b34801561023457600080fd5b5061023d6104a3565b60405161024a91906108a5565b60405180910390f35b34801561025f57600080fd5b5061027a60048036038101906102759190610869565b610521565b005b50565b600061029567798a90f79330b1a860c01b61027c565b6102a967d48997b6f8a77e5960c01b61027c565b81549050919050565b6102c6676ac3133b1153add760c01b61027c565b6102da67de312c3877e2b64560c01b61027c565b6102ee67ab205cb8dc87973860c01b61027c565b610302678cd77e4da31be0e260c01b61027c565b600061033f60017fb618d9d3acae9868efbd61e58009d02a18b4c68c820f7d374893e09cc600f2ce60001c610337919061077a565b60001b61027f565b90506103556708a9ac22bffe09cd60c01b61027c565b610369677644229d0154df6660c01b61027c565b61037d675bd779080dfa9b4a60c01b61027c565b8073ffffffffffffffffffffffffffffffffffffffff163373ffffffffffffffffffffffffffffffffffffffff16146103eb576040517f08c379a00000000000000000000000000000000000000000000000000000000081526004016103e290610943565b60405180910390fd5b6103ff6732a054f20ebe052260c01b61027c565b610413679af21d3e250369d360c01b61027c565b61042767fe57722adb7fe83a60c01b61027c565b61043b6726a03b71bb09efb260c01b61027c565b61044f6720247178a05d43d160c01b61027c565b61046367542d2f0609e8c73b60c01b61027c565b61049f60017f360894a13ba1a3210667c828492db98dca3e2076cc3735a920a3ca505d382bbd60001c610496919061077a565b60001b83610712565b5050565b60006104b967addfbf40a855b83560c01b61027c565b6104cd673eed37b21cc7841060c01b61027c565b6104e167178d63140ccb0c8c60c01b61027c565b61051c60017fb618d9d3acae9868efbd61e58009d02a18b4c68c820f7d374893e09cc600f2ce60001c610514919061077a565b60001b61027f565b905090565b610535672c1a6c46c12e07df60c01b61027c565b61054967de312c3877e2b64560c01b61027c565b61055d67ab205cb8dc87973860c01b61027c565b610571678cd77e4da31be0e260c01b61027c565b60006105ae60017fb618d9d3acae9868efbd61e58009d02a18b4c68c820f7d374893e09cc600f2ce60001c6105a6919061077a565b60001b61027f565b90506105c46708a9ac22bffe09cd60c01b61027c565b6105d8677644229d0154df6660c01b61027c565b6105ec675bd779080dfa9b4a60c01b61027c565b8073ffffffffffffffffffffffffffffffffffffffff163373ffffffffffffffffffffffffffffffffffffffff161461065a576040517f08c379a000000000000000000000000000000000000000000000000000000000815260040161065190610943565b60405180910390fd5b61066e6732a054f20ebe052260c01b61027c565b610682679af21d3e250369d360c01b61027c565b61069667a0327dc5503bc63760c01b61027c565b6106aa6780268e0e48a8868d60c01b61027c565b6106be67945cf222bf3f850660c01b61027c565b6106d267ca2355fca2b6b3de60c01b61027c565b61070e60017fb618d9d3acae9868efbd61e58009d02a18b4c68c820f7d374893e09cc600f2ce60001c610705919061077a565b60001b83610712565b5050565b610726673bf0eb899936ed6760c01b61027c565b61073a679d6191d532b17a8e60c01b61027c565b8082555050565b6000819050919050565b7f4e487b7100000000000000000000000000000000000000000000000000000000600052601160045260246000fd5b600061078582610741565b915061079083610741565b92508282039050818111156107a8576107a761074b565b5b92915050565b600081905092915050565b82818337600083830152505050565b60006107d483856107ae565b93506107e18385846107b9565b82840190509392505050565b60006107fa8284866107c8565b91508190509392505050565b600080fd5b600073ffffffffffffffffffffffffffffffffffffffff82169050919050565b60006108368261080b565b9050919050565b6108468161082b565b811461085157600080fd5b50565b6000813590506108638161083d565b92915050565b60006020828403121561087f5761087e610806565b5b600061088d84828501610854565b91505092915050565b61089f8161082b565b82525050565b60006020820190506108ba6000830184610896565b92915050565b600082825260208201905092915050565b7f4f6e6c79204f776e65722063616e2075736520746869732066756e6374696f6e60008201527f2e00000000000000000000000000000000000000000000000000000000000000602082015250565b600061092d6021836108c0565b9150610938826108d1565b604082019050919050565b6000602082019050818103600083015261095c81610920565b905091905056fea26469706673582212205ade4ffa7592742c62d4dc8e451352838d1dc2d1760498fbecc0dc3144e8685a64736f6c63430008120033a26469706673582212206dca1c197dbbe50986c740b38edf7a10b6632f39536703205f288db751054cdd64736f6c63430008120033","opcodes":"PUSH1 0x80 PUSH1 0x40 MSTORE CALLVALUE DUP1 ISZERO PUSH2 0x10 JUMPI PUSH1 0x0 DUP1 REVERT JUMPDEST POP PUSH1 0x40 MLOAD PUSH3 0x2D6F CODESIZE SUB DUP1 PUSH3 0x2D6F DUP4 CODECOPY DUP2 DUP2 ADD PUSH1 0x40 MSTORE DUP2 ADD SWAP1 PUSH2 0x34 SWAP2 SWAP1 PUSH2 0x16F JUMP JUMPDEST PUSH2 0x4E PUSH8 0x4A5B5BFFC7312C3A PUSH1 0xC0 SHL PUSH2 0x109 PUSH1 0x20 SHL PUSH1 0x20 SHR JUMP JUMPDEST PUSH2 0x68 PUSH8 0xB165CD485CD91FD9 PUSH1 0xC0 SHL PUSH2 0x109 PUSH1 0x20 SHL PUSH1 0x20 SHR JUMP JUMPDEST DUP1 PUSH1 0x1 PUSH1 0x0 PUSH2 0x100 EXP DUP2 SLOAD DUP2 PUSH20 0xFFFFFFFFFFFFFFFFFFFFFFFFFFFFFFFFFFFFFFFF MUL NOT AND SWAP1 DUP4 PUSH20 0xFFFFFFFFFFFFFFFFFFFFFFFFFFFFFFFFFFFFFFFF AND MUL OR SWAP1 SSTORE POP PUSH2 0xC3 PUSH8 0xC9A6C61C478807F PUSH1 0xC0 SHL PUSH2 0x109 PUSH1 0x20 SHL PUSH1 0x20 SHR JUMP JUMPDEST CALLER PUSH1 0x0 DUP1 PUSH2 0x100 EXP DUP2 SLOAD DUP2 PUSH20 0xFFFFFFFFFFFFFFFFFFFFFFFFFFFFFFFFFFFFFFFF MUL NOT AND SWAP1 DUP4 PUSH20 0xFFFFFFFFFFFFFFFFFFFFFFFFFFFFFFFFFFFFFFFF AND MUL OR SWAP1 SSTORE POP POP PUSH2 0x19C JUMP JUMPDEST POP JUMP JUMPDEST PUSH1 0x0 DUP1 REVERT JUMPDEST PUSH1 0x0 PUSH20 0xFFFFFFFFFFFFFFFFFFFFFFFFFFFFFFFFFFFFFFFF DUP3 AND SWAP1 POP SWAP2 SWAP1 POP JUMP JUMPDEST PUSH1 0x0 PUSH2 0x13C DUP3 PUSH2 0x111 JUMP JUMPDEST SWAP1 POP SWAP2 SWAP1 POP JUMP JUMPDEST PUSH2 0x14C DUP2 PUSH2 0x131 JUMP JUMPDEST DUP2 EQ PUSH2 0x157 JUMPI PUSH1 0x0 DUP1 REVERT JUMPDEST POP JUMP JUMPDEST PUSH1 0x0 DUP2 MLOAD SWAP1 POP PUSH2 0x169 DUP2 PUSH2 0x143 JUMP JUMPDEST SWAP3 SWAP2 POP POP JUMP JUMPDEST PUSH1 0x0 PUSH1 0x20 DUP3 DUP5 SUB SLT ISZERO PUSH2 0x185 JUMPI PUSH2 0x184 PUSH2 0x10C JUMP JUMPDEST JUMPDEST PUSH1 0x0 PUSH2 0x193 DUP5 DUP3 DUP6 ADD PUSH2 0x15A JUMP JUMPDEST SWAP2 POP POP SWAP3 SWAP2 POP POP JUMP JUMPDEST PUSH2 0x2BC3 DUP1 PUSH3 0x1AC PUSH1 0x0 CODECOPY PUSH1 0x0 RETURN INVALID PUSH1 0x80 PUSH1 0x40 MSTORE CALLVALUE DUP1 ISZERO PUSH3 0x11 JUMPI PUSH1 0x0 DUP1 REVERT JUMPDEST POP PUSH1 0x4 CALLDATASIZE LT PUSH3 0x88 JUMPI PUSH1 0x0 CALLDATALOAD PUSH1 0xE0 SHR DUP1 PUSH4 0x5C60DA1B GT PUSH3 0x63 JUMPI DUP1 PUSH4 0x5C60DA1B EQ PUSH3 0xF1 JUMPI DUP1 PUSH4 0x644F7AAC EQ PUSH3 0x113 JUMPI DUP1 PUSH4 0x8DA5CB5B EQ PUSH3 0x11F JUMPI DUP1 PUSH4 0x9A8787BF EQ PUSH3 0x141 JUMPI PUSH3 0x88 JUMP JUMPDEST DUP1 PUSH4 0x25B22BC EQ PUSH3 0x8D JUMPI DUP1 PUSH4 0x15A5D9D8 EQ PUSH3 0xAD JUMPI DUP1 PUSH4 0x38CC4831 EQ PUSH3 0xCF JUMPI JUMPDEST PUSH1 0x0 DUP1 REVERT JUMPDEST PUSH3 0xAB PUSH1 0x4 DUP1 CALLDATASIZE SUB DUP2 ADD SWAP1 PUSH3 0xA5 SWAP2 SWAP1 PUSH3 0x8BE JUMP JUMPDEST PUSH3 0x14D JUMP JUMPDEST STOP JUMPDEST PUSH3 0xB7 PUSH3 0x2FE JUMP JUMPDEST PUSH1 0x40 MLOAD PUSH3 0xC6 SWAP2 SWAP1 PUSH3 0x901 JUMP JUMPDEST PUSH1 0x40 MLOAD DUP1 SWAP2 SUB SWAP1 RETURN JUMPDEST PUSH3 0xD9 PUSH3 0x324 JUMP JUMPDEST PUSH1 0x40 MLOAD PUSH3 0xE8 SWAP2 SWAP1 PUSH3 0x901 JUMP JUMPDEST PUSH1 0x40 MLOAD DUP1 SWAP2 SUB SWAP1 RETURN JUMPDEST PUSH3 0xFB PUSH3 0x390 JUMP JUMPDEST PUSH1 0x40 MLOAD PUSH3 0x10A SWAP2 SWAP1 PUSH3 0x901 JUMP JUMPDEST PUSH1 0x40 MLOAD DUP1 SWAP2 SUB SWAP1 RETURN JUMPDEST PUSH3 0x11D PUSH3 0x3B6 JUMP JUMPDEST STOP JUMPDEST PUSH3 0x129 PUSH3 0x5D0 JUMP JUMPDEST PUSH1 0x40 MLOAD PUSH3 0x138 SWAP2 SWAP1 PUSH3 0x901 JUMP JUMPDEST PUSH1 0x40 MLOAD DUP1 SWAP2 SUB SWAP1 RETURN JUMPDEST PUSH3 0x14B PUSH3 0x5F4 JUMP JUMPDEST STOP JUMPDEST PUSH3 0x163 PUSH8 0xFED3CB233E6BB334 PUSH1 0xC0 SHL PUSH3 0x832 JUMP JUMPDEST PUSH3 0x179 PUSH8 0x26C7004522A429FB PUSH1 0xC0 SHL PUSH3 0x835 JUMP JUMPDEST PUSH3 0x18F PUSH8 0xDF23A199D37C695B PUSH1 0xC0 SHL PUSH3 0x835 JUMP JUMPDEST PUSH3 0x1A5 PUSH8 0xBDDAAF3812E5A250 PUSH1 0xC0 SHL PUSH3 0x835 JUMP JUMPDEST PUSH3 0x1BB PUSH8 0x4BDAF2107FA8FD6F PUSH1 0xC0 SHL PUSH3 0x835 JUMP JUMPDEST PUSH1 0x0 DUP1 SLOAD SWAP1 PUSH2 0x100 EXP SWAP1 DIV PUSH20 0xFFFFFFFFFFFFFFFFFFFFFFFFFFFFFFFFFFFFFFFF AND PUSH20 0xFFFFFFFFFFFFFFFFFFFFFFFFFFFFFFFFFFFFFFFF AND CALLER PUSH20 0xFFFFFFFFFFFFFFFFFFFFFFFFFFFFFFFFFFFFFFFF AND EQ PUSH3 0x24C JUMPI PUSH1 0x40 MLOAD PUSH32 0x8C379A000000000000000000000000000000000000000000000000000000000 DUP2 MSTORE PUSH1 0x4 ADD PUSH3 0x243 SWAP1 PUSH3 0x9A5 JUMP JUMPDEST PUSH1 0x40 MLOAD DUP1 SWAP2 SUB SWAP1 REVERT JUMPDEST PUSH3 0x262 PUSH8 0xACF7D2992E2E72FF PUSH1 0xC0 SHL PUSH3 0x835 JUMP JUMPDEST PUSH3 0x278 PUSH8 0x643C8E338BA14E06 PUSH1 0xC0 SHL PUSH3 0x835 JUMP JUMPDEST PUSH3 0x28E PUSH8 0x7084BB9A60DC58EF PUSH1 0xC0 SHL PUSH3 0x832 JUMP JUMPDEST PUSH3 0x2A4 PUSH8 0x26F8430E64AC8FB5 PUSH1 0xC0 SHL PUSH3 0x832 JUMP JUMPDEST PUSH3 0x2BA PUSH8 0x961D63195801DAA5 PUSH1 0xC0 SHL PUSH3 0x832 JUMP JUMPDEST DUP1 PUSH1 0x1 PUSH1 0x0 PUSH2 0x100 EXP DUP2 SLOAD DUP2 PUSH20 0xFFFFFFFFFFFFFFFFFFFFFFFFFFFFFFFFFFFFFFFF MUL NOT AND SWAP1 DUP4 PUSH20 0xFFFFFFFFFFFFFFFFFFFFFFFFFFFFFFFFFFFFFFFF AND MUL OR SWAP1 SSTORE POP POP JUMP JUMPDEST PUSH1 0x2 PUSH1 0x0 SWAP1 SLOAD SWAP1 PUSH2 0x100 EXP SWAP1 DIV PUSH20 0xFFFFFFFFFFFFFFFFFFFFFFFFFFFFFFFFFFFFFFFF AND DUP2 JUMP JUMPDEST PUSH1 0x0 PUSH3 0x33C PUSH8 0x733D8D05D797AEE2 PUSH1 0xC0 SHL PUSH3 0x832 JUMP JUMPDEST PUSH3 0x352 PUSH8 0xD89E4CDF02BD4863 PUSH1 0xC0 SHL PUSH3 0x832 JUMP JUMPDEST PUSH3 0x368 PUSH8 0x252D2B710BBDF671 PUSH1 0xC0 SHL PUSH3 0x832 JUMP JUMPDEST PUSH1 0x2 PUSH1 0x0 SWAP1 SLOAD SWAP1 PUSH2 0x100 EXP SWAP1 DIV PUSH20 0xFFFFFFFFFFFFFFFFFFFFFFFFFFFFFFFFFFFFFFFF AND SWAP1 POP SWAP1 JUMP JUMPDEST PUSH1 0x1 PUSH1 0x0 SWAP1 SLOAD SWAP1 PUSH2 0x100 EXP SWAP1 DIV PUSH20 0xFFFFFFFFFFFFFFFFFFFFFFFFFFFFFFFFFFFFFFFF AND DUP2 JUMP JUMPDEST PUSH3 0x3CC PUSH8 0x3E7A051677E6E4AF PUSH1 0xC0 SHL PUSH3 0x832 JUMP JUMPDEST PUSH3 0x3E2 PUSH8 0x26C7004522A429FB PUSH1 0xC0 SHL PUSH3 0x835 JUMP JUMPDEST PUSH3 0x3F8 PUSH8 0xDF23A199D37C695B PUSH1 0xC0 SHL PUSH3 0x835 JUMP JUMPDEST PUSH3 0x40E PUSH8 0xBDDAAF3812E5A250 PUSH1 0xC0 SHL PUSH3 0x835 JUMP JUMPDEST PUSH3 0x424 PUSH8 0x4BDAF2107FA8FD6F PUSH1 0xC0 SHL PUSH3 0x835 JUMP JUMPDEST PUSH1 0x0 DUP1 SLOAD SWAP1 PUSH2 0x100 EXP SWAP1 DIV PUSH20 0xFFFFFFFFFFFFFFFFFFFFFFFFFFFFFFFFFFFFFFFF AND PUSH20 0xFFFFFFFFFFFFFFFFFFFFFFFFFFFFFFFFFFFFFFFF AND CALLER PUSH20 0xFFFFFFFFFFFFFFFFFFFFFFFFFFFFFFFFFFFFFFFF AND EQ PUSH3 0x4B5 JUMPI PUSH1 0x40 MLOAD PUSH32 0x8C379A000000000000000000000000000000000000000000000000000000000 DUP2 MSTORE PUSH1 0x4 ADD PUSH3 0x4AC SWAP1 PUSH3 0x9A5 JUMP JUMPDEST PUSH1 0x40 MLOAD DUP1 SWAP2 SUB SWAP1 REVERT JUMPDEST PUSH3 0x4CB PUSH8 0xACF7D2992E2E72FF PUSH1 0xC0 SHL PUSH3 0x835 JUMP JUMPDEST PUSH3 0x4E1 PUSH8 0x643C8E338BA14E06 PUSH1 0xC0 SHL PUSH3 0x835 JUMP JUMPDEST PUSH3 0x4F7 PUSH8 0x8531ABE5ADA1EF9F PUSH1 0xC0 SHL PUSH3 0x832 JUMP JUMPDEST PUSH3 0x50D PUSH8 0x3CA90563B91601BD PUSH1 0xC0 SHL PUSH3 0x832 JUMP JUMPDEST PUSH3 0x523 PUSH8 0xE31E25E67F3CE46F PUSH1 0xC0 SHL PUSH3 0x832 JUMP JUMPDEST PUSH3 0x539 PUSH8 0x5F9418BB4A9384D9 PUSH1 0xC0 SHL PUSH3 0x832 JUMP JUMPDEST PUSH1 0x0 CALLER PUSH1 0x40 MLOAD PUSH3 0x54A SWAP1 PUSH3 0x838 JUMP JUMPDEST PUSH3 0x556 SWAP2 SWAP1 PUSH3 0x901 JUMP JUMPDEST PUSH1 0x40 MLOAD DUP1 SWAP2 SUB SWAP1 PUSH1 0x0 CREATE DUP1 ISZERO DUP1 ISZERO PUSH3 0x573 JUMPI RETURNDATASIZE PUSH1 0x0 DUP1 RETURNDATACOPY RETURNDATASIZE PUSH1 0x0 REVERT JUMPDEST POP SWAP1 POP PUSH3 0x58C PUSH8 0x55B0FFF0F19A2DCC PUSH1 0xC0 SHL PUSH3 0x832 JUMP JUMPDEST DUP1 PUSH1 0x2 PUSH1 0x0 PUSH2 0x100 EXP DUP2 SLOAD DUP2 PUSH20 0xFFFFFFFFFFFFFFFFFFFFFFFFFFFFFFFFFFFFFFFF MUL NOT AND SWAP1 DUP4 PUSH20 0xFFFFFFFFFFFFFFFFFFFFFFFFFFFFFFFFFFFFFFFF AND MUL OR SWAP1 SSTORE POP POP JUMP JUMPDEST PUSH1 0x0 DUP1 SLOAD SWAP1 PUSH2 0x100 EXP SWAP1 DIV PUSH20 0xFFFFFFFFFFFFFFFFFFFFFFFFFFFFFFFFFFFFFFFF AND DUP2 JUMP JUMPDEST PUSH3 0x60A PUSH8 0x7E4A1B9F5D67D37E PUSH1 0xC0 SHL PUSH3 0x832 JUMP JUMPDEST PUSH3 0x620 PUSH8 0x26C7004522A429FB PUSH1 0xC0 SHL PUSH3 0x835 JUMP JUMPDEST PUSH3 0x636 PUSH8 0xDF23A199D37C695B PUSH1 0xC0 SHL PUSH3 0x835 JUMP JUMPDEST PUSH3 0x64C PUSH8 0xBDDAAF3812E5A250 PUSH1 0xC0 SHL PUSH3 0x835 JUMP JUMPDEST PUSH3 0x662 PUSH8 0x4BDAF2107FA8FD6F PUSH1 0xC0 SHL PUSH3 0x835 JUMP JUMPDEST PUSH1 0x0 DUP1 SLOAD SWAP1 PUSH2 0x100 EXP SWAP1 DIV PUSH20 0xFFFFFFFFFFFFFFFFFFFFFFFFFFFFFFFFFFFFFFFF AND PUSH20 0xFFFFFFFFFFFFFFFFFFFFFFFFFFFFFFFFFFFFFFFF AND CALLER PUSH20 0xFFFFFFFFFFFFFFFFFFFFFFFFFFFFFFFFFFFFFFFF AND EQ PUSH3 0x6F3 JUMPI PUSH1 0x40 MLOAD PUSH32 0x8C379A000000000000000000000000000000000000000000000000000000000 DUP2 MSTORE PUSH1 0x4 ADD PUSH3 0x6EA SWAP1 PUSH3 0x9A5 JUMP JUMPDEST PUSH1 0x40 MLOAD DUP1 SWAP2 SUB SWAP1 REVERT JUMPDEST PUSH3 0x709 PUSH8 0xACF7D2992E2E72FF PUSH1 0xC0 SHL PUSH3 0x835 JUMP JUMPDEST PUSH3 0x71F PUSH8 0x643C8E338BA14E06 PUSH1 0xC0 SHL PUSH3 0x835 JUMP JUMPDEST PUSH3 0x735 PUSH8 0x476CEF40DE561C89 PUSH1 0xC0 SHL PUSH3 0x832 JUMP JUMPDEST PUSH3 0x74B PUSH8 0xFE1949FC1ED48EDA PUSH1 0xC0 SHL PUSH3 0x832 JUMP JUMPDEST PUSH3 0x761 PUSH8 0x23D626F5C2655897 PUSH1 0xC0 SHL PUSH3 0x832 JUMP JUMPDEST PUSH3 0x777 PUSH8 0x345E5AB9EA11C356 PUSH1 0xC0 SHL PUSH3 0x832 JUMP JUMPDEST PUSH1 0x0 PUSH1 0x1 PUSH1 0x0 SWAP1 SLOAD SWAP1 PUSH2 0x100 EXP SWAP1 DIV PUSH20 0xFFFFFFFFFFFFFFFFFFFFFFFFFFFFFFFFFFFFFFFF AND CALLER PUSH1 0x40 MLOAD PUSH3 0x7AB SWAP1 PUSH3 0x846 JUMP JUMPDEST PUSH3 0x7B8 SWAP3 SWAP2 SWAP1 PUSH3 0x9C7 JUMP JUMPDEST PUSH1 0x40 MLOAD DUP1 SWAP2 SUB SWAP1 PUSH1 0x0 CREATE DUP1 ISZERO DUP1 ISZERO PUSH3 0x7D5 JUMPI RETURNDATASIZE PUSH1 0x0 DUP1 RETURNDATACOPY RETURNDATASIZE PUSH1 0x0 REVERT JUMPDEST POP SWAP1 POP PUSH3 0x7EE PUSH8 0x75AE1EB660F53845 PUSH1 0xC0 SHL PUSH3 0x832 JUMP JUMPDEST DUP1 PUSH1 0x2 PUSH1 0x0 PUSH2 0x100 EXP DUP2 SLOAD DUP2 PUSH20 0xFFFFFFFFFFFFFFFFFFFFFFFFFFFFFFFFFFFFFFFF MUL NOT AND SWAP1 DUP4 PUSH20 0xFFFFFFFFFFFFFFFFFFFFFFFFFFFFFFFFFFFFFFFF AND MUL OR SWAP1 SSTORE POP POP JUMP JUMPDEST POP JUMP JUMPDEST POP JUMP JUMPDEST PUSH2 0x1532 DUP1 PUSH3 0x9F5 DUP4 CODECOPY ADD SWAP1 JUMP JUMPDEST PUSH2 0xC67 DUP1 PUSH3 0x1F27 DUP4 CODECOPY ADD SWAP1 JUMP JUMPDEST PUSH1 0x0 DUP1 REVERT JUMPDEST PUSH1 0x0 PUSH20 0xFFFFFFFFFFFFFFFFFFFFFFFFFFFFFFFFFFFFFFFF DUP3 AND SWAP1 POP SWAP2 SWAP1 POP JUMP JUMPDEST PUSH1 0x0 PUSH3 0x886 DUP3 PUSH3 0x859 JUMP JUMPDEST SWAP1 POP SWAP2 SWAP1 POP JUMP JUMPDEST PUSH3 0x898 DUP2 PUSH3 0x879 JUMP JUMPDEST DUP2 EQ PUSH3 0x8A4 JUMPI PUSH1 0x0 DUP1 REVERT JUMPDEST POP JUMP JUMPDEST PUSH1 0x0 DUP2 CALLDATALOAD SWAP1 POP PUSH3 0x8B8 DUP2 PUSH3 0x88D JUMP JUMPDEST SWAP3 SWAP2 POP POP JUMP JUMPDEST PUSH1 0x0 PUSH1 0x20 DUP3 DUP5 SUB SLT ISZERO PUSH3 0x8D7 JUMPI PUSH3 0x8D6 PUSH3 0x854 JUMP JUMPDEST JUMPDEST PUSH1 0x0 PUSH3 0x8E7 DUP5 DUP3 DUP6 ADD PUSH3 0x8A7 JUMP JUMPDEST SWAP2 POP POP SWAP3 SWAP2 POP POP JUMP JUMPDEST PUSH3 0x8FB DUP2 PUSH3 0x879 JUMP JUMPDEST DUP3 MSTORE POP POP JUMP JUMPDEST PUSH1 0x0 PUSH1 0x20 DUP3 ADD SWAP1 POP PUSH3 0x918 PUSH1 0x0 DUP4 ADD DUP5 PUSH3 0x8F0 JUMP JUMPDEST SWAP3 SWAP2 POP POP JUMP JUMPDEST PUSH1 0x0 DUP3 DUP3 MSTORE PUSH1 0x20 DUP3 ADD SWAP1 POP SWAP3 SWAP2 POP POP JUMP JUMPDEST PUSH32 0x4F6E6C79204F776E65722063616E2075736520746869732066756E6374696F6E PUSH1 0x0 DUP3 ADD MSTORE PUSH32 0x2E00000000000000000000000000000000000000000000000000000000000000 PUSH1 0x20 DUP3 ADD MSTORE POP JUMP JUMPDEST PUSH1 0x0 PUSH3 0x98D PUSH1 0x21 DUP4 PUSH3 0x91E JUMP JUMPDEST SWAP2 POP PUSH3 0x99A DUP3 PUSH3 0x92F JUMP JUMPDEST PUSH1 0x40 DUP3 ADD SWAP1 POP SWAP2 SWAP1 POP JUMP JUMPDEST PUSH1 0x0 PUSH1 0x20 DUP3 ADD SWAP1 POP DUP2 DUP2 SUB PUSH1 0x0 DUP4 ADD MSTORE PUSH3 0x9C0 DUP2 PUSH3 0x97E JUMP JUMPDEST SWAP1 POP SWAP2 SWAP1 POP JUMP JUMPDEST PUSH1 0x0 PUSH1 0x40 DUP3 ADD SWAP1 POP PUSH3 0x9DE PUSH1 0x0 DUP4 ADD DUP6 PUSH3 0x8F0 JUMP JUMPDEST PUSH3 0x9ED PUSH1 0x20 DUP4 ADD DUP5 PUSH3 0x8F0 JUMP JUMPDEST SWAP4 SWAP3 POP POP POP JUMP INVALID PUSH1 0x80 PUSH1 0x40 MSTORE CALLVALUE DUP1 ISZERO PUSH3 0x11 JUMPI PUSH1 0x0 DUP1 REVERT JUMPDEST POP PUSH1 0x40 MLOAD PUSH3 0x1532 CODESIZE SUB DUP1 PUSH3 0x1532 DUP4 CODECOPY DUP2 DUP2 ADD PUSH1 0x40 MSTORE DUP2 ADD SWAP1 PUSH3 0x37 SWAP2 SWAP1 PUSH3 0x123 JUMP JUMPDEST PUSH3 0x53 PUSH8 0x6FC3766057814028 PUSH1 0xC0 SHL PUSH3 0xB6 PUSH1 0x20 SHL PUSH1 0x20 SHR JUMP JUMPDEST PUSH3 0x6F PUSH8 0x51405ECF13D39532 PUSH1 0xC0 SHL PUSH3 0xB6 PUSH1 0x20 SHL PUSH1 0x20 SHR JUMP JUMPDEST DUP1 PUSH1 0x0 DUP1 PUSH2 0x100 EXP DUP2 SLOAD DUP2 PUSH20 0xFFFFFFFFFFFFFFFFFFFFFFFFFFFFFFFFFFFFFFFF MUL NOT AND SWAP1 DUP4 PUSH20 0xFFFFFFFFFFFFFFFFFFFFFFFFFFFFFFFFFFFFFFFF AND MUL OR SWAP1 SSTORE POP POP PUSH3 0x155 JUMP JUMPDEST POP JUMP JUMPDEST PUSH1 0x0 DUP1 REVERT JUMPDEST PUSH1 0x0 PUSH20 0xFFFFFFFFFFFFFFFFFFFFFFFFFFFFFFFFFFFFFFFF DUP3 AND SWAP1 POP SWAP2 SWAP1 POP JUMP JUMPDEST PUSH1 0x0 PUSH3 0xEB DUP3 PUSH3 0xBE JUMP JUMPDEST SWAP1 POP SWAP2 SWAP1 POP JUMP JUMPDEST PUSH3 0xFD DUP2 PUSH3 0xDE JUMP JUMPDEST DUP2 EQ PUSH3 0x109 JUMPI PUSH1 0x0 DUP1 REVERT JUMPDEST POP JUMP JUMPDEST PUSH1 0x0 DUP2 MLOAD SWAP1 POP PUSH3 0x11D DUP2 PUSH3 0xF2 JUMP JUMPDEST SWAP3 SWAP2 POP POP JUMP JUMPDEST PUSH1 0x0 PUSH1 0x20 DUP3 DUP5 SUB SLT ISZERO PUSH3 0x13C JUMPI PUSH3 0x13B PUSH3 0xB9 JUMP JUMPDEST JUMPDEST PUSH1 0x0 PUSH3 0x14C DUP5 DUP3 DUP6 ADD PUSH3 0x10C JUMP JUMPDEST SWAP2 POP POP SWAP3 SWAP2 POP POP JUMP JUMPDEST PUSH2 0x13CD DUP1 PUSH3 0x165 PUSH1 0x0 CODECOPY PUSH1 0x0 RETURN INVALID PUSH1 0x80 PUSH1 0x40 MSTORE CALLVALUE DUP1 ISZERO PUSH2 0x10 JUMPI PUSH1 0x0 DUP1 REVERT JUMPDEST POP PUSH1 0x4 CALLDATASIZE LT PUSH2 0x62 JUMPI PUSH1 0x0 CALLDATALOAD PUSH1 0xE0 SHR DUP1 PUSH4 0x1E89DFB6 EQ PUSH2 0x67 JUMPI DUP1 PUSH4 0x465DED82 EQ PUSH2 0x83 JUMPI DUP1 PUSH4 0x47E7EF24 EQ PUSH2 0xB3 JUMPI DUP1 PUSH4 0x8DA5CB5B EQ PUSH2 0xCF JUMPI DUP1 PUSH4 0xC23F001F EQ PUSH2 0xED JUMPI DUP1 PUSH4 0xF3FEF3A3 EQ PUSH2 0x11D JUMPI JUMPDEST PUSH1 0x0 DUP1 REVERT JUMPDEST PUSH2 0x81 PUSH1 0x4 DUP1 CALLDATASIZE SUB DUP2 ADD SWAP1 PUSH2 0x7C SWAP2 SWAP1 PUSH2 0xCC4 JUMP JUMPDEST PUSH2 0x139 JUMP JUMPDEST STOP JUMPDEST PUSH2 0x9D PUSH1 0x4 DUP1 CALLDATASIZE SUB DUP2 ADD SWAP1 PUSH2 0x98 SWAP2 SWAP1 PUSH2 0xCC4 JUMP JUMPDEST PUSH2 0x389 JUMP JUMPDEST PUSH1 0x40 MLOAD PUSH2 0xAA SWAP2 SWAP1 PUSH2 0xD0A JUMP JUMPDEST PUSH1 0x40 MLOAD DUP1 SWAP2 SUB SWAP1 RETURN JUMPDEST PUSH2 0xCD PUSH1 0x4 DUP1 CALLDATASIZE SUB DUP2 ADD SWAP1 PUSH2 0xC8 SWAP2 SWAP1 PUSH2 0xD51 JUMP JUMPDEST PUSH2 0x3A1 JUMP JUMPDEST STOP JUMPDEST PUSH2 0xD7 PUSH2 0x6CA JUMP JUMPDEST PUSH1 0x40 MLOAD PUSH2 0xE4 SWAP2 SWAP1 PUSH2 0xDA0 JUMP JUMPDEST PUSH1 0x40 MLOAD DUP1 SWAP2 SUB SWAP1 RETURN JUMPDEST PUSH2 0x107 PUSH1 0x4 DUP1 CALLDATASIZE SUB DUP2 ADD SWAP1 PUSH2 0x102 SWAP2 SWAP1 PUSH2 0xDBB JUMP JUMPDEST PUSH2 0x6EE JUMP JUMPDEST PUSH1 0x40 MLOAD PUSH2 0x114 SWAP2 SWAP1 PUSH2 0xD0A JUMP JUMPDEST PUSH1 0x40 MLOAD DUP1 SWAP2 SUB SWAP1 RETURN JUMPDEST PUSH2 0x137 PUSH1 0x4 DUP1 CALLDATASIZE SUB DUP2 ADD SWAP1 PUSH2 0x132 SWAP2 SWAP1 PUSH2 0xD51 JUMP JUMPDEST PUSH2 0x713 JUMP JUMPDEST STOP JUMPDEST PUSH2 0x14D PUSH8 0xC160147C5FE38807 PUSH1 0xC0 SHL PUSH2 0x8B8 JUMP JUMPDEST PUSH2 0x161 PUSH8 0x26C7004522A429FB PUSH1 0xC0 SHL PUSH2 0x8BB JUMP JUMPDEST PUSH2 0x175 PUSH8 0xDF23A199D37C695B PUSH1 0xC0 SHL PUSH2 0x8BB JUMP JUMPDEST PUSH2 0x189 PUSH8 0xBDDAAF3812E5A250 PUSH1 0xC0 SHL PUSH2 0x8BB JUMP JUMPDEST PUSH2 0x19D PUSH8 0x4BDAF2107FA8FD6F PUSH1 0xC0 SHL PUSH2 0x8BB JUMP JUMPDEST PUSH1 0x0 DUP1 SLOAD SWAP1 PUSH2 0x100 EXP SWAP1 DIV PUSH20 0xFFFFFFFFFFFFFFFFFFFFFFFFFFFFFFFFFFFFFFFF AND PUSH20 0xFFFFFFFFFFFFFFFFFFFFFFFFFFFFFFFFFFFFFFFF AND CALLER PUSH20 0xFFFFFFFFFFFFFFFFFFFFFFFFFFFFFFFFFFFFFFFF AND EQ PUSH2 0x22B JUMPI PUSH1 0x40 MLOAD PUSH32 0x8C379A000000000000000000000000000000000000000000000000000000000 DUP2 MSTORE PUSH1 0x4 ADD PUSH2 0x222 SWAP1 PUSH2 0xE7E JUMP JUMPDEST PUSH1 0x40 MLOAD DUP1 SWAP2 SUB SWAP1 REVERT JUMPDEST PUSH2 0x23F PUSH8 0xACF7D2992E2E72FF PUSH1 0xC0 SHL PUSH2 0x8BB JUMP JUMPDEST PUSH2 0x253 PUSH8 0x643C8E338BA14E06 PUSH1 0xC0 SHL PUSH2 0x8BB JUMP JUMPDEST PUSH2 0x267 PUSH8 0x15E44F716EB440D7 PUSH1 0xC0 SHL PUSH2 0x8B8 JUMP JUMPDEST PUSH2 0x27B PUSH8 0xA45004C54BF3754F PUSH1 0xC0 SHL PUSH2 0x8B8 JUMP JUMPDEST PUSH2 0x28F PUSH8 0x7602F9EAA772917 PUSH1 0xC0 SHL PUSH2 0x8B8 JUMP JUMPDEST PUSH2 0x2A3 PUSH8 0x13CE91DFAEDEFF67 PUSH1 0xC0 SHL PUSH2 0x8B8 JUMP JUMPDEST PUSH2 0x32D PUSH1 0x0 DUP1 SLOAD SWAP1 PUSH2 0x100 EXP SWAP1 DIV PUSH20 0xFFFFFFFFFFFFFFFFFFFFFFFFFFFFFFFFFFFFFFFF AND PUSH1 0x2 PUSH1 0x0 DUP5 PUSH20 0xFFFFFFFFFFFFFFFFFFFFFFFFFFFFFFFFFFFFFFFF AND PUSH20 0xFFFFFFFFFFFFFFFFFFFFFFFFFFFFFFFFFFFFFFFF AND DUP2 MSTORE PUSH1 0x20 ADD SWAP1 DUP2 MSTORE PUSH1 0x20 ADD PUSH1 0x0 KECCAK256 SLOAD DUP4 PUSH20 0xFFFFFFFFFFFFFFFFFFFFFFFFFFFFFFFFFFFFFFFF AND PUSH2 0x8BE SWAP1 SWAP3 SWAP2 SWAP1 PUSH4 0xFFFFFFFF AND JUMP JUMPDEST PUSH2 0x341 PUSH8 0x279A44395B8D3C43 PUSH1 0xC0 SHL PUSH2 0x8B8 JUMP JUMPDEST PUSH1 0x0 PUSH1 0x2 PUSH1 0x0 DUP4 PUSH20 0xFFFFFFFFFFFFFFFFFFFFFFFFFFFFFFFFFFFFFFFF AND PUSH20 0xFFFFFFFFFFFFFFFFFFFFFFFFFFFFFFFFFFFFFFFF AND DUP2 MSTORE PUSH1 0x20 ADD SWAP1 DUP2 MSTORE PUSH1 0x20 ADD PUSH1 0x0 KECCAK256 DUP2 SWAP1 SSTORE POP POP JUMP JUMPDEST PUSH1 0x2 PUSH1 0x20 MSTORE DUP1 PUSH1 0x0 MSTORE PUSH1 0x40 PUSH1 0x0 KECCAK256 PUSH1 0x0 SWAP2 POP SWAP1 POP SLOAD DUP2 JUMP JUMPDEST PUSH2 0x3B5 PUSH8 0x3957059F26F3FEAA PUSH1 0xC0 SHL PUSH2 0x8B8 JUMP JUMPDEST PUSH2 0x3C9 PUSH8 0x65FCAC3F022F8E7D PUSH1 0xC0 SHL PUSH2 0x8B8 JUMP JUMPDEST PUSH2 0x3DD PUSH8 0xB28CD1F14B1F5499 PUSH1 0xC0 SHL PUSH2 0x8B8 JUMP JUMPDEST PUSH2 0x3F1 PUSH8 0xBFD3D8718F75EFA5 PUSH1 0xC0 SHL PUSH2 0x8B8 JUMP JUMPDEST PUSH1 0x0 DUP2 GT PUSH2 0x434 JUMPI PUSH1 0x40 MLOAD PUSH32 0x8C379A000000000000000000000000000000000000000000000000000000000 DUP2 MSTORE PUSH1 0x4 ADD PUSH2 0x42B SWAP1 PUSH2 0xEEA JUMP JUMPDEST PUSH1 0x40 MLOAD DUP1 SWAP2 SUB SWAP1 REVERT JUMPDEST PUSH2 0x448 PUSH8 0x6E57B499BE5879F5 PUSH1 0xC0 SHL PUSH2 0x8B8 JUMP JUMPDEST PUSH2 0x45C PUSH8 0x8C93488E93F79764 PUSH1 0xC0 SHL PUSH2 0x8B8 JUMP JUMPDEST PUSH2 0x470 PUSH8 0x292A3AAE12C97754 PUSH1 0xC0 SHL PUSH2 0x8B8 JUMP JUMPDEST PUSH1 0x0 PUSH2 0x486 PUSH8 0x6D47E79EEFA720F4 PUSH1 0xC0 SHL PUSH2 0x8B8 JUMP JUMPDEST PUSH2 0x49A PUSH8 0xF7777FCDCBBC37F1 PUSH1 0xC0 SHL PUSH2 0x8B8 JUMP JUMPDEST PUSH2 0x4C7 CALLER ADDRESS DUP5 DUP7 PUSH20 0xFFFFFFFFFFFFFFFFFFFFFFFFFFFFFFFFFFFFFFFF AND PUSH2 0x944 SWAP1 SWAP4 SWAP3 SWAP2 SWAP1 PUSH4 0xFFFFFFFF AND JUMP JUMPDEST PUSH2 0x4DB PUSH8 0xFA675E5278D5A300 PUSH1 0xC0 SHL PUSH2 0x8B8 JUMP JUMPDEST PUSH2 0x4EF PUSH8 0xE5AE6292417EBBE7 PUSH1 0xC0 SHL PUSH2 0x8B8 JUMP JUMPDEST PUSH2 0x3E8 DUP3 LT ISZERO PUSH2 0x54D JUMPI PUSH2 0x50D PUSH8 0xB46ADE4DD0F4BE82 PUSH1 0xC0 SHL PUSH2 0x8B8 JUMP JUMPDEST PUSH2 0x521 PUSH8 0x418CF1B3A2518D3F PUSH1 0xC0 SHL PUSH2 0x8B8 JUMP JUMPDEST PUSH1 0x1 SWAP1 POP PUSH2 0x539 PUSH8 0x5FB9E1C149346DA6 PUSH1 0xC0 SHL PUSH2 0x8B8 JUMP JUMPDEST PUSH1 0x1 DUP3 PUSH2 0x546 SWAP2 SWAP1 PUSH2 0xF39 JUMP JUMPDEST SWAP2 POP PUSH2 0x5B4 JUMP JUMPDEST PUSH2 0x561 PUSH8 0x36F648FBA3669694 PUSH1 0xC0 SHL PUSH2 0x8B8 JUMP JUMPDEST PUSH2 0x575 PUSH8 0xA666EA1911503DC8 PUSH1 0xC0 SHL PUSH2 0x8B8 JUMP JUMPDEST PUSH2 0x2710 PUSH1 0xA DUP4 PUSH2 0x585 SWAP2 SWAP1 PUSH2 0xF6D JUMP JUMPDEST PUSH2 0x58F SWAP2 SWAP1 PUSH2 0xFDE JUMP JUMPDEST SWAP1 POP PUSH2 0x5A5 PUSH8 0x5069F69F6B6C338F PUSH1 0xC0 SHL PUSH2 0x8B8 JUMP JUMPDEST DUP1 DUP3 PUSH2 0x5B1 SWAP2 SWAP1 PUSH2 0xF39 JUMP JUMPDEST SWAP2 POP JUMPDEST PUSH2 0x5C8 PUSH8 0xE6E3EF71B83E9280 PUSH1 0xC0 SHL PUSH2 0x8B8 JUMP JUMPDEST DUP2 PUSH1 0x1 PUSH1 0x0 CALLER PUSH20 0xFFFFFFFFFFFFFFFFFFFFFFFFFFFFFFFFFFFFFFFF AND PUSH20 0xFFFFFFFFFFFFFFFFFFFFFFFFFFFFFFFFFFFFFFFF AND DUP2 MSTORE PUSH1 0x20 ADD SWAP1 DUP2 MSTORE PUSH1 0x20 ADD PUSH1 0x0 KECCAK256 PUSH1 0x0 DUP6 PUSH20 0xFFFFFFFFFFFFFFFFFFFFFFFFFFFFFFFFFFFFFFFF AND PUSH20 0xFFFFFFFFFFFFFFFFFFFFFFFFFFFFFFFFFFFFFFFF AND DUP2 MSTORE PUSH1 0x20 ADD SWAP1 DUP2 MSTORE PUSH1 0x20 ADD PUSH1 0x0 KECCAK256 PUSH1 0x0 DUP3 DUP3 SLOAD PUSH2 0x654 SWAP2 SWAP1 PUSH2 0x100F JUMP JUMPDEST SWAP3 POP POP DUP2 SWAP1 SSTORE POP PUSH2 0x66F PUSH8 0xE79723449F85AFF5 PUSH1 0xC0 SHL PUSH2 0x8B8 JUMP JUMPDEST DUP1 PUSH1 0x2 PUSH1 0x0 DUP6 PUSH20 0xFFFFFFFFFFFFFFFFFFFFFFFFFFFFFFFFFFFFFFFF AND PUSH20 0xFFFFFFFFFFFFFFFFFFFFFFFFFFFFFFFFFFFFFFFF AND DUP2 MSTORE PUSH1 0x20 ADD SWAP1 DUP2 MSTORE PUSH1 0x20 ADD PUSH1 0x0 KECCAK256 PUSH1 0x0 DUP3 DUP3 SLOAD PUSH2 0x6BE SWAP2 SWAP1 PUSH2 0x100F JUMP JUMPDEST SWAP3 POP POP DUP2 SWAP1 SSTORE POP POP POP POP JUMP JUMPDEST PUSH1 0x0 DUP1 SLOAD SWAP1 PUSH2 0x100 EXP SWAP1 DIV PUSH20 0xFFFFFFFFFFFFFFFFFFFFFFFFFFFFFFFFFFFFFFFF AND DUP2 JUMP JUMPDEST PUSH1 0x1 PUSH1 0x20 MSTORE DUP2 PUSH1 0x0 MSTORE PUSH1 0x40 PUSH1 0x0 KECCAK256 PUSH1 0x20 MSTORE DUP1 PUSH1 0x0 MSTORE PUSH1 0x40 PUSH1 0x0 KECCAK256 PUSH1 0x0 SWAP2 POP SWAP2 POP POP SLOAD DUP2 JUMP JUMPDEST PUSH2 0x727 PUSH8 0x33D3C2E8537172EE PUSH1 0xC0 SHL PUSH2 0x8B8 JUMP JUMPDEST PUSH2 0x73B PUSH8 0x3CFE208A28D771C0 PUSH1 0xC0 SHL PUSH2 0x8B8 JUMP JUMPDEST PUSH2 0x74F PUSH8 0xE9FFF55A3CA2418C PUSH1 0xC0 SHL PUSH2 0x8B8 JUMP JUMPDEST PUSH2 0x763 PUSH8 0x873DD71F49B1D3FD PUSH1 0xC0 SHL PUSH2 0x8B8 JUMP JUMPDEST PUSH1 0x0 DUP2 GT PUSH2 0x7A6 JUMPI PUSH1 0x40 MLOAD PUSH32 0x8C379A000000000000000000000000000000000000000000000000000000000 DUP2 MSTORE PUSH1 0x4 ADD PUSH2 0x79D SWAP1 PUSH2 0xEEA JUMP JUMPDEST PUSH1 0x40 MLOAD DUP1 SWAP2 SUB SWAP1 REVERT JUMPDEST PUSH2 0x7BA PUSH8 0x800F8A20FF0094D9 PUSH1 0xC0 SHL PUSH2 0x8B8 JUMP JUMPDEST PUSH2 0x7CE PUSH8 0x7194B66831FC6881 PUSH1 0xC0 SHL PUSH2 0x8B8 JUMP JUMPDEST DUP1 PUSH1 0x1 PUSH1 0x0 CALLER PUSH20 0xFFFFFFFFFFFFFFFFFFFFFFFFFFFFFFFFFFFFFFFF AND PUSH20 0xFFFFFFFFFFFFFFFFFFFFFFFFFFFFFFFFFFFFFFFF AND DUP2 MSTORE PUSH1 0x20 ADD SWAP1 DUP2 MSTORE PUSH1 0x20 ADD PUSH1 0x0 KECCAK256 PUSH1 0x0 DUP5 PUSH20 0xFFFFFFFFFFFFFFFFFFFFFFFFFFFFFFFFFFFFFFFF AND PUSH20 0xFFFFFFFFFFFFFFFFFFFFFFFFFFFFFFFFFFFFFFFF AND DUP2 MSTORE PUSH1 0x20 ADD SWAP1 DUP2 MSTORE PUSH1 0x20 ADD PUSH1 0x0 KECCAK256 PUSH1 0x0 DUP3 DUP3 SLOAD PUSH2 0x85A SWAP2 SWAP1 PUSH2 0xF39 JUMP JUMPDEST SWAP3 POP POP DUP2 SWAP1 SSTORE POP PUSH2 0x875 PUSH8 0xA2ECCC84988205C8 PUSH1 0xC0 SHL PUSH2 0x8B8 JUMP JUMPDEST PUSH2 0x889 PUSH8 0x735F7F3B9461374 PUSH1 0xC0 SHL PUSH2 0x8B8 JUMP JUMPDEST PUSH2 0x8B4 CALLER DUP3 DUP5 PUSH20 0xFFFFFFFFFFFFFFFFFFFFFFFFFFFFFFFFFFFFFFFF AND PUSH2 0x8BE SWAP1 SWAP3 SWAP2 SWAP1 PUSH4 0xFFFFFFFF AND JUMP JUMPDEST POP POP JUMP JUMPDEST POP JUMP JUMPDEST POP JUMP JUMPDEST PUSH2 0x93F DUP4 PUSH4 0xA9059CBB PUSH1 0xE0 SHL DUP5 DUP5 PUSH1 0x40 MLOAD PUSH1 0x24 ADD PUSH2 0x8DD SWAP3 SWAP2 SWAP1 PUSH2 0x1043 JUMP JUMPDEST PUSH1 0x40 MLOAD PUSH1 0x20 DUP2 DUP4 SUB SUB DUP2 MSTORE SWAP1 PUSH1 0x40 MSTORE SWAP1 PUSH28 0xFFFFFFFFFFFFFFFFFFFFFFFFFFFFFFFFFFFFFFFFFFFFFFFFFFFFFFFF NOT AND PUSH1 0x20 DUP3 ADD DUP1 MLOAD PUSH28 0xFFFFFFFFFFFFFFFFFFFFFFFFFFFFFFFFFFFFFFFFFFFFFFFFFFFFFFFF DUP4 DUP2 DUP4 AND OR DUP4 MSTORE POP POP POP POP PUSH2 0x9CD JUMP JUMPDEST POP POP POP JUMP JUMPDEST PUSH2 0x9C7 DUP5 PUSH4 0x23B872DD PUSH1 0xE0 SHL DUP6 DUP6 DUP6 PUSH1 0x40 MLOAD PUSH1 0x24 ADD PUSH2 0x965 SWAP4 SWAP3 SWAP2 SWAP1 PUSH2 0x106C JUMP JUMPDEST PUSH1 0x40 MLOAD PUSH1 0x20 DUP2 DUP4 SUB SUB DUP2 MSTORE SWAP1 PUSH1 0x40 MSTORE SWAP1 PUSH28 0xFFFFFFFFFFFFFFFFFFFFFFFFFFFFFFFFFFFFFFFFFFFFFFFFFFFFFFFF NOT AND PUSH1 0x20 DUP3 ADD DUP1 MLOAD PUSH28 0xFFFFFFFFFFFFFFFFFFFFFFFFFFFFFFFFFFFFFFFFFFFFFFFFFFFFFFFF DUP4 DUP2 DUP4 AND OR DUP4 MSTORE POP POP POP POP PUSH2 0x9CD JUMP JUMPDEST POP POP POP POP JUMP JUMPDEST PUSH1 0x0 PUSH2 0xA2F DUP3 PUSH1 0x40 MLOAD DUP1 PUSH1 0x40 ADD PUSH1 0x40 MSTORE DUP1 PUSH1 0x20 DUP2 MSTORE PUSH1 0x20 ADD PUSH32 0x5361666545524332303A206C6F772D6C6576656C2063616C6C206661696C6564 DUP2 MSTORE POP DUP6 PUSH20 0xFFFFFFFFFFFFFFFFFFFFFFFFFFFFFFFFFFFFFFFF AND PUSH2 0xA94 SWAP1 SWAP3 SWAP2 SWAP1 PUSH4 0xFFFFFFFF AND JUMP JUMPDEST SWAP1 POP PUSH1 0x0 DUP2 MLOAD GT ISZERO PUSH2 0xA8F JUMPI DUP1 DUP1 PUSH1 0x20 ADD SWAP1 MLOAD DUP2 ADD SWAP1 PUSH2 0xA4F SWAP2 SWAP1 PUSH2 0x10DB JUMP JUMPDEST PUSH2 0xA8E JUMPI PUSH1 0x40 MLOAD PUSH32 0x8C379A000000000000000000000000000000000000000000000000000000000 DUP2 MSTORE PUSH1 0x4 ADD PUSH2 0xA85 SWAP1 PUSH2 0x117A JUMP JUMPDEST PUSH1 0x40 MLOAD DUP1 SWAP2 SUB SWAP1 REVERT JUMPDEST JUMPDEST POP POP POP JUMP JUMPDEST PUSH1 0x60 PUSH2 0xAA3 DUP5 DUP5 PUSH1 0x0 DUP6 PUSH2 0xAAC JUMP JUMPDEST SWAP1 POP SWAP4 SWAP3 POP POP POP JUMP JUMPDEST PUSH1 0x60 DUP3 SELFBALANCE LT ISZERO PUSH2 0xAF1 JUMPI PUSH1 0x40 MLOAD PUSH32 0x8C379A000000000000000000000000000000000000000000000000000000000 DUP2 MSTORE PUSH1 0x4 ADD PUSH2 0xAE8 SWAP1 PUSH2 0x120C JUMP JUMPDEST PUSH1 0x40 MLOAD DUP1 SWAP2 SUB SWAP1 REVERT JUMPDEST PUSH1 0x0 DUP1 DUP7 PUSH20 0xFFFFFFFFFFFFFFFFFFFFFFFFFFFFFFFFFFFFFFFF AND DUP6 DUP8 PUSH1 0x40 MLOAD PUSH2 0xB1A SWAP2 SWAP1 PUSH2 0x129D JUMP JUMPDEST PUSH1 0x0 PUSH1 0x40 MLOAD DUP1 DUP4 SUB DUP2 DUP6 DUP8 GAS CALL SWAP3 POP POP POP RETURNDATASIZE DUP1 PUSH1 0x0 DUP2 EQ PUSH2 0xB57 JUMPI PUSH1 0x40 MLOAD SWAP2 POP PUSH1 0x1F NOT PUSH1 0x3F RETURNDATASIZE ADD AND DUP3 ADD PUSH1 0x40 MSTORE RETURNDATASIZE DUP3 MSTORE RETURNDATASIZE PUSH1 0x0 PUSH1 0x20 DUP5 ADD RETURNDATACOPY PUSH2 0xB5C JUMP JUMPDEST PUSH1 0x60 SWAP2 POP JUMPDEST POP SWAP2 POP SWAP2 POP PUSH2 0xB6D DUP8 DUP4 DUP4 DUP8 PUSH2 0xB79 JUMP JUMPDEST SWAP3 POP POP POP SWAP5 SWAP4 POP POP POP POP JUMP JUMPDEST PUSH1 0x60 DUP4 ISZERO PUSH2 0xBDB JUMPI PUSH1 0x0 DUP4 MLOAD SUB PUSH2 0xBD3 JUMPI PUSH2 0xB93 DUP6 PUSH2 0xBEE JUMP JUMPDEST PUSH2 0xBD2 JUMPI PUSH1 0x40 MLOAD PUSH32 0x8C379A000000000000000000000000000000000000000000000000000000000 DUP2 MSTORE PUSH1 0x4 ADD PUSH2 0xBC9 SWAP1 PUSH2 0x1300 JUMP JUMPDEST PUSH1 0x40 MLOAD DUP1 SWAP2 SUB SWAP1 REVERT JUMPDEST JUMPDEST DUP3 SWAP1 POP PUSH2 0xBE6 JUMP JUMPDEST PUSH2 0xBE5 DUP4 DUP4 PUSH2 0xC11 JUMP JUMPDEST JUMPDEST SWAP5 SWAP4 POP POP POP POP JUMP JUMPDEST PUSH1 0x0 DUP1 DUP3 PUSH20 0xFFFFFFFFFFFFFFFFFFFFFFFFFFFFFFFFFFFFFFFF AND EXTCODESIZE GT SWAP1 POP SWAP2 SWAP1 POP JUMP JUMPDEST PUSH1 0x0 DUP3 MLOAD GT ISZERO PUSH2 0xC24 JUMPI DUP2 MLOAD DUP1 DUP4 PUSH1 0x20 ADD REVERT JUMPDEST DUP1 PUSH1 0x40 MLOAD PUSH32 0x8C379A000000000000000000000000000000000000000000000000000000000 DUP2 MSTORE PUSH1 0x4 ADD PUSH2 0xC58 SWAP2 SWAP1 PUSH2 0x1375 JUMP JUMPDEST PUSH1 0x40 MLOAD DUP1 SWAP2 SUB SWAP1 REVERT JUMPDEST PUSH1 0x0 DUP1 REVERT JUMPDEST PUSH1 0x0 PUSH20 0xFFFFFFFFFFFFFFFFFFFFFFFFFFFFFFFFFFFFFFFF DUP3 AND SWAP1 POP SWAP2 SWAP1 POP JUMP JUMPDEST PUSH1 0x0 PUSH2 0xC91 DUP3 PUSH2 0xC66 JUMP JUMPDEST SWAP1 POP SWAP2 SWAP1 POP JUMP JUMPDEST PUSH2 0xCA1 DUP2 PUSH2 0xC86 JUMP JUMPDEST DUP2 EQ PUSH2 0xCAC JUMPI PUSH1 0x0 DUP1 REVERT JUMPDEST POP JUMP JUMPDEST PUSH1 0x0 DUP2 CALLDATALOAD SWAP1 POP PUSH2 0xCBE DUP2 PUSH2 0xC98 JUMP JUMPDEST SWAP3 SWAP2 POP POP JUMP JUMPDEST PUSH1 0x0 PUSH1 0x20 DUP3 DUP5 SUB SLT ISZERO PUSH2 0xCDA JUMPI PUSH2 0xCD9 PUSH2 0xC61 JUMP JUMPDEST JUMPDEST PUSH1 0x0 PUSH2 0xCE8 DUP5 DUP3 DUP6 ADD PUSH2 0xCAF JUMP JUMPDEST SWAP2 POP POP SWAP3 SWAP2 POP POP JUMP JUMPDEST PUSH1 0x0 DUP2 SWAP1 POP SWAP2 SWAP1 POP JUMP JUMPDEST PUSH2 0xD04 DUP2 PUSH2 0xCF1 JUMP JUMPDEST DUP3 MSTORE POP POP JUMP JUMPDEST PUSH1 0x0 PUSH1 0x20 DUP3 ADD SWAP1 POP PUSH2 0xD1F PUSH1 0x0 DUP4 ADD DUP5 PUSH2 0xCFB JUMP JUMPDEST SWAP3 SWAP2 POP POP JUMP JUMPDEST PUSH2 0xD2E DUP2 PUSH2 0xCF1 JUMP JUMPDEST DUP2 EQ PUSH2 0xD39 JUMPI PUSH1 0x0 DUP1 REVERT JUMPDEST POP JUMP JUMPDEST PUSH1 0x0 DUP2 CALLDATALOAD SWAP1 POP PUSH2 0xD4B DUP2 PUSH2 0xD25 JUMP JUMPDEST SWAP3 SWAP2 POP POP JUMP JUMPDEST PUSH1 0x0 DUP1 PUSH1 0x40 DUP4 DUP6 SUB SLT ISZERO PUSH2 0xD68 JUMPI PUSH2 0xD67 PUSH2 0xC61 JUMP JUMPDEST JUMPDEST PUSH1 0x0 PUSH2 0xD76 DUP6 DUP3 DUP7 ADD PUSH2 0xCAF JUMP JUMPDEST SWAP3 POP POP PUSH1 0x20 PUSH2 0xD87 DUP6 DUP3 DUP7 ADD PUSH2 0xD3C JUMP JUMPDEST SWAP2 POP POP SWAP3 POP SWAP3 SWAP1 POP JUMP JUMPDEST PUSH2 0xD9A DUP2 PUSH2 0xC86 JUMP JUMPDEST DUP3 MSTORE POP POP JUMP JUMPDEST PUSH1 0x0 PUSH1 0x20 DUP3 ADD SWAP1 POP PUSH2 0xDB5 PUSH1 0x0 DUP4 ADD DUP5 PUSH2 0xD91 JUMP JUMPDEST SWAP3 SWAP2 POP POP JUMP JUMPDEST PUSH1 0x0 DUP1 PUSH1 0x40 DUP4 DUP6 SUB SLT ISZERO PUSH2 0xDD2 JUMPI PUSH2 0xDD1 PUSH2 0xC61 JUMP JUMPDEST JUMPDEST PUSH1 0x0 PUSH2 0xDE0 DUP6 DUP3 DUP7 ADD PUSH2 0xCAF JUMP JUMPDEST SWAP3 POP POP PUSH1 0x20 PUSH2 0xDF1 DUP6 DUP3 DUP7 ADD PUSH2 0xCAF JUMP JUMPDEST SWAP2 POP POP SWAP3 POP SWAP3 SWAP1 POP JUMP JUMPDEST PUSH1 0x0 DUP3 DUP3 MSTORE PUSH1 0x20 DUP3 ADD SWAP1 POP SWAP3 SWAP2 POP POP JUMP JUMPDEST PUSH32 0x4F6E6C79204F776E65722063616E2075736520746869732066756E6374696F6E PUSH1 0x0 DUP3 ADD MSTORE PUSH32 0x2E00000000000000000000000000000000000000000000000000000000000000 PUSH1 0x20 DUP3 ADD MSTORE POP JUMP JUMPDEST PUSH1 0x0 PUSH2 0xE68 PUSH1 0x21 DUP4 PUSH2 0xDFB JUMP JUMPDEST SWAP2 POP PUSH2 0xE73 DUP3 PUSH2 0xE0C JUMP JUMPDEST PUSH1 0x40 DUP3 ADD SWAP1 POP SWAP2 SWAP1 POP JUMP JUMPDEST PUSH1 0x0 PUSH1 0x20 DUP3 ADD SWAP1 POP DUP2 DUP2 SUB PUSH1 0x0 DUP4 ADD MSTORE PUSH2 0xE97 DUP2 PUSH2 0xE5B JUMP JUMPDEST SWAP1 POP SWAP2 SWAP1 POP JUMP JUMPDEST PUSH32 0x416D6F756E742073686F756C64206265206C6172676572207468616E20302E00 PUSH1 0x0 DUP3 ADD MSTORE POP JUMP JUMPDEST PUSH1 0x0 PUSH2 0xED4 PUSH1 0x1F DUP4 PUSH2 0xDFB JUMP JUMPDEST SWAP2 POP PUSH2 0xEDF DUP3 PUSH2 0xE9E JUMP JUMPDEST PUSH1 0x20 DUP3 ADD SWAP1 POP SWAP2 SWAP1 POP JUMP JUMPDEST PUSH1 0x0 PUSH1 0x20 DUP3 ADD SWAP1 POP DUP2 DUP2 SUB PUSH1 0x0 DUP4 ADD MSTORE PUSH2 0xF03 DUP2 PUSH2 0xEC7 JUMP JUMPDEST SWAP1 POP SWAP2 SWAP1 POP JUMP JUMPDEST PUSH32 0x4E487B7100000000000000000000000000000000000000000000000000000000 PUSH1 0x0 MSTORE PUSH1 0x11 PUSH1 0x4 MSTORE PUSH1 0x24 PUSH1 0x0 REVERT JUMPDEST PUSH1 0x0 PUSH2 0xF44 DUP3 PUSH2 0xCF1 JUMP JUMPDEST SWAP2 POP PUSH2 0xF4F DUP4 PUSH2 0xCF1 JUMP JUMPDEST SWAP3 POP DUP3 DUP3 SUB SWAP1 POP DUP2 DUP2 GT ISZERO PUSH2 0xF67 JUMPI PUSH2 0xF66 PUSH2 0xF0A JUMP JUMPDEST JUMPDEST SWAP3 SWAP2 POP POP JUMP JUMPDEST PUSH1 0x0 PUSH2 0xF78 DUP3 PUSH2 0xCF1 JUMP JUMPDEST SWAP2 POP PUSH2 0xF83 DUP4 PUSH2 0xCF1 JUMP JUMPDEST SWAP3 POP DUP3 DUP3 MUL PUSH2 0xF91 DUP2 PUSH2 0xCF1 JUMP JUMPDEST SWAP2 POP DUP3 DUP3 DIV DUP5 EQ DUP4 ISZERO OR PUSH2 0xFA8 JUMPI PUSH2 0xFA7 PUSH2 0xF0A JUMP JUMPDEST JUMPDEST POP SWAP3 SWAP2 POP POP JUMP JUMPDEST PUSH32 0x4E487B7100000000000000000000000000000000000000000000000000000000 PUSH1 0x0 MSTORE PUSH1 0x12 PUSH1 0x4 MSTORE PUSH1 0x24 PUSH1 0x0 REVERT JUMPDEST PUSH1 0x0 PUSH2 0xFE9 DUP3 PUSH2 0xCF1 JUMP JUMPDEST SWAP2 POP PUSH2 0xFF4 DUP4 PUSH2 0xCF1 JUMP JUMPDEST SWAP3 POP DUP3 PUSH2 0x1004 JUMPI PUSH2 0x1003 PUSH2 0xFAF JUMP JUMPDEST JUMPDEST DUP3 DUP3 DIV SWAP1 POP SWAP3 SWAP2 POP POP JUMP JUMPDEST PUSH1 0x0 PUSH2 0x101A DUP3 PUSH2 0xCF1 JUMP JUMPDEST SWAP2 POP PUSH2 0x1025 DUP4 PUSH2 0xCF1 JUMP JUMPDEST SWAP3 POP DUP3 DUP3 ADD SWAP1 POP DUP1 DUP3 GT ISZERO PUSH2 0x103D JUMPI PUSH2 0x103C PUSH2 0xF0A JUMP JUMPDEST JUMPDEST SWAP3 SWAP2 POP POP JUMP JUMPDEST PUSH1 0x0 PUSH1 0x40 DUP3 ADD SWAP1 POP PUSH2 0x1058 PUSH1 0x0 DUP4 ADD DUP6 PUSH2 0xD91 JUMP JUMPDEST PUSH2 0x1065 PUSH1 0x20 DUP4 ADD DUP5 PUSH2 0xCFB JUMP JUMPDEST SWAP4 SWAP3 POP POP POP JUMP JUMPDEST PUSH1 0x0 PUSH1 0x60 DUP3 ADD SWAP1 POP PUSH2 0x1081 PUSH1 0x0 DUP4 ADD DUP7 PUSH2 0xD91 JUMP JUMPDEST PUSH2 0x108E PUSH1 0x20 DUP4 ADD DUP6 PUSH2 0xD91 JUMP JUMPDEST PUSH2 0x109B PUSH1 0x40 DUP4 ADD DUP5 PUSH2 0xCFB JUMP JUMPDEST SWAP5 SWAP4 POP POP POP POP JUMP JUMPDEST PUSH1 0x0 DUP2 ISZERO ISZERO SWAP1 POP SWAP2 SWAP1 POP JUMP JUMPDEST PUSH2 0x10B8 DUP2 PUSH2 0x10A3 JUMP JUMPDEST DUP2 EQ PUSH2 0x10C3 JUMPI PUSH1 0x0 DUP1 REVERT JUMPDEST POP JUMP JUMPDEST PUSH1 0x0 DUP2 MLOAD SWAP1 POP PUSH2 0x10D5 DUP2 PUSH2 0x10AF JUMP JUMPDEST SWAP3 SWAP2 POP POP JUMP JUMPDEST PUSH1 0x0 PUSH1 0x20 DUP3 DUP5 SUB SLT ISZERO PUSH2 0x10F1 JUMPI PUSH2 0x10F0 PUSH2 0xC61 JUMP JUMPDEST JUMPDEST PUSH1 0x0 PUSH2 0x10FF DUP5 DUP3 DUP6 ADD PUSH2 0x10C6 JUMP JUMPDEST SWAP2 POP POP SWAP3 SWAP2 POP POP JUMP JUMPDEST PUSH32 0x5361666545524332303A204552433230206F7065726174696F6E20646964206E PUSH1 0x0 DUP3 ADD MSTORE PUSH32 0x6F74207375636365656400000000000000000000000000000000000000000000 PUSH1 0x20 DUP3 ADD MSTORE POP JUMP JUMPDEST PUSH1 0x0 PUSH2 0x1164 PUSH1 0x2A DUP4 PUSH2 0xDFB JUMP JUMPDEST SWAP2 POP PUSH2 0x116F DUP3 PUSH2 0x1108 JUMP JUMPDEST PUSH1 0x40 DUP3 ADD SWAP1 POP SWAP2 SWAP1 POP JUMP JUMPDEST PUSH1 0x0 PUSH1 0x20 DUP3 ADD SWAP1 POP DUP2 DUP2 SUB PUSH1 0x0 DUP4 ADD MSTORE PUSH2 0x1193 DUP2 PUSH2 0x1157 JUMP JUMPDEST SWAP1 POP SWAP2 SWAP1 POP JUMP JUMPDEST PUSH32 0x416464726573733A20696E73756666696369656E742062616C616E636520666F PUSH1 0x0 DUP3 ADD MSTORE PUSH32 0x722063616C6C0000000000000000000000000000000000000000000000000000 PUSH1 0x20 DUP3 ADD MSTORE POP JUMP JUMPDEST PUSH1 0x0 PUSH2 0x11F6 PUSH1 0x26 DUP4 PUSH2 0xDFB JUMP JUMPDEST SWAP2 POP PUSH2 0x1201 DUP3 PUSH2 0x119A JUMP JUMPDEST PUSH1 0x40 DUP3 ADD SWAP1 POP SWAP2 SWAP1 POP JUMP JUMPDEST PUSH1 0x0 PUSH1 0x20 DUP3 ADD SWAP1 POP DUP2 DUP2 SUB PUSH1 0x0 DUP4 ADD MSTORE PUSH2 0x1225 DUP2 PUSH2 0x11E9 JUMP JUMPDEST SWAP1 POP SWAP2 SWAP1 POP JUMP JUMPDEST PUSH1 0x0 DUP2 MLOAD SWAP1 POP SWAP2 SWAP1 POP JUMP JUMPDEST PUSH1 0x0 DUP2 SWAP1 POP SWAP3 SWAP2 POP POP JUMP JUMPDEST PUSH1 0x0 JUMPDEST DUP4 DUP2 LT ISZERO PUSH2 0x1260 JUMPI DUP1 DUP3 ADD MLOAD DUP2 DUP5 ADD MSTORE PUSH1 0x20 DUP2 ADD SWAP1 POP PUSH2 0x1245 JUMP JUMPDEST PUSH1 0x0 DUP5 DUP5 ADD MSTORE POP POP POP POP JUMP JUMPDEST PUSH1 0x0 PUSH2 0x1277 DUP3 PUSH2 0x122C JUMP JUMPDEST PUSH2 0x1281 DUP2 DUP6 PUSH2 0x1237 JUMP JUMPDEST SWAP4 POP PUSH2 0x1291 DUP2 DUP6 PUSH1 0x20 DUP7 ADD PUSH2 0x1242 JUMP JUMPDEST DUP1 DUP5 ADD SWAP2 POP POP SWAP3 SWAP2 POP POP JUMP JUMPDEST PUSH1 0x0 PUSH2 0x12A9 DUP3 DUP5 PUSH2 0x126C JUMP JUMPDEST SWAP2 POP DUP2 SWAP1 POP SWAP3 SWAP2 POP POP JUMP JUMPDEST PUSH32 0x416464726573733A2063616C6C20746F206E6F6E2D636F6E7472616374000000 PUSH1 0x0 DUP3 ADD MSTORE POP JUMP JUMPDEST PUSH1 0x0 PUSH2 0x12EA PUSH1 0x1D DUP4 PUSH2 0xDFB JUMP JUMPDEST SWAP2 POP PUSH2 0x12F5 DUP3 PUSH2 0x12B4 JUMP JUMPDEST PUSH1 0x20 DUP3 ADD SWAP1 POP SWAP2 SWAP1 POP JUMP JUMPDEST PUSH1 0x0 PUSH1 0x20 DUP3 ADD SWAP1 POP DUP2 DUP2 SUB PUSH1 0x0 DUP4 ADD MSTORE PUSH2 0x1319 DUP2 PUSH2 0x12DD JUMP JUMPDEST SWAP1 POP SWAP2 SWAP1 POP JUMP JUMPDEST PUSH1 0x0 DUP2 MLOAD SWAP1 POP SWAP2 SWAP1 POP JUMP JUMPDEST PUSH1 0x0 PUSH1 0x1F NOT PUSH1 0x1F DUP4 ADD AND SWAP1 POP SWAP2 SWAP1 POP JUMP JUMPDEST PUSH1 0x0 PUSH2 0x1347 DUP3 PUSH2 0x1320 JUMP JUMPDEST PUSH2 0x1351 DUP2 DUP6 PUSH2 0xDFB JUMP JUMPDEST SWAP4 POP PUSH2 0x1361 DUP2 DUP6 PUSH1 0x20 DUP7 ADD PUSH2 0x1242 JUMP JUMPDEST PUSH2 0x136A DUP2 PUSH2 0x132B JUMP JUMPDEST DUP5 ADD SWAP2 POP POP SWAP3 SWAP2 POP POP JUMP JUMPDEST PUSH1 0x0 PUSH1 0x20 DUP3 ADD SWAP1 POP DUP2 DUP2 SUB PUSH1 0x0 DUP4 ADD MSTORE PUSH2 0x138F DUP2 DUP5 PUSH2 0x133C JUMP JUMPDEST SWAP1 POP SWAP3 SWAP2 POP POP JUMP INVALID LOG2 PUSH5 0x6970667358 0x22 SLT KECCAK256 RETURN 0xBD 0xBD 0xC8 0xEC GASLIMIT 0xE9 0xC SLT AND PUSH2 0x24C7 0xAB 0xC8 SDIV NOT 0xC4 0xD8 MSTORE8 DUP12 0x1F SWAP9 0xF MOD 0xAB 0xD3 SWAP16 OR 0xE4 0xA5 0xBB PUSH5 0x736F6C6343 STOP ADDMOD SLT STOP CALLER PUSH1 0x80 PUSH1 0x40 MSTORE CALLVALUE DUP1 ISZERO PUSH3 0x11 JUMPI PUSH1 0x0 DUP1 REVERT JUMPDEST POP PUSH1 0x40 MLOAD PUSH3 0xC67 CODESIZE SUB DUP1 PUSH3 0xC67 DUP4 CODECOPY DUP2 DUP2 ADD PUSH1 0x40 MSTORE DUP2 ADD SWAP1 PUSH3 0x37 SWAP2 SWAP1 PUSH3 0x203 JUMP JUMPDEST PUSH3 0x53 PUSH8 0x363E07A1C7CF49CF PUSH1 0xC0 SHL PUSH3 0x157 PUSH1 0x20 SHL PUSH1 0x20 SHR JUMP JUMPDEST PUSH3 0x6F PUSH8 0xEFA6A12A37CF60A6 PUSH1 0xC0 SHL PUSH3 0x157 PUSH1 0x20 SHL PUSH1 0x20 SHR JUMP JUMPDEST PUSH3 0x8B PUSH8 0x9BBDF5840F83607A PUSH1 0xC0 SHL PUSH3 0x157 PUSH1 0x20 SHL PUSH1 0x20 SHR JUMP JUMPDEST PUSH3 0xD1 PUSH1 0x1 PUSH32 0xB618D9D3ACAE9868EFBD61E58009D02A18B4C68C820F7D374893E09CC600F2CE PUSH1 0x0 SHR PUSH3 0xC1 SWAP2 SWAP1 PUSH3 0x283 JUMP JUMPDEST PUSH1 0x0 SHL DUP3 PUSH3 0x15A PUSH1 0x20 SHL PUSH1 0x20 SHR JUMP JUMPDEST PUSH3 0xED PUSH8 0x94D520D2E2540D7E PUSH1 0xC0 SHL PUSH3 0x157 PUSH1 0x20 SHL PUSH1 0x20 SHR JUMP JUMPDEST PUSH3 0x109 PUSH8 0x5B2207298004BF42 PUSH1 0xC0 SHL PUSH3 0x157 PUSH1 0x20 SHL PUSH1 0x20 SHR JUMP JUMPDEST PUSH3 0x14F PUSH1 0x1 PUSH32 0x360894A13BA1A3210667C828492DB98DCA3E2076CC3735A920A3CA505D382BBD PUSH1 0x0 SHR PUSH3 0x13F SWAP2 SWAP1 PUSH3 0x283 JUMP JUMPDEST PUSH1 0x0 SHL DUP4 PUSH3 0x15A PUSH1 0x20 SHL PUSH1 0x20 SHR JUMP JUMPDEST POP POP PUSH3 0x2BE JUMP JUMPDEST POP JUMP JUMPDEST PUSH3 0x176 PUSH8 0x3BF0EB899936ED67 PUSH1 0xC0 SHL PUSH3 0x157 PUSH1 0x20 SHL PUSH1 0x20 SHR JUMP JUMPDEST PUSH3 0x192 PUSH8 0x9D6191D532B17A8E PUSH1 0xC0 SHL PUSH3 0x157 PUSH1 0x20 SHL PUSH1 0x20 SHR JUMP JUMPDEST DUP1 DUP3 SSTORE POP POP JUMP JUMPDEST PUSH1 0x0 DUP1 REVERT JUMPDEST PUSH1 0x0 PUSH20 0xFFFFFFFFFFFFFFFFFFFFFFFFFFFFFFFFFFFFFFFF DUP3 AND SWAP1 POP SWAP2 SWAP1 POP JUMP JUMPDEST PUSH1 0x0 PUSH3 0x1CB DUP3 PUSH3 0x19E JUMP JUMPDEST SWAP1 POP SWAP2 SWAP1 POP JUMP JUMPDEST PUSH3 0x1DD DUP2 PUSH3 0x1BE JUMP JUMPDEST DUP2 EQ PUSH3 0x1E9 JUMPI PUSH1 0x0 DUP1 REVERT JUMPDEST POP JUMP JUMPDEST PUSH1 0x0 DUP2 MLOAD SWAP1 POP PUSH3 0x1FD DUP2 PUSH3 0x1D2 JUMP JUMPDEST SWAP3 SWAP2 POP POP JUMP JUMPDEST PUSH1 0x0 DUP1 PUSH1 0x40 DUP4 DUP6 SUB SLT ISZERO PUSH3 0x21D JUMPI PUSH3 0x21C PUSH3 0x199 JUMP JUMPDEST JUMPDEST PUSH1 0x0 PUSH3 0x22D DUP6 DUP3 DUP7 ADD PUSH3 0x1EC JUMP JUMPDEST SWAP3 POP POP PUSH1 0x20 PUSH3 0x240 DUP6 DUP3 DUP7 ADD PUSH3 0x1EC JUMP JUMPDEST SWAP2 POP POP SWAP3 POP SWAP3 SWAP1 POP JUMP JUMPDEST PUSH1 0x0 DUP2 SWAP1 POP SWAP2 SWAP1 POP JUMP JUMPDEST PUSH32 0x4E487B7100000000000000000000000000000000000000000000000000000000 PUSH1 0x0 MSTORE PUSH1 0x11 PUSH1 0x4 MSTORE PUSH1 0x24 PUSH1 0x0 REVERT JUMPDEST PUSH1 0x0 PUSH3 0x290 DUP3 PUSH3 0x24A JUMP JUMPDEST SWAP2 POP PUSH3 0x29D DUP4 PUSH3 0x24A JUMP JUMPDEST SWAP3 POP DUP3 DUP3 SUB SWAP1 POP DUP2 DUP2 GT ISZERO PUSH3 0x2B8 JUMPI PUSH3 0x2B7 PUSH3 0x254 JUMP JUMPDEST JUMPDEST SWAP3 SWAP2 POP POP JUMP JUMPDEST PUSH2 0x999 DUP1 PUSH3 0x2CE PUSH1 0x0 CODECOPY PUSH1 0x0 RETURN INVALID PUSH1 0x80 PUSH1 0x40 MSTORE PUSH1 0x4 CALLDATASIZE LT PUSH2 0x38 JUMPI PUSH1 0x0 CALLDATALOAD PUSH1 0xE0 SHR DUP1 PUSH4 0x1C1B8772 EQ PUSH2 0x1FF JUMPI DUP1 PUSH4 0x893D20E8 EQ PUSH2 0x228 JUMPI DUP1 PUSH4 0xA6F9DAE1 EQ PUSH2 0x253 JUMPI PUSH2 0x3F JUMP JUMPDEST CALLDATASIZE PUSH2 0x3F JUMPI STOP JUMPDEST PUSH1 0x0 CALLDATASIZE PUSH1 0x60 PUSH2 0x58 PUSH8 0x94D30A998E4615BC PUSH1 0xC0 SHL PUSH2 0x27C JUMP JUMPDEST PUSH2 0x6C PUSH8 0x9F427BA19831257F PUSH1 0xC0 SHL PUSH2 0x27C JUMP JUMPDEST PUSH2 0x80 PUSH8 0x326C6BCB1DC7067E PUSH1 0xC0 SHL PUSH2 0x27C JUMP JUMPDEST PUSH1 0x0 PUSH2 0x96 PUSH8 0x964C2FF879730DF5 PUSH1 0xC0 SHL PUSH2 0x27C JUMP JUMPDEST PUSH2 0xD1 PUSH1 0x1 PUSH32 0x360894A13BA1A3210667C828492DB98DCA3E2076CC3735A920A3CA505D382BBD PUSH1 0x0 SHR PUSH2 0xC9 SWAP2 SWAP1 PUSH2 0x77A JUMP JUMPDEST PUSH1 0x0 SHL PUSH2 0x27F JUMP JUMPDEST SWAP1 POP PUSH2 0xE7 PUSH8 0x406118BBE1F4C81E PUSH1 0xC0 SHL PUSH2 0x27C JUMP JUMPDEST PUSH2 0xFB PUSH8 0xDE829D45D620BC31 PUSH1 0xC0 SHL PUSH2 0x27C JUMP JUMPDEST PUSH1 0x0 PUSH2 0x111 PUSH8 0x4A019424E2869CA4 PUSH1 0xC0 SHL PUSH2 0x27C JUMP JUMPDEST DUP2 PUSH20 0xFFFFFFFFFFFFFFFFFFFFFFFFFFFFFFFFFFFFFFFF AND DUP6 DUP6 PUSH1 0x40 MLOAD PUSH2 0x138 SWAP3 SWAP2 SWAP1 PUSH2 0x7ED JUMP JUMPDEST PUSH1 0x0 PUSH1 0x40 MLOAD DUP1 DUP4 SUB DUP2 DUP6 GAS DELEGATECALL SWAP2 POP POP RETURNDATASIZE DUP1 PUSH1 0x0 DUP2 EQ PUSH2 0x173 JUMPI PUSH1 0x40 MLOAD SWAP2 POP PUSH1 0x1F NOT PUSH1 0x3F RETURNDATASIZE ADD AND DUP3 ADD PUSH1 0x40 MSTORE RETURNDATASIZE DUP3 MSTORE RETURNDATASIZE PUSH1 0x0 PUSH1 0x20 DUP5 ADD RETURNDATACOPY PUSH2 0x178 JUMP JUMPDEST PUSH1 0x60 SWAP2 POP JUMPDEST POP DUP1 SWAP5 POP DUP2 SWAP3 POP POP POP PUSH2 0x195 PUSH8 0x7CCD2E16610B226F PUSH1 0xC0 SHL PUSH2 0x27C JUMP JUMPDEST PUSH2 0x1A9 PUSH8 0x7239E6C1431C2BE1 PUSH1 0xC0 SHL PUSH2 0x27C JUMP JUMPDEST DUP1 PUSH2 0x1DE JUMPI PUSH2 0x1C2 PUSH8 0x18585803C3B7AACD PUSH1 0xC0 SHL PUSH2 0x27C JUMP JUMPDEST PUSH2 0x1D6 PUSH8 0x93F208B277C2350D PUSH1 0xC0 SHL PUSH2 0x27C JUMP JUMPDEST DUP3 MLOAD PUSH1 0x20 DUP5 ADD REVERT JUMPDEST PUSH2 0x1F2 PUSH8 0xB41A1E64A793B073 PUSH1 0xC0 SHL PUSH2 0x27C JUMP JUMPDEST POP POP SWAP2 POP POP DUP1 MLOAD SWAP1 PUSH1 0x20 ADD RETURN JUMPDEST CALLVALUE DUP1 ISZERO PUSH2 0x20B JUMPI PUSH1 0x0 DUP1 REVERT JUMPDEST POP PUSH2 0x226 PUSH1 0x4 DUP1 CALLDATASIZE SUB DUP2 ADD SWAP1 PUSH2 0x221 SWAP2 SWAP1 PUSH2 0x869 JUMP JUMPDEST PUSH2 0x2B2 JUMP JUMPDEST STOP JUMPDEST CALLVALUE DUP1 ISZERO PUSH2 0x234 JUMPI PUSH1 0x0 DUP1 REVERT JUMPDEST POP PUSH2 0x23D PUSH2 0x4A3 JUMP JUMPDEST PUSH1 0x40 MLOAD PUSH2 0x24A SWAP2 SWAP1 PUSH2 0x8A5 JUMP JUMPDEST PUSH1 0x40 MLOAD DUP1 SWAP2 SUB SWAP1 RETURN JUMPDEST CALLVALUE DUP1 ISZERO PUSH2 0x25F JUMPI PUSH1 0x0 DUP1 REVERT JUMPDEST POP PUSH2 0x27A PUSH1 0x4 DUP1 CALLDATASIZE SUB DUP2 ADD SWAP1 PUSH2 0x275 SWAP2 SWAP1 PUSH2 0x869 JUMP JUMPDEST PUSH2 0x521 JUMP JUMPDEST STOP JUMPDEST POP JUMP JUMPDEST PUSH1 0x0 PUSH2 0x295 PUSH8 0x798A90F79330B1A8 PUSH1 0xC0 SHL PUSH2 0x27C JUMP JUMPDEST PUSH2 0x2A9 PUSH8 0xD48997B6F8A77E59 PUSH1 0xC0 SHL PUSH2 0x27C JUMP JUMPDEST DUP2 SLOAD SWAP1 POP SWAP2 SWAP1 POP JUMP JUMPDEST PUSH2 0x2C6 PUSH8 0x6AC3133B1153ADD7 PUSH1 0xC0 SHL PUSH2 0x27C JUMP JUMPDEST PUSH2 0x2DA PUSH8 0xDE312C3877E2B645 PUSH1 0xC0 SHL PUSH2 0x27C JUMP JUMPDEST PUSH2 0x2EE PUSH8 0xAB205CB8DC879738 PUSH1 0xC0 SHL PUSH2 0x27C JUMP JUMPDEST PUSH2 0x302 PUSH8 0x8CD77E4DA31BE0E2 PUSH1 0xC0 SHL PUSH2 0x27C JUMP JUMPDEST PUSH1 0x0 PUSH2 0x33F PUSH1 0x1 PUSH32 0xB618D9D3ACAE9868EFBD61E58009D02A18B4C68C820F7D374893E09CC600F2CE PUSH1 0x0 SHR PUSH2 0x337 SWAP2 SWAP1 PUSH2 0x77A JUMP JUMPDEST PUSH1 0x0 SHL PUSH2 0x27F JUMP JUMPDEST SWAP1 POP PUSH2 0x355 PUSH8 0x8A9AC22BFFE09CD PUSH1 0xC0 SHL PUSH2 0x27C JUMP JUMPDEST PUSH2 0x369 PUSH8 0x7644229D0154DF66 PUSH1 0xC0 SHL PUSH2 0x27C JUMP JUMPDEST PUSH2 0x37D PUSH8 0x5BD779080DFA9B4A PUSH1 0xC0 SHL PUSH2 0x27C JUMP JUMPDEST DUP1 PUSH20 0xFFFFFFFFFFFFFFFFFFFFFFFFFFFFFFFFFFFFFFFF AND CALLER PUSH20 0xFFFFFFFFFFFFFFFFFFFFFFFFFFFFFFFFFFFFFFFF AND EQ PUSH2 0x3EB JUMPI PUSH1 0x40 MLOAD PUSH32 0x8C379A000000000000000000000000000000000000000000000000000000000 DUP2 MSTORE PUSH1 0x4 ADD PUSH2 0x3E2 SWAP1 PUSH2 0x943 JUMP JUMPDEST PUSH1 0x40 MLOAD DUP1 SWAP2 SUB SWAP1 REVERT JUMPDEST PUSH2 0x3FF PUSH8 0x32A054F20EBE0522 PUSH1 0xC0 SHL PUSH2 0x27C JUMP JUMPDEST PUSH2 0x413 PUSH8 0x9AF21D3E250369D3 PUSH1 0xC0 SHL PUSH2 0x27C JUMP JUMPDEST PUSH2 0x427 PUSH8 0xFE57722ADB7FE83A PUSH1 0xC0 SHL PUSH2 0x27C JUMP JUMPDEST PUSH2 0x43B PUSH8 0x26A03B71BB09EFB2 PUSH1 0xC0 SHL PUSH2 0x27C JUMP JUMPDEST PUSH2 0x44F PUSH8 0x20247178A05D43D1 PUSH1 0xC0 SHL PUSH2 0x27C JUMP JUMPDEST PUSH2 0x463 PUSH8 0x542D2F0609E8C73B PUSH1 0xC0 SHL PUSH2 0x27C JUMP JUMPDEST PUSH2 0x49F PUSH1 0x1 PUSH32 0x360894A13BA1A3210667C828492DB98DCA3E2076CC3735A920A3CA505D382BBD PUSH1 0x0 SHR PUSH2 0x496 SWAP2 SWAP1 PUSH2 0x77A JUMP JUMPDEST PUSH1 0x0 SHL DUP4 PUSH2 0x712 JUMP JUMPDEST POP POP JUMP JUMPDEST PUSH1 0x0 PUSH2 0x4B9 PUSH8 0xADDFBF40A855B835 PUSH1 0xC0 SHL PUSH2 0x27C JUMP JUMPDEST PUSH2 0x4CD PUSH8 0x3EED37B21CC78410 PUSH1 0xC0 SHL PUSH2 0x27C JUMP JUMPDEST PUSH2 0x4E1 PUSH8 0x178D63140CCB0C8C PUSH1 0xC0 SHL PUSH2 0x27C JUMP JUMPDEST PUSH2 0x51C PUSH1 0x1 PUSH32 0xB618D9D3ACAE9868EFBD61E58009D02A18B4C68C820F7D374893E09CC600F2CE PUSH1 0x0 SHR PUSH2 0x514 SWAP2 SWAP1 PUSH2 0x77A JUMP JUMPDEST PUSH1 0x0 SHL PUSH2 0x27F JUMP JUMPDEST SWAP1 POP SWAP1 JUMP JUMPDEST PUSH2 0x535 PUSH8 0x2C1A6C46C12E07DF PUSH1 0xC0 SHL PUSH2 0x27C JUMP JUMPDEST PUSH2 0x549 PUSH8 0xDE312C3877E2B645 PUSH1 0xC0 SHL PUSH2 0x27C JUMP JUMPDEST PUSH2 0x55D PUSH8 0xAB205CB8DC879738 PUSH1 0xC0 SHL PUSH2 0x27C JUMP JUMPDEST PUSH2 0x571 PUSH8 0x8CD77E4DA31BE0E2 PUSH1 0xC0 SHL PUSH2 0x27C JUMP JUMPDEST PUSH1 0x0 PUSH2 0x5AE PUSH1 0x1 PUSH32 0xB618D9D3ACAE9868EFBD61E58009D02A18B4C68C820F7D374893E09CC600F2CE PUSH1 0x0 SHR PUSH2 0x5A6 SWAP2 SWAP1 PUSH2 0x77A JUMP JUMPDEST PUSH1 0x0 SHL PUSH2 0x27F JUMP JUMPDEST SWAP1 POP PUSH2 0x5C4 PUSH8 0x8A9AC22BFFE09CD PUSH1 0xC0 SHL PUSH2 0x27C JUMP JUMPDEST PUSH2 0x5D8 PUSH8 0x7644229D0154DF66 PUSH1 0xC0 SHL PUSH2 0x27C JUMP JUMPDEST PUSH2 0x5EC PUSH8 0x5BD779080DFA9B4A PUSH1 0xC0 SHL PUSH2 0x27C JUMP JUMPDEST DUP1 PUSH20 0xFFFFFFFFFFFFFFFFFFFFFFFFFFFFFFFFFFFFFFFF AND CALLER PUSH20 0xFFFFFFFFFFFFFFFFFFFFFFFFFFFFFFFFFFFFFFFF AND EQ PUSH2 0x65A JUMPI PUSH1 0x40 MLOAD PUSH32 0x8C379A000000000000000000000000000000000000000000000000000000000 DUP2 MSTORE PUSH1 0x4 ADD PUSH2 0x651 SWAP1 PUSH2 0x943 JUMP JUMPDEST PUSH1 0x40 MLOAD DUP1 SWAP2 SUB SWAP1 REVERT JUMPDEST PUSH2 0x66E PUSH8 0x32A054F20EBE0522 PUSH1 0xC0 SHL PUSH2 0x27C JUMP JUMPDEST PUSH2 0x682 PUSH8 0x9AF21D3E250369D3 PUSH1 0xC0 SHL PUSH2 0x27C JUMP JUMPDEST PUSH2 0x696 PUSH8 0xA0327DC5503BC637 PUSH1 0xC0 SHL PUSH2 0x27C JUMP JUMPDEST PUSH2 0x6AA PUSH8 0x80268E0E48A8868D PUSH1 0xC0 SHL PUSH2 0x27C JUMP JUMPDEST PUSH2 0x6BE PUSH8 0x945CF222BF3F8506 PUSH1 0xC0 SHL PUSH2 0x27C JUMP JUMPDEST PUSH2 0x6D2 PUSH8 0xCA2355FCA2B6B3DE PUSH1 0xC0 SHL PUSH2 0x27C JUMP JUMPDEST PUSH2 0x70E PUSH1 0x1 PUSH32 0xB618D9D3ACAE9868EFBD61E58009D02A18B4C68C820F7D374893E09CC600F2CE PUSH1 0x0 SHR PUSH2 0x705 SWAP2 SWAP1 PUSH2 0x77A JUMP JUMPDEST PUSH1 0x0 SHL DUP4 PUSH2 0x712 JUMP JUMPDEST POP POP JUMP JUMPDEST PUSH2 0x726 PUSH8 0x3BF0EB899936ED67 PUSH1 0xC0 SHL PUSH2 0x27C JUMP JUMPDEST PUSH2 0x73A PUSH8 0x9D6191D532B17A8E PUSH1 0xC0 SHL PUSH2 0x27C JUMP JUMPDEST DUP1 DUP3 SSTORE POP POP JUMP JUMPDEST PUSH1 0x0 DUP2 SWAP1 POP SWAP2 SWAP1 POP JUMP JUMPDEST PUSH32 0x4E487B7100000000000000000000000000000000000000000000000000000000 PUSH1 0x0 MSTORE PUSH1 0x11 PUSH1 0x4 MSTORE PUSH1 0x24 PUSH1 0x0 REVERT JUMPDEST PUSH1 0x0 PUSH2 0x785 DUP3 PUSH2 0x741 JUMP JUMPDEST SWAP2 POP PUSH2 0x790 DUP4 PUSH2 0x741 JUMP JUMPDEST SWAP3 POP DUP3 DUP3 SUB SWAP1 POP DUP2 DUP2 GT ISZERO PUSH2 0x7A8 JUMPI PUSH2 0x7A7 PUSH2 0x74B JUMP JUMPDEST JUMPDEST SWAP3 SWAP2 POP POP JUMP JUMPDEST PUSH1 0x0 DUP2 SWAP1 POP SWAP3 SWAP2 POP POP JUMP JUMPDEST DUP3 DUP2 DUP4 CALLDATACOPY PUSH1 0x0 DUP4 DUP4 ADD MSTORE POP POP POP JUMP JUMPDEST PUSH1 0x0 PUSH2 0x7D4 DUP4 DUP6 PUSH2 0x7AE JUMP JUMPDEST SWAP4 POP PUSH2 0x7E1 DUP4 DUP6 DUP5 PUSH2 0x7B9 JUMP JUMPDEST DUP3 DUP5 ADD SWAP1 POP SWAP4 SWAP3 POP POP POP JUMP JUMPDEST PUSH1 0x0 PUSH2 0x7FA DUP3 DUP5 DUP7 PUSH2 0x7C8 JUMP JUMPDEST SWAP2 POP DUP2 SWAP1 POP SWAP4 SWAP3 POP POP POP JUMP JUMPDEST PUSH1 0x0 DUP1 REVERT JUMPDEST PUSH1 0x0 PUSH20 0xFFFFFFFFFFFFFFFFFFFFFFFFFFFFFFFFFFFFFFFF DUP3 AND SWAP1 POP SWAP2 SWAP1 POP JUMP JUMPDEST PUSH1 0x0 PUSH2 0x836 DUP3 PUSH2 0x80B JUMP JUMPDEST SWAP1 POP SWAP2 SWAP1 POP JUMP JUMPDEST PUSH2 0x846 DUP2 PUSH2 0x82B JUMP JUMPDEST DUP2 EQ PUSH2 0x851 JUMPI PUSH1 0x0 DUP1 REVERT JUMPDEST POP JUMP JUMPDEST PUSH1 0x0 DUP2 CALLDATALOAD SWAP1 POP PUSH2 0x863 DUP2 PUSH2 0x83D JUMP JUMPDEST SWAP3 SWAP2 POP POP JUMP JUMPDEST PUSH1 0x0 PUSH1 0x20 DUP3 DUP5 SUB SLT ISZERO PUSH2 0x87F JUMPI PUSH2 0x87E PUSH2 0x806 JUMP JUMPDEST JUMPDEST PUSH1 0x0 PUSH2 0x88D DUP5 DUP3 DUP6 ADD PUSH2 0x854 JUMP JUMPDEST SWAP2 POP POP SWAP3 SWAP2 POP POP JUMP JUMPDEST PUSH2 0x89F DUP2 PUSH2 0x82B JUMP JUMPDEST DUP3 MSTORE POP POP JUMP JUMPDEST PUSH1 0x0 PUSH1 0x20 DUP3 ADD SWAP1 POP PUSH2 0x8BA PUSH1 0x0 DUP4 ADD DUP5 PUSH2 0x896 JUMP JUMPDEST SWAP3 SWAP2 POP POP JUMP JUMPDEST PUSH1 0x0 DUP3 DUP3 MSTORE PUSH1 0x20 DUP3 ADD SWAP1 POP SWAP3 SWAP2 POP POP JUMP JUMPDEST PUSH32 0x4F6E6C79204F776E65722063616E2075736520746869732066756E6374696F6E PUSH1 0x0 DUP3 ADD MSTORE PUSH32 0x2E00000000000000000000000000000000000000000000000000000000000000 PUSH1 0x20 DUP3 ADD MSTORE POP JUMP JUMPDEST PUSH1 0x0 PUSH2 0x92D PUSH1 0x21 DUP4 PUSH2 0x8C0 JUMP JUMPDEST SWAP2 POP PUSH2 0x938 DUP3 PUSH2 0x8D1 JUMP JUMPDEST PUSH1 0x40 DUP3 ADD SWAP1 POP SWAP2 SWAP1 POP JUMP JUMPDEST PUSH1 0x0 PUSH1 0x20 DUP3 ADD SWAP1 POP DUP2 DUP2 SUB PUSH1 0x0 DUP4 ADD MSTORE PUSH2 0x95C DUP2 PUSH2 0x920 JUMP JUMPDEST SWAP1 POP SWAP2 SWAP1 POP JUMP INVALID LOG2 PUSH5 0x6970667358 0x22 SLT KECCAK256 GAS 0xDE 0x4F STATICCALL PUSH22 0x92742C62D4DC8E451352838D1DC2D1760498FBECC0DC BALANCE PREVRANDAO 0xE8 PUSH9 0x5A64736F6C63430008 SLT STOP CALLER LOG2 PUSH5 0x6970667358 0x22 SLT KECCAK256 PUSH14 0xCA1C197DBBE50986C740B38EDF7A LT 0xB6 PUSH4 0x2F395367 SUB KECCAK256 0x5F 0x28 DUP14 0xB7 MLOAD SDIV 0x4C 0xDD PUSH5 0x736F6C6343 STOP ADDMOD SLT STOP CALLER "},"methodIdentifiers":{"contractAddr()":"15a5d9d8","deploySafe()":"644f7aac","deploySafeProxy()":"9a8787bf","getAddress()":"38cc4831","implementation()":"5c60da1b","owner()":"8da5cb5b","updateImplementation(address)":"025b22bc"}}}}}