{
  "_format": "hh-sol-artifact-1",
  "contractName": "StoreFund_v3",
  "sourceName": "contracts/SafeUpgradeable copy.sol",
  "abi": [
    {
      "inputs": [
        {
          "internalType": "address",
          "name": "",
          "type": "address"
        },
        {
          "internalType": "address",
          "name": "",
          "type": "address"
        }
      ],
      "name": "balances",
      "outputs": [
        {
          "internalType": "uint256",
          "name": "",
          "type": "uint256"
        }
      ],
      "stateMutability": "view",
      "type": "function"
    },
    {
      "inputs": [
        {
          "internalType": "address",
          "name": "tokenAddress",
          "type": "address"
        },
        {
          "internalType": "uint256",
          "name": "amount",
          "type": "uint256"
        }
      ],
      "name": "deposit",
      "outputs": [],
      "stateMutability": "nonpayable",
      "type": "function"
    },
    {
      "inputs": [
        {
          "internalType": "address",
          "name": "NewOwner",
          "type": "address"
        }
      ],
      "name": "initialize",
      "outputs": [],
      "stateMutability": "nonpayable",
      "type": "function"
    },
    {
      "inputs": [],
      "name": "initialized",
      "outputs": [
        {
          "internalType": "bool",
          "name": "",
          "type": "bool"
        }
      ],
      "stateMutability": "view",
      "type": "function"
    },
    {
      "inputs": [],
      "name": "owner",
      "outputs": [
        {
          "internalType": "address",
          "name": "",
          "type": "address"
        }
      ],
      "stateMutability": "view",
      "type": "function"
    },
    {
      "inputs": [
        {
          "internalType": "address",
          "name": "tokenAddress",
          "type": "address"
        }
      ],
      "name": "takefee",
      "outputs": [],
      "stateMutability": "nonpayable",
      "type": "function"
    },
    {
      "inputs": [
        {
          "internalType": "address",
          "name": "",
          "type": "address"
        }
      ],
      "name": "totalfee",
      "outputs": [
        {
          "internalType": "uint256",
          "name": "",
          "type": "uint256"
        }
      ],
      "stateMutability": "view",
      "type": "function"
    },
    {
      "inputs": [
        {
          "internalType": "address",
          "name": "tokenAddress",
          "type": "address"
        },
        {
          "internalType": "uint256",
          "name": "amount",
          "type": "uint256"
        }
      ],
      "name": "withdraw",
      "outputs": [],
      "stateMutability": "nonpayable",
      "type": "function"
    }
  ],
  "bytecode": "0x608060405234801561001057600080fd5b5061002b6782e97c51667abe8160c01b61008a60201b60201c565b61004567c073873cda03a32260c01b61008a60201b60201c565b336000806101000a81548173ffffffffffffffffffffffffffffffffffffffff021916908373ffffffffffffffffffffffffffffffffffffffff16021790555061008d565b50565b6116108061009c6000396000f3fe608060405234801561001057600080fd5b50600436106100885760003560e01c80638da5cb5b1161005b5780638da5cb5b14610113578063c23f001f14610131578063c4d66de814610161578063f3fef3a31461017d57610088565b8063158ef93e1461008d5780631e89dfb6146100ab578063465ded82146100c757806347e7ef24146100f7575b600080fd5b610095610199565b6040516100a29190610e29565b60405180910390f35b6100c560048036038101906100c09190610ea7565b6101ac565b005b6100e160048036038101906100dc9190610ea7565b6103fc565b6040516100ee9190610eed565b60405180910390f35b610111600480360381019061010c9190610f34565b610414565b005b61011b61073d565b6040516101289190610f83565b60405180910390f35b61014b60048036038101906101469190610f9e565b610761565b6040516101589190610eed565b60405180910390f35b61017b60048036038101906101769190610ea7565b610786565b005b61019760048036038101906101929190610f34565b6108c0565b005b600360009054906101000a900460ff1681565b6101c0670a73c32bd27672cd60c01b610a65565b6101d467510575f7073b97e260c01b610a68565b6101e867177c9205c2a78af760c01b610a68565b6101fc671ada4664e7bf6be060c01b610a68565b61021067b29854cd2f33e17d60c01b610a68565b60008054906101000a900473ffffffffffffffffffffffffffffffffffffffff1673ffffffffffffffffffffffffffffffffffffffff163373ffffffffffffffffffffffffffffffffffffffff161461029e576040517f08c379a000000000000000000000000000000000000000000000000000000000815260040161029590611061565b60405180910390fd5b6102b267547c7c68a5b6959760c01b610a68565b6102c667e666bb00d82d5bcd60c01b610a68565b6102da676a8e811f62a0d9e960c01b610a65565b6102ee674389956f3fad7a5660c01b610a65565b61030267a9437b98783935bb60c01b610a65565b61031667b7149b1d30a4ef1860c01b610a65565b6103a060008054906101000a900473ffffffffffffffffffffffffffffffffffffffff16600260008473ffffffffffffffffffffffffffffffffffffffff1673ffffffffffffffffffffffffffffffffffffffff168152602001908152602001600020548373ffffffffffffffffffffffffffffffffffffffff16610a6b9092919063ffffffff16565b6103b467a770cac7a5c5001460c01b610a65565b6000600260008373ffffffffffffffffffffffffffffffffffffffff1673ffffffffffffffffffffffffffffffffffffffff1681526020019081526020016000208190555050565b60026020528060005260406000206000915090505481565b610428671b75be7945b32bd360c01b610a65565b61043c6724ce823f2f1a751460c01b610a65565b610450678b70cfecc2e5122160c01b610a65565b61046467e205608eb4a9494b60c01b610a65565b600081116104a7576040517f08c379a000000000000000000000000000000000000000000000000000000000815260040161049e906110cd565b60405180910390fd5b6104bb6758cd737b406aed1760c01b610a65565b6104cf67b5de139bc8e9632260c01b610a65565b6104e3670a8dc61a1012c89560c01b610a65565b60006104f967bb73e2a1d687dc4360c01b610a65565b61050d67a0a93a7f91713c1860c01b610a65565b61053a3330848673ffffffffffffffffffffffffffffffffffffffff16610af1909392919063ffffffff16565b61054e673d11ecd4b29df2d860c01b610a65565b6105626761820e85f7fa0f4c60c01b610a65565b6103e88210156105c0576105806733c9169dfcc73c1a60c01b610a65565b610594670db721ada110f40660c01b610a65565b600190506105ac67dfc177e25eca800d60c01b610a65565b6001826105b9919061111c565b9150610627565b6105d467144ad93c89b60d3160c01b610a65565b6105e86775d7c973790fbc6960c01b610a65565b6127106014836105f89190611150565b61060291906111c1565b90506106186779b76dd7487d51d760c01b610a65565b8082610624919061111c565b91505b61063b676e265c67fac7088660c01b610a65565b81600160003373ffffffffffffffffffffffffffffffffffffffff1673ffffffffffffffffffffffffffffffffffffffff16815260200190815260200160002060008573ffffffffffffffffffffffffffffffffffffffff1673ffffffffffffffffffffffffffffffffffffffff16815260200190815260200160002060008282546106c791906111f2565b925050819055506106e2676fd44e26aad41de560c01b610a65565b80600260008573ffffffffffffffffffffffffffffffffffffffff1673ffffffffffffffffffffffffffffffffffffffff168152602001908152602001600020600082825461073191906111f2565b92505081905550505050565b60008054906101000a900473ffffffffffffffffffffffffffffffffffffffff1681565b6001602052816000526040600020602052806000526040600020600091509150505481565b61079a677e93274def5536c160c01b610a65565b6107ae6754158759e1e9c50060c01b610a65565b6107c26790637e30888c29df60c01b610a65565b6107d66795a4ddcfc1168c7260c01b610a65565b600360009054906101000a900460ff1615610826576040517f08c379a000000000000000000000000000000000000000000000000000000000815260040161081d90611272565b60405180910390fd5b61083a671c3b061379b6437960c01b610a65565b61084e67404b51739e82370b60c01b610a65565b806000806101000a81548173ffffffffffffffffffffffffffffffffffffffff021916908373ffffffffffffffffffffffffffffffffffffffff1602179055506108a26726b1946548f1ee4f60c01b610a65565b6001600360006101000a81548160ff02191690831515021790555050565b6108d467db14b3b38ed703d960c01b610a65565b6108e867f8ef89de6fe1d60b60c01b610a65565b6108fc67f36763198c03b58660c01b610a65565b61091067da58aff0452a566360c01b610a65565b60008111610953576040517f08c379a000000000000000000000000000000000000000000000000000000000815260040161094a906110cd565b60405180910390fd5b6109676715f167256244c9f560c01b610a65565b61097b677599284a55af163260c01b610a65565b80600160003373ffffffffffffffffffffffffffffffffffffffff1673ffffffffffffffffffffffffffffffffffffffff16815260200190815260200160002060008473ffffffffffffffffffffffffffffffffffffffff1673ffffffffffffffffffffffffffffffffffffffff1681526020019081526020016000206000828254610a07919061111c565b92505081905550610a2267ba02a2d2e9827dc260c01b610a65565b610a36675ecad7d0edf8182460c01b610a65565b610a6133828473ffffffffffffffffffffffffffffffffffffffff16610a6b9092919063ffffffff16565b5050565b50565b50565b610aec8363a9059cbb60e01b8484604051602401610a8a929190611292565b604051602081830303815290604052907bffffffffffffffffffffffffffffffffffffffffffffffffffffffff19166020820180517bffffffffffffffffffffffffffffffffffffffffffffffffffffffff8381831617835250505050610b7a565b505050565b610b74846323b872dd60e01b858585604051602401610b12939291906112bb565b604051602081830303815290604052907bffffffffffffffffffffffffffffffffffffffffffffffffffffffff19166020820180517bffffffffffffffffffffffffffffffffffffffffffffffffffffffff8381831617835250505050610b7a565b50505050565b6000610bdc826040518060400160405280602081526020017f5361666545524332303a206c6f772d6c6576656c2063616c6c206661696c65648152508573ffffffffffffffffffffffffffffffffffffffff16610c419092919063ffffffff16565b9050600081511115610c3c5780806020019051810190610bfc919061131e565b610c3b576040517f08c379a0000000000000000000000000000000000000000000000000000000008152600401610c32906113bd565b60405180910390fd5b5b505050565b6060610c508484600085610c59565b90509392505050565b606082471015610c9e576040517f08c379a0000000000000000000000000000000000000000000000000000000008152600401610c959061144f565b60405180910390fd5b6000808673ffffffffffffffffffffffffffffffffffffffff168587604051610cc791906114e0565b60006040518083038185875af1925050503d8060008114610d04576040519150601f19603f3d011682016040523d82523d6000602084013e610d09565b606091505b5091509150610d1a87838387610d26565b92505050949350505050565b60608315610d88576000835103610d8057610d4085610d9b565b610d7f576040517f08c379a0000000000000000000000000000000000000000000000000000000008152600401610d7690611543565b60405180910390fd5b5b829050610d93565b610d928383610dbe565b5b949350505050565b6000808273ffffffffffffffffffffffffffffffffffffffff163b119050919050565b600082511115610dd15781518083602001fd5b806040517f08c379a0000000000000000000000000000000000000000000000000000000008152600401610e0591906115b8565b60405180910390fd5b60008115159050919050565b610e2381610e0e565b82525050565b6000602082019050610e3e6000830184610e1a565b92915050565b600080fd5b600073ffffffffffffffffffffffffffffffffffffffff82169050919050565b6000610e7482610e49565b9050919050565b610e8481610e69565b8114610e8f57600080fd5b50565b600081359050610ea181610e7b565b92915050565b600060208284031215610ebd57610ebc610e44565b5b6000610ecb84828501610e92565b91505092915050565b6000819050919050565b610ee781610ed4565b82525050565b6000602082019050610f026000830184610ede565b92915050565b610f1181610ed4565b8114610f1c57600080fd5b50565b600081359050610f2e81610f08565b92915050565b60008060408385031215610f4b57610f4a610e44565b5b6000610f5985828601610e92565b9250506020610f6a85828601610f1f565b9150509250929050565b610f7d81610e69565b82525050565b6000602082019050610f986000830184610f74565b92915050565b60008060408385031215610fb557610fb4610e44565b5b6000610fc385828601610e92565b9250506020610fd485828601610e92565b9150509250929050565b600082825260208201905092915050565b7f4f6e6c79204f776e65722063616e2075736520746869732066756e6374696f6e60008201527f2e00000000000000000000000000000000000000000000000000000000000000602082015250565b600061104b602183610fde565b915061105682610fef565b604082019050919050565b6000602082019050818103600083015261107a8161103e565b9050919050565b7f416d6f756e742073686f756c64206265206c6172676572207468616e20302e00600082015250565b60006110b7601f83610fde565b91506110c282611081565b602082019050919050565b600060208201905081810360008301526110e6816110aa565b9050919050565b7f4e487b7100000000000000000000000000000000000000000000000000000000600052601160045260246000fd5b600061112782610ed4565b915061113283610ed4565b925082820390508181111561114a576111496110ed565b5b92915050565b600061115b82610ed4565b915061116683610ed4565b925082820261117481610ed4565b9150828204841483151761118b5761118a6110ed565b5b5092915050565b7f4e487b7100000000000000000000000000000000000000000000000000000000600052601260045260246000fd5b60006111cc82610ed4565b91506111d783610ed4565b9250826111e7576111e6611192565b5b828204905092915050565b60006111fd82610ed4565b915061120883610ed4565b92508282019050808211156112205761121f6110ed565b5b92915050565b7f616c726561647920696e697469616c697a656400000000000000000000000000600082015250565b600061125c601383610fde565b915061126782611226565b602082019050919050565b6000602082019050818103600083015261128b8161124f565b9050919050565b60006040820190506112a76000830185610f74565b6112b46020830184610ede565b9392505050565b60006060820190506112d06000830186610f74565b6112dd6020830185610f74565b6112ea6040830184610ede565b949350505050565b6112fb81610e0e565b811461130657600080fd5b50565b600081519050611318816112f2565b92915050565b60006020828403121561133457611333610e44565b5b600061134284828501611309565b91505092915050565b7f5361666545524332303a204552433230206f7065726174696f6e20646964206e60008201527f6f74207375636365656400000000000000000000000000000000000000000000602082015250565b60006113a7602a83610fde565b91506113b28261134b565b604082019050919050565b600060208201905081810360008301526113d68161139a565b9050919050565b7f416464726573733a20696e73756666696369656e742062616c616e636520666f60008201527f722063616c6c0000000000000000000000000000000000000000000000000000602082015250565b6000611439602683610fde565b9150611444826113dd565b604082019050919050565b600060208201905081810360008301526114688161142c565b9050919050565b600081519050919050565b600081905092915050565b60005b838110156114a3578082015181840152602081019050611488565b60008484015250505050565b60006114ba8261146f565b6114c4818561147a565b93506114d4818560208601611485565b80840191505092915050565b60006114ec82846114af565b915081905092915050565b7f416464726573733a2063616c6c20746f206e6f6e2d636f6e7472616374000000600082015250565b600061152d601d83610fde565b9150611538826114f7565b602082019050919050565b6000602082019050818103600083015261155c81611520565b9050919050565b600081519050919050565b6000601f19601f8301169050919050565b600061158a82611563565b6115948185610fde565b93506115a4818560208601611485565b6115ad8161156e565b840191505092915050565b600060208201905081810360008301526115d2818461157f565b90509291505056fea2646970667358221220317d083f8744f5faed59f227b714b8bdbf063eef2fef6066e262e804a1d453b964736f6c63430008120033",
  "linkReferences": {},
  "deployedLinkReferences": {}
}