{
  "_format": "hh-sol-artifact-1",
  "contractName": "StoreFund",
  "sourceName": "contracts/safe.sol",
  "abi": [
    {
      "inputs": [
        {
          "internalType": "address",
          "name": "whodeploy",
          "type": "address"
        }
      ],
      "stateMutability": "nonpayable",
      "type": "constructor"
    },
    {
      "inputs": [
        {
          "internalType": "address",
          "name": "",
          "type": "address"
        },
        {
          "internalType": "address",
          "name": "",
          "type": "address"
        }
      ],
      "name": "balances",
      "outputs": [
        {
          "internalType": "uint256",
          "name": "",
          "type": "uint256"
        }
      ],
      "stateMutability": "view",
      "type": "function"
    },
    {
      "inputs": [
        {
          "internalType": "address",
          "name": "tokenAddress",
          "type": "address"
        },
        {
          "internalType": "uint256",
          "name": "amount",
          "type": "uint256"
        }
      ],
      "name": "deposit",
      "outputs": [],
      "stateMutability": "nonpayable",
      "type": "function"
    },
    {
      "inputs": [],
      "name": "owner",
      "outputs": [
        {
          "internalType": "address",
          "name": "",
          "type": "address"
        }
      ],
      "stateMutability": "view",
      "type": "function"
    },
    {
      "inputs": [
        {
          "internalType": "address",
          "name": "tokenAddress",
          "type": "address"
        }
      ],
      "name": "takefee",
      "outputs": [],
      "stateMutability": "nonpayable",
      "type": "function"
    },
    {
      "inputs": [
        {
          "internalType": "address",
          "name": "",
          "type": "address"
        }
      ],
      "name": "totalfee",
      "outputs": [
        {
          "internalType": "uint256",
          "name": "",
          "type": "uint256"
        }
      ],
      "stateMutability": "view",
      "type": "function"
    },
    {
      "inputs": [
        {
          "internalType": "address",
          "name": "tokenAddress",
          "type": "address"
        },
        {
          "internalType": "uint256",
          "name": "amount",
          "type": "uint256"
        }
      ],
      "name": "withdraw",
      "outputs": [],
      "stateMutability": "nonpayable",
      "type": "function"
    }
  ],
  "bytecode": "0x60806040523480156200001157600080fd5b506040516200153238038062001532833981810160405281019062000037919062000123565b62000053676fc376605781402860c01b620000b660201b60201c565b6200006f6751405ecf13d3953260c01b620000b660201b60201c565b806000806101000a81548173ffffffffffffffffffffffffffffffffffffffff021916908373ffffffffffffffffffffffffffffffffffffffff1602179055505062000155565b50565b600080fd5b600073ffffffffffffffffffffffffffffffffffffffff82169050919050565b6000620000eb82620000be565b9050919050565b620000fd81620000de565b81146200010957600080fd5b50565b6000815190506200011d81620000f2565b92915050565b6000602082840312156200013c576200013b620000b9565b5b60006200014c848285016200010c565b91505092915050565b6113cd80620001656000396000f3fe608060405234801561001057600080fd5b50600436106100625760003560e01c80631e89dfb614610067578063465ded821461008357806347e7ef24146100b35780638da5cb5b146100cf578063c23f001f146100ed578063f3fef3a31461011d575b600080fd5b610081600480360381019061007c9190610cc4565b610139565b005b61009d60048036038101906100989190610cc4565b610389565b6040516100aa9190610d0a565b60405180910390f35b6100cd60048036038101906100c89190610d51565b6103a1565b005b6100d76106ca565b6040516100e49190610da0565b60405180910390f35b61010760048036038101906101029190610dbb565b6106ee565b6040516101149190610d0a565b60405180910390f35b61013760048036038101906101329190610d51565b610713565b005b61014d67c160147c5fe3880760c01b6108b8565b6101616726c7004522a429fb60c01b6108bb565b61017567df23a199d37c695b60c01b6108bb565b61018967bddaaf3812e5a25060c01b6108bb565b61019d674bdaf2107fa8fd6f60c01b6108bb565b60008054906101000a900473ffffffffffffffffffffffffffffffffffffffff1673ffffffffffffffffffffffffffffffffffffffff163373ffffffffffffffffffffffffffffffffffffffff161461022b576040517f08c379a000000000000000000000000000000000000000000000000000000000815260040161022290610e7e565b60405180910390fd5b61023f67acf7d2992e2e72ff60c01b6108bb565b61025367643c8e338ba14e0660c01b6108bb565b6102676715e44f716eb440d760c01b6108b8565b61027b67a45004c54bf3754f60c01b6108b8565b61028f6707602f9eaa77291760c01b6108b8565b6102a36713ce91dfaedeff6760c01b6108b8565b61032d60008054906101000a900473ffffffffffffffffffffffffffffffffffffffff16600260008473ffffffffffffffffffffffffffffffffffffffff1673ffffffffffffffffffffffffffffffffffffffff168152602001908152602001600020548373ffffffffffffffffffffffffffffffffffffffff166108be9092919063ffffffff16565b61034167279a44395b8d3c4360c01b6108b8565b6000600260008373ffffffffffffffffffffffffffffffffffffffff1673ffffffffffffffffffffffffffffffffffffffff1681526020019081526020016000208190555050565b60026020528060005260406000206000915090505481565b6103b5673957059f26f3feaa60c01b6108b8565b6103c96765fcac3f022f8e7d60c01b6108b8565b6103dd67b28cd1f14b1f549960c01b6108b8565b6103f167bfd3d8718f75efa560c01b6108b8565b60008111610434576040517f08c379a000000000000000000000000000000000000000000000000000000000815260040161042b90610eea565b60405180910390fd5b610448676e57b499be5879f560c01b6108b8565b61045c678c93488e93f7976460c01b6108b8565b61047067292a3aae12c9775460c01b6108b8565b6000610486676d47e79eefa720f460c01b6108b8565b61049a67f7777fcdcbbc37f160c01b6108b8565b6104c73330848673ffffffffffffffffffffffffffffffffffffffff16610944909392919063ffffffff16565b6104db67fa675e5278d5a30060c01b6108b8565b6104ef67e5ae6292417ebbe760c01b6108b8565b6103e882101561054d5761050d67b46ade4dd0f4be8260c01b6108b8565b61052167418cf1b3a2518d3f60c01b6108b8565b60019050610539675fb9e1c149346da660c01b6108b8565b6001826105469190610f39565b91506105b4565b6105616736f648fba366969460c01b6108b8565b61057567a666ea1911503dc860c01b6108b8565b612710600a836105859190610f6d565b61058f9190610fde565b90506105a5675069f69f6b6c338f60c01b6108b8565b80826105b19190610f39565b91505b6105c867e6e3ef71b83e928060c01b6108b8565b81600160003373ffffffffffffffffffffffffffffffffffffffff1673ffffffffffffffffffffffffffffffffffffffff16815260200190815260200160002060008573ffffffffffffffffffffffffffffffffffffffff1673ffffffffffffffffffffffffffffffffffffffff1681526020019081526020016000206000828254610654919061100f565b9250508190555061066f67e79723449f85aff560c01b6108b8565b80600260008573ffffffffffffffffffffffffffffffffffffffff1673ffffffffffffffffffffffffffffffffffffffff16815260200190815260200160002060008282546106be919061100f565b92505081905550505050565b60008054906101000a900473ffffffffffffffffffffffffffffffffffffffff1681565b6001602052816000526040600020602052806000526040600020600091509150505481565b6107276733d3c2e8537172ee60c01b6108b8565b61073b673cfe208a28d771c060c01b6108b8565b61074f67e9fff55a3ca2418c60c01b6108b8565b61076367873dd71f49b1d3fd60c01b6108b8565b600081116107a6576040517f08c379a000000000000000000000000000000000000000000000000000000000815260040161079d90610eea565b60405180910390fd5b6107ba67800f8a20ff0094d960c01b6108b8565b6107ce677194b66831fc688160c01b6108b8565b80600160003373ffffffffffffffffffffffffffffffffffffffff1673ffffffffffffffffffffffffffffffffffffffff16815260200190815260200160002060008473ffffffffffffffffffffffffffffffffffffffff1673ffffffffffffffffffffffffffffffffffffffff168152602001908152602001600020600082825461085a9190610f39565b9250508190555061087567a2eccc84988205c860c01b6108b8565b610889670735f7f3b946137460c01b6108b8565b6108b433828473ffffffffffffffffffffffffffffffffffffffff166108be9092919063ffffffff16565b5050565b50565b50565b61093f8363a9059cbb60e01b84846040516024016108dd929190611043565b604051602081830303815290604052907bffffffffffffffffffffffffffffffffffffffffffffffffffffffff19166020820180517bffffffffffffffffffffffffffffffffffffffffffffffffffffffff83818316178352505050506109cd565b505050565b6109c7846323b872dd60e01b8585856040516024016109659392919061106c565b604051602081830303815290604052907bffffffffffffffffffffffffffffffffffffffffffffffffffffffff19166020820180517bffffffffffffffffffffffffffffffffffffffffffffffffffffffff83818316178352505050506109cd565b50505050565b6000610a2f826040518060400160405280602081526020017f5361666545524332303a206c6f772d6c6576656c2063616c6c206661696c65648152508573ffffffffffffffffffffffffffffffffffffffff16610a949092919063ffffffff16565b9050600081511115610a8f5780806020019051810190610a4f91906110db565b610a8e576040517f08c379a0000000000000000000000000000000000000000000000000000000008152600401610a859061117a565b60405180910390fd5b5b505050565b6060610aa38484600085610aac565b90509392505050565b606082471015610af1576040517f08c379a0000000000000000000000000000000000000000000000000000000008152600401610ae89061120c565b60405180910390fd5b6000808673ffffffffffffffffffffffffffffffffffffffff168587604051610b1a919061129d565b60006040518083038185875af1925050503d8060008114610b57576040519150601f19603f3d011682016040523d82523d6000602084013e610b5c565b606091505b5091509150610b6d87838387610b79565b92505050949350505050565b60608315610bdb576000835103610bd357610b9385610bee565b610bd2576040517f08c379a0000000000000000000000000000000000000000000000000000000008152600401610bc990611300565b60405180910390fd5b5b829050610be6565b610be58383610c11565b5b949350505050565b6000808273ffffffffffffffffffffffffffffffffffffffff163b119050919050565b600082511115610c245781518083602001fd5b806040517f08c379a0000000000000000000000000000000000000000000000000000000008152600401610c589190611375565b60405180910390fd5b600080fd5b600073ffffffffffffffffffffffffffffffffffffffff82169050919050565b6000610c9182610c66565b9050919050565b610ca181610c86565b8114610cac57600080fd5b50565b600081359050610cbe81610c98565b92915050565b600060208284031215610cda57610cd9610c61565b5b6000610ce884828501610caf565b91505092915050565b6000819050919050565b610d0481610cf1565b82525050565b6000602082019050610d1f6000830184610cfb565b92915050565b610d2e81610cf1565b8114610d3957600080fd5b50565b600081359050610d4b81610d25565b92915050565b60008060408385031215610d6857610d67610c61565b5b6000610d7685828601610caf565b9250506020610d8785828601610d3c565b9150509250929050565b610d9a81610c86565b82525050565b6000602082019050610db56000830184610d91565b92915050565b60008060408385031215610dd257610dd1610c61565b5b6000610de085828601610caf565b9250506020610df185828601610caf565b9150509250929050565b600082825260208201905092915050565b7f4f6e6c79204f776e65722063616e2075736520746869732066756e6374696f6e60008201527f2e00000000000000000000000000000000000000000000000000000000000000602082015250565b6000610e68602183610dfb565b9150610e7382610e0c565b604082019050919050565b60006020820190508181036000830152610e9781610e5b565b9050919050565b7f416d6f756e742073686f756c64206265206c6172676572207468616e20302e00600082015250565b6000610ed4601f83610dfb565b9150610edf82610e9e565b602082019050919050565b60006020820190508181036000830152610f0381610ec7565b9050919050565b7f4e487b7100000000000000000000000000000000000000000000000000000000600052601160045260246000fd5b6000610f4482610cf1565b9150610f4f83610cf1565b9250828203905081811115610f6757610f66610f0a565b5b92915050565b6000610f7882610cf1565b9150610f8383610cf1565b9250828202610f9181610cf1565b91508282048414831517610fa857610fa7610f0a565b5b5092915050565b7f4e487b7100000000000000000000000000000000000000000000000000000000600052601260045260246000fd5b6000610fe982610cf1565b9150610ff483610cf1565b92508261100457611003610faf565b5b828204905092915050565b600061101a82610cf1565b915061102583610cf1565b925082820190508082111561103d5761103c610f0a565b5b92915050565b60006040820190506110586000830185610d91565b6110656020830184610cfb565b9392505050565b60006060820190506110816000830186610d91565b61108e6020830185610d91565b61109b6040830184610cfb565b949350505050565b60008115159050919050565b6110b8816110a3565b81146110c357600080fd5b50565b6000815190506110d5816110af565b92915050565b6000602082840312156110f1576110f0610c61565b5b60006110ff848285016110c6565b91505092915050565b7f5361666545524332303a204552433230206f7065726174696f6e20646964206e60008201527f6f74207375636365656400000000000000000000000000000000000000000000602082015250565b6000611164602a83610dfb565b915061116f82611108565b604082019050919050565b6000602082019050818103600083015261119381611157565b9050919050565b7f416464726573733a20696e73756666696369656e742062616c616e636520666f60008201527f722063616c6c0000000000000000000000000000000000000000000000000000602082015250565b60006111f6602683610dfb565b91506112018261119a565b604082019050919050565b60006020820190508181036000830152611225816111e9565b9050919050565b600081519050919050565b600081905092915050565b60005b83811015611260578082015181840152602081019050611245565b60008484015250505050565b60006112778261122c565b6112818185611237565b9350611291818560208601611242565b80840191505092915050565b60006112a9828461126c565b915081905092915050565b7f416464726573733a2063616c6c20746f206e6f6e2d636f6e7472616374000000600082015250565b60006112ea601d83610dfb565b91506112f5826112b4565b602082019050919050565b60006020820190508181036000830152611319816112dd565b9050919050565b600081519050919050565b6000601f19601f8301169050919050565b600061134782611320565b6113518185610dfb565b9350611361818560208601611242565b61136a8161132b565b840191505092915050565b6000602082019050818103600083015261138f818461133c565b90509291505056fea2646970667358221220f3bdbdc8ec45e90c12166124c7abc80519c4d8538b1f980f06abd39f17e4a5bb64736f6c63430008120033",
  "linkReferences": {},
  "deployedLinkReferences": {}
}