{
  "_format": "hh-sol-artifact-1",
  "contractName": "SafeFactory",
  "sourceName": "contracts/SafeFactory.sol",
  "abi": [
    {
      "inputs": [
        {
          "internalType": "address",
          "name": "implementation_",
          "type": "address"
        }
      ],
      "stateMutability": "nonpayable",
      "type": "constructor"
    },
    {
      "inputs": [],
      "name": "contractAddr",
      "outputs": [
        {
          "internalType": "address",
          "name": "",
          "type": "address"
        }
      ],
      "stateMutability": "view",
      "type": "function"
    },
    {
      "inputs": [],
      "name": "deploySafe",
      "outputs": [],
      "stateMutability": "nonpayable",
      "type": "function"
    },
    {
      "inputs": [],
      "name": "deploySafeProxy",
      "outputs": [],
      "stateMutability": "nonpayable",
      "type": "function"
    },
    {
      "inputs": [],
      "name": "getAddress",
      "outputs": [
        {
          "internalType": "address",
          "name": "",
          "type": "address"
        }
      ],
      "stateMutability": "view",
      "type": "function"
    },
    {
      "inputs": [],
      "name": "implementation",
      "outputs": [
        {
          "internalType": "address",
          "name": "",
          "type": "address"
        }
      ],
      "stateMutability": "view",
      "type": "function"
    },
    {
      "inputs": [],
      "name": "owner",
      "outputs": [
        {
          "internalType": "address",
          "name": "",
          "type": "address"
        }
      ],
      "stateMutability": "view",
      "type": "function"
    },
    {
      "inputs": [
        {
          "internalType": "address",
          "name": "newImp",
          "type": "address"
        }
      ],
      "name": "updateImplementation",
      "outputs": [],
      "stateMutability": "nonpayable",
      "type": "function"
    }
  ],
  "bytecode": "0x608060405234801561001057600080fd5b5060405162002d6f38038062002d6f8339818101604052810190610034919061016f565b61004e674a5b5bffc7312c3a60c01b61010960201b60201c565b61006867b165cd485cd91fd960c01b61010960201b60201c565b80600160006101000a81548173ffffffffffffffffffffffffffffffffffffffff021916908373ffffffffffffffffffffffffffffffffffffffff1602179055506100c3670c9a6c61c478807f60c01b61010960201b60201c565b336000806101000a81548173ffffffffffffffffffffffffffffffffffffffff021916908373ffffffffffffffffffffffffffffffffffffffff1602179055505061019c565b50565b600080fd5b600073ffffffffffffffffffffffffffffffffffffffff82169050919050565b600061013c82610111565b9050919050565b61014c81610131565b811461015757600080fd5b50565b60008151905061016981610143565b92915050565b6000602082840312156101855761018461010c565b5b60006101938482850161015a565b91505092915050565b612bc380620001ac6000396000f3fe60806040523480156200001157600080fd5b5060043610620000885760003560e01c80635c60da1b11620000635780635c60da1b14620000f1578063644f7aac14620001135780638da5cb5b146200011f5780639a8787bf14620001415762000088565b8063025b22bc146200008d57806315a5d9d814620000ad57806338cc483114620000cf575b600080fd5b620000ab6004803603810190620000a59190620008be565b6200014d565b005b620000b7620002fe565b604051620000c6919062000901565b60405180910390f35b620000d962000324565b604051620000e8919062000901565b60405180910390f35b620000fb62000390565b6040516200010a919062000901565b60405180910390f35b6200011d620003b6565b005b62000129620005d0565b60405162000138919062000901565b60405180910390f35b6200014b620005f4565b005b6200016367fed3cb233e6bb33460c01b62000832565b620001796726c7004522a429fb60c01b62000835565b6200018f67df23a199d37c695b60c01b62000835565b620001a567bddaaf3812e5a25060c01b62000835565b620001bb674bdaf2107fa8fd6f60c01b62000835565b60008054906101000a900473ffffffffffffffffffffffffffffffffffffffff1673ffffffffffffffffffffffffffffffffffffffff163373ffffffffffffffffffffffffffffffffffffffff16146200024c576040517f08c379a00000000000000000000000000000000000000000000000000000000081526004016200024390620009a5565b60405180910390fd5b6200026267acf7d2992e2e72ff60c01b62000835565b6200027867643c8e338ba14e0660c01b62000835565b6200028e677084bb9a60dc58ef60c01b62000832565b620002a46726f8430e64ac8fb560c01b62000832565b620002ba67961d63195801daa560c01b62000832565b80600160006101000a81548173ffffffffffffffffffffffffffffffffffffffff021916908373ffffffffffffffffffffffffffffffffffffffff16021790555050565b600260009054906101000a900473ffffffffffffffffffffffffffffffffffffffff1681565b60006200033c67733d8d05d797aee260c01b62000832565b6200035267d89e4cdf02bd486360c01b62000832565b6200036867252d2b710bbdf67160c01b62000832565b600260009054906101000a900473ffffffffffffffffffffffffffffffffffffffff16905090565b600160009054906101000a900473ffffffffffffffffffffffffffffffffffffffff1681565b620003cc673e7a051677e6e4af60c01b62000832565b620003e26726c7004522a429fb60c01b62000835565b620003f867df23a199d37c695b60c01b62000835565b6200040e67bddaaf3812e5a25060c01b62000835565b62000424674bdaf2107fa8fd6f60c01b62000835565b60008054906101000a900473ffffffffffffffffffffffffffffffffffffffff1673ffffffffffffffffffffffffffffffffffffffff163373ffffffffffffffffffffffffffffffffffffffff1614620004b5576040517f08c379a0000000000000000000000000000000000000000000000000000000008152600401620004ac90620009a5565b60405180910390fd5b620004cb67acf7d2992e2e72ff60c01b62000835565b620004e167643c8e338ba14e0660c01b62000835565b620004f7678531abe5ada1ef9f60c01b62000832565b6200050d673ca90563b91601bd60c01b62000832565b6200052367e31e25e67f3ce46f60c01b62000832565b62000539675f9418bb4a9384d960c01b62000832565b6000336040516200054a9062000838565b62000556919062000901565b604051809103906000f08015801562000573573d6000803e3d6000fd5b5090506200058c6755b0fff0f19a2dcc60c01b62000832565b80600260006101000a81548173ffffffffffffffffffffffffffffffffffffffff021916908373ffffffffffffffffffffffffffffffffffffffff16021790555050565b60008054906101000a900473ffffffffffffffffffffffffffffffffffffffff1681565b6200060a677e4a1b9f5d67d37e60c01b62000832565b620006206726c7004522a429fb60c01b62000835565b6200063667df23a199d37c695b60c01b62000835565b6200064c67bddaaf3812e5a25060c01b62000835565b62000662674bdaf2107fa8fd6f60c01b62000835565b60008054906101000a900473ffffffffffffffffffffffffffffffffffffffff1673ffffffffffffffffffffffffffffffffffffffff163373ffffffffffffffffffffffffffffffffffffffff1614620006f3576040517f08c379a0000000000000000000000000000000000000000000000000000000008152600401620006ea90620009a5565b60405180910390fd5b6200070967acf7d2992e2e72ff60c01b62000835565b6200071f67643c8e338ba14e0660c01b62000835565b6200073567476cef40de561c8960c01b62000832565b6200074b67fe1949fc1ed48eda60c01b62000832565b620007616723d626f5c265589760c01b62000832565b6200077767345e5ab9ea11c35660c01b62000832565b6000600160009054906101000a900473ffffffffffffffffffffffffffffffffffffffff1633604051620007ab9062000846565b620007b8929190620009c7565b604051809103906000f080158015620007d5573d6000803e3d6000fd5b509050620007ee6775ae1eb660f5384560c01b62000832565b80600260006101000a81548173ffffffffffffffffffffffffffffffffffffffff021916908373ffffffffffffffffffffffffffffffffffffffff16021790555050565b50565b50565b61153280620009f583390190565b610c678062001f2783390190565b600080fd5b600073ffffffffffffffffffffffffffffffffffffffff82169050919050565b6000620008868262000859565b9050919050565b620008988162000879565b8114620008a457600080fd5b50565b600081359050620008b8816200088d565b92915050565b600060208284031215620008d757620008d662000854565b5b6000620008e784828501620008a7565b91505092915050565b620008fb8162000879565b82525050565b6000602082019050620009186000830184620008f0565b92915050565b600082825260208201905092915050565b7f4f6e6c79204f776e65722063616e2075736520746869732066756e6374696f6e60008201527f2e00000000000000000000000000000000000000000000000000000000000000602082015250565b60006200098d6021836200091e565b91506200099a826200092f565b604082019050919050565b60006020820190508181036000830152620009c0816200097e565b9050919050565b6000604082019050620009de6000830185620008f0565b620009ed6020830184620008f0565b939250505056fe60806040523480156200001157600080fd5b506040516200153238038062001532833981810160405281019062000037919062000123565b62000053676fc376605781402860c01b620000b660201b60201c565b6200006f6751405ecf13d3953260c01b620000b660201b60201c565b806000806101000a81548173ffffffffffffffffffffffffffffffffffffffff021916908373ffffffffffffffffffffffffffffffffffffffff1602179055505062000155565b50565b600080fd5b600073ffffffffffffffffffffffffffffffffffffffff82169050919050565b6000620000eb82620000be565b9050919050565b620000fd81620000de565b81146200010957600080fd5b50565b6000815190506200011d81620000f2565b92915050565b6000602082840312156200013c576200013b620000b9565b5b60006200014c848285016200010c565b91505092915050565b6113cd80620001656000396000f3fe608060405234801561001057600080fd5b50600436106100625760003560e01c80631e89dfb614610067578063465ded821461008357806347e7ef24146100b35780638da5cb5b146100cf578063c23f001f146100ed578063f3fef3a31461011d575b600080fd5b610081600480360381019061007c9190610cc4565b610139565b005b61009d60048036038101906100989190610cc4565b610389565b6040516100aa9190610d0a565b60405180910390f35b6100cd60048036038101906100c89190610d51565b6103a1565b005b6100d76106ca565b6040516100e49190610da0565b60405180910390f35b61010760048036038101906101029190610dbb565b6106ee565b6040516101149190610d0a565b60405180910390f35b61013760048036038101906101329190610d51565b610713565b005b61014d67c160147c5fe3880760c01b6108b8565b6101616726c7004522a429fb60c01b6108bb565b61017567df23a199d37c695b60c01b6108bb565b61018967bddaaf3812e5a25060c01b6108bb565b61019d674bdaf2107fa8fd6f60c01b6108bb565b60008054906101000a900473ffffffffffffffffffffffffffffffffffffffff1673ffffffffffffffffffffffffffffffffffffffff163373ffffffffffffffffffffffffffffffffffffffff161461022b576040517f08c379a000000000000000000000000000000000000000000000000000000000815260040161022290610e7e565b60405180910390fd5b61023f67acf7d2992e2e72ff60c01b6108bb565b61025367643c8e338ba14e0660c01b6108bb565b6102676715e44f716eb440d760c01b6108b8565b61027b67a45004c54bf3754f60c01b6108b8565b61028f6707602f9eaa77291760c01b6108b8565b6102a36713ce91dfaedeff6760c01b6108b8565b61032d60008054906101000a900473ffffffffffffffffffffffffffffffffffffffff16600260008473ffffffffffffffffffffffffffffffffffffffff1673ffffffffffffffffffffffffffffffffffffffff168152602001908152602001600020548373ffffffffffffffffffffffffffffffffffffffff166108be9092919063ffffffff16565b61034167279a44395b8d3c4360c01b6108b8565b6000600260008373ffffffffffffffffffffffffffffffffffffffff1673ffffffffffffffffffffffffffffffffffffffff1681526020019081526020016000208190555050565b60026020528060005260406000206000915090505481565b6103b5673957059f26f3feaa60c01b6108b8565b6103c96765fcac3f022f8e7d60c01b6108b8565b6103dd67b28cd1f14b1f549960c01b6108b8565b6103f167bfd3d8718f75efa560c01b6108b8565b60008111610434576040517f08c379a000000000000000000000000000000000000000000000000000000000815260040161042b90610eea565b60405180910390fd5b610448676e57b499be5879f560c01b6108b8565b61045c678c93488e93f7976460c01b6108b8565b61047067292a3aae12c9775460c01b6108b8565b6000610486676d47e79eefa720f460c01b6108b8565b61049a67f7777fcdcbbc37f160c01b6108b8565b6104c73330848673ffffffffffffffffffffffffffffffffffffffff16610944909392919063ffffffff16565b6104db67fa675e5278d5a30060c01b6108b8565b6104ef67e5ae6292417ebbe760c01b6108b8565b6103e882101561054d5761050d67b46ade4dd0f4be8260c01b6108b8565b61052167418cf1b3a2518d3f60c01b6108b8565b60019050610539675fb9e1c149346da660c01b6108b8565b6001826105469190610f39565b91506105b4565b6105616736f648fba366969460c01b6108b8565b61057567a666ea1911503dc860c01b6108b8565b612710600a836105859190610f6d565b61058f9190610fde565b90506105a5675069f69f6b6c338f60c01b6108b8565b80826105b19190610f39565b91505b6105c867e6e3ef71b83e928060c01b6108b8565b81600160003373ffffffffffffffffffffffffffffffffffffffff1673ffffffffffffffffffffffffffffffffffffffff16815260200190815260200160002060008573ffffffffffffffffffffffffffffffffffffffff1673ffffffffffffffffffffffffffffffffffffffff1681526020019081526020016000206000828254610654919061100f565b9250508190555061066f67e79723449f85aff560c01b6108b8565b80600260008573ffffffffffffffffffffffffffffffffffffffff1673ffffffffffffffffffffffffffffffffffffffff16815260200190815260200160002060008282546106be919061100f565b92505081905550505050565b60008054906101000a900473ffffffffffffffffffffffffffffffffffffffff1681565b6001602052816000526040600020602052806000526040600020600091509150505481565b6107276733d3c2e8537172ee60c01b6108b8565b61073b673cfe208a28d771c060c01b6108b8565b61074f67e9fff55a3ca2418c60c01b6108b8565b61076367873dd71f49b1d3fd60c01b6108b8565b600081116107a6576040517f08c379a000000000000000000000000000000000000000000000000000000000815260040161079d90610eea565b60405180910390fd5b6107ba67800f8a20ff0094d960c01b6108b8565b6107ce677194b66831fc688160c01b6108b8565b80600160003373ffffffffffffffffffffffffffffffffffffffff1673ffffffffffffffffffffffffffffffffffffffff16815260200190815260200160002060008473ffffffffffffffffffffffffffffffffffffffff1673ffffffffffffffffffffffffffffffffffffffff168152602001908152602001600020600082825461085a9190610f39565b9250508190555061087567a2eccc84988205c860c01b6108b8565b610889670735f7f3b946137460c01b6108b8565b6108b433828473ffffffffffffffffffffffffffffffffffffffff166108be9092919063ffffffff16565b5050565b50565b50565b61093f8363a9059cbb60e01b84846040516024016108dd929190611043565b604051602081830303815290604052907bffffffffffffffffffffffffffffffffffffffffffffffffffffffff19166020820180517bffffffffffffffffffffffffffffffffffffffffffffffffffffffff83818316178352505050506109cd565b505050565b6109c7846323b872dd60e01b8585856040516024016109659392919061106c565b604051602081830303815290604052907bffffffffffffffffffffffffffffffffffffffffffffffffffffffff19166020820180517bffffffffffffffffffffffffffffffffffffffffffffffffffffffff83818316178352505050506109cd565b50505050565b6000610a2f826040518060400160405280602081526020017f5361666545524332303a206c6f772d6c6576656c2063616c6c206661696c65648152508573ffffffffffffffffffffffffffffffffffffffff16610a949092919063ffffffff16565b9050600081511115610a8f5780806020019051810190610a4f91906110db565b610a8e576040517f08c379a0000000000000000000000000000000000000000000000000000000008152600401610a859061117a565b60405180910390fd5b5b505050565b6060610aa38484600085610aac565b90509392505050565b606082471015610af1576040517f08c379a0000000000000000000000000000000000000000000000000000000008152600401610ae89061120c565b60405180910390fd5b6000808673ffffffffffffffffffffffffffffffffffffffff168587604051610b1a919061129d565b60006040518083038185875af1925050503d8060008114610b57576040519150601f19603f3d011682016040523d82523d6000602084013e610b5c565b606091505b5091509150610b6d87838387610b79565b92505050949350505050565b60608315610bdb576000835103610bd357610b9385610bee565b610bd2576040517f08c379a0000000000000000000000000000000000000000000000000000000008152600401610bc990611300565b60405180910390fd5b5b829050610be6565b610be58383610c11565b5b949350505050565b6000808273ffffffffffffffffffffffffffffffffffffffff163b119050919050565b600082511115610c245781518083602001fd5b806040517f08c379a0000000000000000000000000000000000000000000000000000000008152600401610c589190611375565b60405180910390fd5b600080fd5b600073ffffffffffffffffffffffffffffffffffffffff82169050919050565b6000610c9182610c66565b9050919050565b610ca181610c86565b8114610cac57600080fd5b50565b600081359050610cbe81610c98565b92915050565b600060208284031215610cda57610cd9610c61565b5b6000610ce884828501610caf565b91505092915050565b6000819050919050565b610d0481610cf1565b82525050565b6000602082019050610d1f6000830184610cfb565b92915050565b610d2e81610cf1565b8114610d3957600080fd5b50565b600081359050610d4b81610d25565b92915050565b60008060408385031215610d6857610d67610c61565b5b6000610d7685828601610caf565b9250506020610d8785828601610d3c565b9150509250929050565b610d9a81610c86565b82525050565b6000602082019050610db56000830184610d91565b92915050565b60008060408385031215610dd257610dd1610c61565b5b6000610de085828601610caf565b9250506020610df185828601610caf565b9150509250929050565b600082825260208201905092915050565b7f4f6e6c79204f776e65722063616e2075736520746869732066756e6374696f6e60008201527f2e00000000000000000000000000000000000000000000000000000000000000602082015250565b6000610e68602183610dfb565b9150610e7382610e0c565b604082019050919050565b60006020820190508181036000830152610e9781610e5b565b9050919050565b7f416d6f756e742073686f756c64206265206c6172676572207468616e20302e00600082015250565b6000610ed4601f83610dfb565b9150610edf82610e9e565b602082019050919050565b60006020820190508181036000830152610f0381610ec7565b9050919050565b7f4e487b7100000000000000000000000000000000000000000000000000000000600052601160045260246000fd5b6000610f4482610cf1565b9150610f4f83610cf1565b9250828203905081811115610f6757610f66610f0a565b5b92915050565b6000610f7882610cf1565b9150610f8383610cf1565b9250828202610f9181610cf1565b91508282048414831517610fa857610fa7610f0a565b5b5092915050565b7f4e487b7100000000000000000000000000000000000000000000000000000000600052601260045260246000fd5b6000610fe982610cf1565b9150610ff483610cf1565b92508261100457611003610faf565b5b828204905092915050565b600061101a82610cf1565b915061102583610cf1565b925082820190508082111561103d5761103c610f0a565b5b92915050565b60006040820190506110586000830185610d91565b6110656020830184610cfb565b9392505050565b60006060820190506110816000830186610d91565b61108e6020830185610d91565b61109b6040830184610cfb565b949350505050565b60008115159050919050565b6110b8816110a3565b81146110c357600080fd5b50565b6000815190506110d5816110af565b92915050565b6000602082840312156110f1576110f0610c61565b5b60006110ff848285016110c6565b91505092915050565b7f5361666545524332303a204552433230206f7065726174696f6e20646964206e60008201527f6f74207375636365656400000000000000000000000000000000000000000000602082015250565b6000611164602a83610dfb565b915061116f82611108565b604082019050919050565b6000602082019050818103600083015261119381611157565b9050919050565b7f416464726573733a20696e73756666696369656e742062616c616e636520666f60008201527f722063616c6c0000000000000000000000000000000000000000000000000000602082015250565b60006111f6602683610dfb565b91506112018261119a565b604082019050919050565b60006020820190508181036000830152611225816111e9565b9050919050565b600081519050919050565b600081905092915050565b60005b83811015611260578082015181840152602081019050611245565b60008484015250505050565b60006112778261122c565b6112818185611237565b9350611291818560208601611242565b80840191505092915050565b60006112a9828461126c565b915081905092915050565b7f416464726573733a2063616c6c20746f206e6f6e2d636f6e7472616374000000600082015250565b60006112ea601d83610dfb565b91506112f5826112b4565b602082019050919050565b60006020820190508181036000830152611319816112dd565b9050919050565b600081519050919050565b6000601f19601f8301169050919050565b600061134782611320565b6113518185610dfb565b9350611361818560208601611242565b61136a8161132b565b840191505092915050565b6000602082019050818103600083015261138f818461133c565b90509291505056fea2646970667358221220f3bdbdc8ec45e90c12166124c7abc80519c4d8538b1f980f06abd39f17e4a5bb64736f6c6343000812003360806040523480156200001157600080fd5b5060405162000c6738038062000c67833981810160405281019062000037919062000203565b6200005367363e07a1c7cf49cf60c01b6200015760201b60201c565b6200006f67efa6a12a37cf60a660c01b6200015760201b60201c565b6200008b679bbdf5840f83607a60c01b6200015760201b60201c565b620000d160017fb618d9d3acae9868efbd61e58009d02a18b4c68c820f7d374893e09cc600f2ce60001c620000c1919062000283565b60001b826200015a60201b60201c565b620000ed6794d520d2e2540d7e60c01b6200015760201b60201c565b62000109675b2207298004bf4260c01b6200015760201b60201c565b6200014f60017f360894a13ba1a3210667c828492db98dca3e2076cc3735a920a3ca505d382bbd60001c6200013f919062000283565b60001b836200015a60201b60201c565b5050620002be565b50565b62000176673bf0eb899936ed6760c01b6200015760201b60201c565b62000192679d6191d532b17a8e60c01b6200015760201b60201c565b8082555050565b600080fd5b600073ffffffffffffffffffffffffffffffffffffffff82169050919050565b6000620001cb826200019e565b9050919050565b620001dd81620001be565b8114620001e957600080fd5b50565b600081519050620001fd81620001d2565b92915050565b600080604083850312156200021d576200021c62000199565b5b60006200022d85828601620001ec565b92505060206200024085828601620001ec565b9150509250929050565b6000819050919050565b7f4e487b7100000000000000000000000000000000000000000000000000000000600052601160045260246000fd5b600062000290826200024a565b91506200029d836200024a565b9250828203905081811115620002b857620002b762000254565b5b92915050565b61099980620002ce6000396000f3fe6080604052600436106100385760003560e01c80631c1b8772146101ff578063893d20e814610228578063a6f9dae1146102535761003f565b3661003f57005b60003660606100586794d30a998e4615bc60c01b61027c565b61006c679f427ba19831257f60c01b61027c565b61008067326c6bcb1dc7067e60c01b61027c565b600061009667964c2ff879730df560c01b61027c565b6100d160017f360894a13ba1a3210667c828492db98dca3e2076cc3735a920a3ca505d382bbd60001c6100c9919061077a565b60001b61027f565b90506100e767406118bbe1f4c81e60c01b61027c565b6100fb67de829d45d620bc3160c01b61027c565b6000610111674a019424e2869ca460c01b61027c565b8173ffffffffffffffffffffffffffffffffffffffff1685856040516101389291906107ed565b600060405180830381855af49150503d8060008114610173576040519150601f19603f3d011682016040523d82523d6000602084013e610178565b606091505b508094508192505050610195677ccd2e16610b226f60c01b61027c565b6101a9677239e6c1431c2be160c01b61027c565b806101de576101c26718585803c3b7aacd60c01b61027c565b6101d66793f208b277c2350d60c01b61027c565b825160208401fd5b6101f267b41a1e64a793b07360c01b61027c565b5050915050805190602001f35b34801561020b57600080fd5b5061022660048036038101906102219190610869565b6102b2565b005b34801561023457600080fd5b5061023d6104a3565b60405161024a91906108a5565b60405180910390f35b34801561025f57600080fd5b5061027a60048036038101906102759190610869565b610521565b005b50565b600061029567798a90f79330b1a860c01b61027c565b6102a967d48997b6f8a77e5960c01b61027c565b81549050919050565b6102c6676ac3133b1153add760c01b61027c565b6102da67de312c3877e2b64560c01b61027c565b6102ee67ab205cb8dc87973860c01b61027c565b610302678cd77e4da31be0e260c01b61027c565b600061033f60017fb618d9d3acae9868efbd61e58009d02a18b4c68c820f7d374893e09cc600f2ce60001c610337919061077a565b60001b61027f565b90506103556708a9ac22bffe09cd60c01b61027c565b610369677644229d0154df6660c01b61027c565b61037d675bd779080dfa9b4a60c01b61027c565b8073ffffffffffffffffffffffffffffffffffffffff163373ffffffffffffffffffffffffffffffffffffffff16146103eb576040517f08c379a00000000000000000000000000000000000000000000000000000000081526004016103e290610943565b60405180910390fd5b6103ff6732a054f20ebe052260c01b61027c565b610413679af21d3e250369d360c01b61027c565b61042767fe57722adb7fe83a60c01b61027c565b61043b6726a03b71bb09efb260c01b61027c565b61044f6720247178a05d43d160c01b61027c565b61046367542d2f0609e8c73b60c01b61027c565b61049f60017f360894a13ba1a3210667c828492db98dca3e2076cc3735a920a3ca505d382bbd60001c610496919061077a565b60001b83610712565b5050565b60006104b967addfbf40a855b83560c01b61027c565b6104cd673eed37b21cc7841060c01b61027c565b6104e167178d63140ccb0c8c60c01b61027c565b61051c60017fb618d9d3acae9868efbd61e58009d02a18b4c68c820f7d374893e09cc600f2ce60001c610514919061077a565b60001b61027f565b905090565b610535672c1a6c46c12e07df60c01b61027c565b61054967de312c3877e2b64560c01b61027c565b61055d67ab205cb8dc87973860c01b61027c565b610571678cd77e4da31be0e260c01b61027c565b60006105ae60017fb618d9d3acae9868efbd61e58009d02a18b4c68c820f7d374893e09cc600f2ce60001c6105a6919061077a565b60001b61027f565b90506105c46708a9ac22bffe09cd60c01b61027c565b6105d8677644229d0154df6660c01b61027c565b6105ec675bd779080dfa9b4a60c01b61027c565b8073ffffffffffffffffffffffffffffffffffffffff163373ffffffffffffffffffffffffffffffffffffffff161461065a576040517f08c379a000000000000000000000000000000000000000000000000000000000815260040161065190610943565b60405180910390fd5b61066e6732a054f20ebe052260c01b61027c565b610682679af21d3e250369d360c01b61027c565b61069667a0327dc5503bc63760c01b61027c565b6106aa6780268e0e48a8868d60c01b61027c565b6106be67945cf222bf3f850660c01b61027c565b6106d267ca2355fca2b6b3de60c01b61027c565b61070e60017fb618d9d3acae9868efbd61e58009d02a18b4c68c820f7d374893e09cc600f2ce60001c610705919061077a565b60001b83610712565b5050565b610726673bf0eb899936ed6760c01b61027c565b61073a679d6191d532b17a8e60c01b61027c565b8082555050565b6000819050919050565b7f4e487b7100000000000000000000000000000000000000000000000000000000600052601160045260246000fd5b600061078582610741565b915061079083610741565b92508282039050818111156107a8576107a761074b565b5b92915050565b600081905092915050565b82818337600083830152505050565b60006107d483856107ae565b93506107e18385846107b9565b82840190509392505050565b60006107fa8284866107c8565b91508190509392505050565b600080fd5b600073ffffffffffffffffffffffffffffffffffffffff82169050919050565b60006108368261080b565b9050919050565b6108468161082b565b811461085157600080fd5b50565b6000813590506108638161083d565b92915050565b60006020828403121561087f5761087e610806565b5b600061088d84828501610854565b91505092915050565b61089f8161082b565b82525050565b60006020820190506108ba6000830184610896565b92915050565b600082825260208201905092915050565b7f4f6e6c79204f776e65722063616e2075736520746869732066756e6374696f6e60008201527f2e00000000000000000000000000000000000000000000000000000000000000602082015250565b600061092d6021836108c0565b9150610938826108d1565b604082019050919050565b6000602082019050818103600083015261095c81610920565b905091905056fea26469706673582212205ade4ffa7592742c62d4dc8e451352838d1dc2d1760498fbecc0dc3144e8685a64736f6c63430008120033a26469706673582212206dca1c197dbbe50986c740b38edf7a10b6632f39536703205f288db751054cdd64736f6c63430008120033",
  "linkReferences": {},
  "deployedLinkReferences": {}
}